{
  "abi": [
    {
      "inputs": [
        {
          "internalType": "uint32",
          "name": "domain",
          "type": "uint32"
        },
        {
          "internalType": "address",
          "name": "destination_",
          "type": "address"
        }
      ],
      "stateMutability": "nonpayable",
      "type": "constructor"
    },
    {
      "inputs": [],
      "name": "IncorrectDestinationDomain",
      "type": "error"
    },
    {
      "inputs": [],
      "name": "IncorrectVersionLength",
      "type": "error"
    },
    {
      "inputs": [],
      "name": "LocalGasDataNotSet",
      "type": "error"
    },
    {
      "inputs": [],
      "name": "RemoteGasDataNotSet",
      "type": "error"
    },
    {
      "anonymous": false,
      "inputs": [
        {
          "indexed": false,
          "internalType": "uint32",
          "name": "domain",
          "type": "uint32"
        },
        {
          "indexed": false,
          "internalType": "uint256",
          "name": "paddedGasData",
          "type": "uint256"
        }
      ],
      "name": "GasDataUpdated",
      "type": "event"
    },
    {
      "anonymous": false,
      "inputs": [
        {
          "indexed": false,
          "internalType": "uint8",
          "name": "version",
          "type": "uint8"
        }
      ],
      "name": "Initialized",
      "type": "event"
    },
    {
      "anonymous": false,
      "inputs": [
        {
          "indexed": true,
          "internalType": "address",
          "name": "previousOwner",
          "type": "address"
        },
        {
          "indexed": true,
          "internalType": "address",
          "name": "newOwner",
          "type": "address"
        }
      ],
      "name": "OwnershipTransferred",
      "type": "event"
    },
    {
      "inputs": [],
      "name": "GAS_DATA_DECREASED_OPTIMISTIC_PERIOD",
      "outputs": [
        {
          "internalType": "uint256",
          "name": "",
          "type": "uint256"
        }
      ],
      "stateMutability": "view",
      "type": "function"
    },
    {
      "inputs": [],
      "name": "GAS_DATA_INCREASED_OPTIMISTIC_PERIOD",
      "outputs": [
        {
          "internalType": "uint256",
          "name": "",
          "type": "uint256"
        }
      ],
      "stateMutability": "view",
      "type": "function"
    },
    {
      "inputs": [],
      "name": "destination",
      "outputs": [
        {
          "internalType": "address",
          "name": "",
          "type": "address"
        }
      ],
      "stateMutability": "view",
      "type": "function"
    },
    {
      "inputs": [
        {
          "internalType": "uint32",
          "name": "domain",
          "type": "uint32"
        }
      ],
      "name": "getDecodedGasData",
      "outputs": [
        {
          "internalType": "uint256",
          "name": "gasPrice",
          "type": "uint256"
        },
        {
          "internalType": "uint256",
          "name": "dataPrice",
          "type": "uint256"
        },
        {
          "internalType": "uint256",
          "name": "execBuffer",
          "type": "uint256"
        },
        {
          "internalType": "uint256",
          "name": "amortAttCost",
          "type": "uint256"
        },
        {
          "internalType": "uint256",
          "name": "etherPrice",
          "type": "uint256"
        },
        {
          "internalType": "uint256",
          "name": "markup",
          "type": "uint256"
        }
      ],
      "stateMutability": "view",
      "type": "function"
    },
    {
      "inputs": [],
      "name": "getGasData",
      "outputs": [
        {
          "internalType": "uint256",
          "name": "paddedGasData",
          "type": "uint256"
        }
      ],
      "stateMutability": "view",
      "type": "function"
    },
    {
      "inputs": [
        {
          "internalType": "uint32",
          "name": "destination_",
          "type": "uint32"
        },
        {
          "internalType": "uint256",
          "name": "paddedRequest",
          "type": "uint256"
        },
        {
          "internalType": "uint256",
          "name": "contentLength",
          "type": "uint256"
        }
      ],
      "name": "getMinimumTips",
      "outputs": [
        {
          "internalType": "uint256",
          "name": "paddedTips",
          "type": "uint256"
        }
      ],
      "stateMutability": "view",
      "type": "function"
    },
    {
      "inputs": [],
      "name": "initialize",
      "outputs": [],
      "stateMutability": "nonpayable",
      "type": "function"
    },
    {
      "inputs": [],
      "name": "localDomain",
      "outputs": [
        {
          "internalType": "uint32",
          "name": "",
          "type": "uint32"
        }
      ],
      "stateMutability": "view",
      "type": "function"
    },
    {
      "inputs": [
        {
          "components": [
            {
              "internalType": "bool",
              "name": "allowFailure",
              "type": "bool"
            },
            {
              "internalType": "bytes",
              "name": "callData",
              "type": "bytes"
            }
          ],
          "internalType": "struct MultiCallable.Call[]",
          "name": "calls",
          "type": "tuple[]"
        }
      ],
      "name": "multicall",
      "outputs": [
        {
          "components": [
            {
              "internalType": "bool",
              "name": "success",
              "type": "bool"
            },
            {
              "internalType": "bytes",
              "name": "returnData",
              "type": "bytes"
            }
          ],
          "internalType": "struct MultiCallable.Result[]",
          "name": "callResults",
          "type": "tuple[]"
        }
      ],
      "stateMutability": "nonpayable",
      "type": "function"
    },
    {
      "inputs": [],
      "name": "owner",
      "outputs": [
        {
          "internalType": "address",
          "name": "",
          "type": "address"
        }
      ],
      "stateMutability": "view",
      "type": "function"
    },
    {
      "inputs": [],
      "name": "renounceOwnership",
      "outputs": [],
      "stateMutability": "nonpayable",
      "type": "function"
    },
    {
      "inputs": [
        {
          "internalType": "uint32",
          "name": "domain",
          "type": "uint32"
        },
        {
          "internalType": "uint256",
          "name": "gasPrice",
          "type": "uint256"
        },
        {
          "internalType": "uint256",
          "name": "dataPrice",
          "type": "uint256"
        },
        {
          "internalType": "uint256",
          "name": "execBuffer",
          "type": "uint256"
        },
        {
          "internalType": "uint256",
          "name": "amortAttCost",
          "type": "uint256"
        },
        {
          "internalType": "uint256",
          "name": "etherPrice",
          "type": "uint256"
        },
        {
          "internalType": "uint256",
          "name": "markup",
          "type": "uint256"
        }
      ],
      "name": "setGasData",
      "outputs": [],
      "stateMutability": "nonpayable",
      "type": "function"
    },
    {
      "inputs": [
        {
          "internalType": "uint256",
          "name": "summitTipWei",
          "type": "uint256"
        }
      ],
      "name": "setSummitTip",
      "outputs": [],
      "stateMutability": "nonpayable",
      "type": "function"
    },
    {
      "inputs": [
        {
          "internalType": "address",
          "name": "newOwner",
          "type": "address"
        }
      ],
      "name": "transferOwnership",
      "outputs": [],
      "stateMutability": "nonpayable",
      "type": "function"
    },
    {
      "inputs": [
        {
          "internalType": "uint32",
          "name": "domain",
          "type": "uint32"
        }
      ],
      "name": "updateGasData",
      "outputs": [],
      "stateMutability": "nonpayable",
      "type": "function"
    },
    {
      "inputs": [],
      "name": "version",
      "outputs": [
        {
          "internalType": "string",
          "name": "versionString",
          "type": "string"
        }
      ],
      "stateMutability": "view",
      "type": "function"
    }
  ],
  "bytecode": {
    "object": "0x61010060405234801561001157600080fd5b506040516114f03803806114f08339810160408190526100309161007b565b60408051808201909152600580825264302e302e3360d81b6020830152608052828161005b816100ca565b60a0525063ffffffff1660c052506001600160a01b031660e052506100f1565b6000806040838503121561008e57600080fd5b825163ffffffff811681146100a257600080fd5b60208401519092506001600160a01b03811681146100bf57600080fd5b809150509250929050565b805160208083015191908110156100eb576000198160200360031b1b821691505b50919050565b60805160a05160c05160e0516113a361014d600039600081816102f00152610ccf0152600081816101230152818161028f01528181610693015281816106df0152610c74015260006101930152600061017001526113a36000f3fe608060405234801561001057600080fd5b50600436106101005760003560e01c8063715018a6116100975780638d3638f4116100665780638d3638f41461028a5780638da5cb5b146102c6578063b269681d146102eb578063f2fde38b1461031257600080fd5b8063715018a61461025457806372010a931461025c5780638129fc1c1461026f578063867baea51461027757600080fd5b806360fc8466116100d357806360fc846614610203578063621b58de1461022357806364619d661461022c57806367fb40931461024157600080fd5b806333ae7bb71461010557806334926b291461012157806354fd4d5014610165578063556517b7146101c3575b600080fd5b61010e61012c81565b6040519081526020015b60405180910390f35b7f000000000000000000000000000000000000000000000000000000000000000063ffffffff166000908152609760205260409020546001600160601b031661010e565b6040805180820182527f000000000000000000000000000000000000000000000000000000000000000081527f0000000000000000000000000000000000000000000000000000000000000000602082015290516101189190610f64565b6101d66101d1366004610f8b565b610325565b604080519687526020870195909552938501929092526060840152608083015260a082015260c001610118565b610216610211366004610fa6565b6103dd565b604051610118919061101b565b61010e610e1081565b61023f61023a366004611091565b61052f565b005b61023f61024f3660046110e4565b610634565b61023f610663565b61010e61026a3660046110fd565b61068f565b61023f61090d565b61023f610285366004610f8b565b610982565b6102b17f000000000000000000000000000000000000000000000000000000000000000081565b60405163ffffffff9091168152602001610118565b6033546001600160a01b03165b6040516001600160a01b039091168152602001610118565b6102d37f000000000000000000000000000000000000000000000000000000000000000081565b61023f610320366004611130565b6109a7565b63ffffffff8116600090815260976020526040812054819081908190819081906001600160601b038116906103609060501c61ffff16610a3f565b9650610375604082901c63ffffffff16610a3f565b955061038c603082901c65ffffffffffff16610a3f565b94506103a5602082901c67ffffffffffffffff16610a3f565b93506103bd601082901c6001600160501b0316610a3f565b92506103d16001600160601b038216610a3f565b91505091939550919395565b6060818067ffffffffffffffff8111156103f9576103f9611159565b60405190808252806020026020018201604052801561043f57816020015b6040805180820190915260008152606060208201528152602001906001900390816104175790505b5091503660005b82811015610526578585828181106104605761046061116f565b90506020028101906104729190611185565b915060008482815181106104885761048861116f565b60200260200101519050306001600160a01b03168380602001906104ac91906111a5565b6040516104ba9291906111f3565b600060405180830381855af49150503d80600081146104f5576040519150601f19603f3d011682016040523d82523d6000602084013e6104fa565b606091505b506020830152151580825283351761051d576309ad446560e31b60005260046000fd5b50600101610446565b50505092915050565b6033546001600160a01b031633146105625760405162461bcd60e51b815260040161055990611203565b60405180910390fd5b60006105f561057088610a6b565b61057988610a6b565b61058288610a6b565b61058b88610a6b565b61059488610a6b565b61059d88610a6b565b61ffff60501b605087901b1669ffff0000000000000000604087901b161767ffff000000000000603086901b161765ffff00000000602085901b161763ffff0000601084901b161761ffff8216179695505050505050565b63ffffffff89166000908152609760205260409020549091506001600160601b0380831691161461062a5761062a8882610b1d565b5050505050505050565b6033546001600160a01b0316331461065e5760405162461bcd60e51b815260040161055990611203565b609855565b6033546001600160a01b0316331461068d5760405162461bcd60e51b815260040161055990611203565b565b60007f000000000000000000000000000000000000000000000000000000000000000063ffffffff168463ffffffff16036106dd576040516353a9611960e11b815260040160405180910390fd5b7f000000000000000000000000000000000000000000000000000000000000000063ffffffff166000908152609760205260408120546001600160601b03811691906107399060101c6001600160501b03165b61ffff16610a3f565b90508060000361075c57604051631a0b055d60e21b815260040160405180910390fd5b63ffffffff86166000908152609760205260408120546001600160601b03811691906107939060101c6001600160501b0316610730565b9050806000036107b657604051630ffb739760e01b815260040160405180910390fd5b60985487906000906107cc90869060401b61124e565b9050600085846107e9602088901c67ffffffffffffffff16610730565b6107f39190611270565b6107fd919061124e565b905060008685610818603089901c65ffffffffffff16610730565b8c61082c60408b901c63ffffffff16610730565b6108369190611270565b67ffffffffffffffff602089901c1661085661ffff60508d901c16610730565b6108609190611270565b61086a9190611287565b6108749190611287565b61087e9190611270565b610888919061124e565b9050600060406108a06001600160601b038916610730565b6108aa9084611270565b901c905067ffffffffffffffff602082811c919091169083901b6fffffffffffffffff000000000000000016606085901b67ffffffffffffffff60801b1660a087901b6001600160c01b03191617171799505050505050505050505b9392505050565b60006109196001610b8f565b90508015610931576000805461ff0019166101001790555b610939610c1c565b801561097f576000805461ff0019169055604051600181527f7f26b83ff96e1f2b6a682f133852f6798a09c465da95921460cefb38474024989060200160405180910390a15b50565b60008061098e83610c4b565b9150915081156109a2576109a28382610b1d565b505050565b6033546001600160a01b031633146109d15760405162461bcd60e51b815260040161055990611203565b6001600160a01b038116610a365760405162461bcd60e51b815260206004820152602660248201527f4f776e61626c653a206e6577206f776e657220697320746865207a65726f206160448201526564647265737360d01b6064820152608401610559565b61097f81610e3e565b600060ff600883901c81169080841690819003610a5d575092915050565b610100909101901b92915050565b600080610aee8360016fffffffffffffffffffffffffffffffff821160071b91821c67ffffffffffffffff811160061b90811c63ffffffff811160051b90811c61ffff811160041b90811c60ff8111600390811b91821c600f811160021b90811c918211871b91821c969096119490961792909217171791909117919091171790565b90506008811015610b04576109068360ff610e90565b6007198101610b1584821c82610e90565b949350505050565b63ffffffff821660008181526097602090815260409182902080546bffffffffffffffffffffffff19166001600160601b0386169081179091558251938452908301527fae7a6216b3de7722222303567564b3f11777a9665d278ef3762110de410e12b3910160405180910390a15050565b60008054610100900460ff1615610bd6578160ff166001148015610bb25750303b155b610bce5760405162461bcd60e51b81526004016105599061129a565b506000919050565b60005460ff808416911610610bfd5760405162461bcd60e51b81526004016105599061129a565b506000805460ff191660ff92909216919091179055600190565b919050565b600054610100900460ff16610c435760405162461bcd60e51b8152600401610559906112e8565b61068d610ea5565b63ffffffff808216600081815260976020526040812054909283926001600160601b03909216917f00000000000000000000000000000000000000000000000000000000000000009091169003610ca757600094909350915050565b60405163d0dd067560e01b815263ffffffff8516600482015260009081906001600160a01b037f0000000000000000000000000000000000000000000000000000000000000000169063d0dd0675906024016040805180830381865afa158015610d15573d6000803e3d6000fd5b505050506040513d601f19601f82011682018060405250810190610d399190611333565b9150915080600003610d5357506000959194509092505050565b610e1c610d71605085901c61ffff16605085901c61ffff1684610ed5565b610d90604086901c63ffffffff16604086901c63ffffffff1685610ed5565b610db3603087901c65ffffffffffff16603087901c65ffffffffffff1686610ed5565b610dda602088901c67ffffffffffffffff16602088901c67ffffffffffffffff1687610ed5565b610dff601089901c6001600160501b0316601089901c6001600160501b031688610ed5565b61059d6001600160601b038a166001600160601b038a1689610ed5565b9350826001600160601b0316846001600160601b031614159450505050915091565b603380546001600160a01b038381166001600160a01b0319831681179093556040519116919082907f8be0079c531659141344cd1fd0a4f28419497f9722a3daafe3b4186f6b6457e090600090a35050565b61ff00600883901b1660ff8216175b92915050565b600054610100900460ff16610ecc5760405162461bcd60e51b8152600401610559906112e8565b61068d33610e3e565b6000610ee48461ffff16610a3f565b610ef18461ffff16610a3f565b1115610f0f5761012c8210610f065782610f08565b835b9050610906565b610e108210610f065782610f08565b6000815180845260005b81811015610f4457602081850181015186830182015201610f28565b506000602082860101526020601f19601f83011685010191505092915050565b6020815260006109066020830184610f1e565b803563ffffffff81168114610c1757600080fd5b600060208284031215610f9d57600080fd5b61090682610f77565b60008060208385031215610fb957600080fd5b823567ffffffffffffffff80821115610fd157600080fd5b818501915085601f830112610fe557600080fd5b813581811115610ff457600080fd5b8660208260051b850101111561100957600080fd5b60209290920196919550909350505050565b60006020808301818452808551808352604092508286019150828160051b87010184880160005b8381101561108357888303603f19018552815180511515845287015187840187905261107087850182610f1e565b9588019593505090860190600101611042565b509098975050505050505050565b600080600080600080600060e0888a0312156110ac57600080fd5b6110b588610f77565b9960208901359950604089013598606081013598506080810135975060a0810135965060c00135945092505050565b6000602082840312156110f657600080fd5b5035919050565b60008060006060848603121561111257600080fd5b61111b84610f77565b95602085013595506040909401359392505050565b60006020828403121561114257600080fd5b81356001600160a01b038116811461090657600080fd5b634e487b7160e01b600052604160045260246000fd5b634e487b7160e01b600052603260045260246000fd5b60008235603e1983360301811261119b57600080fd5b9190910192915050565b6000808335601e198436030181126111bc57600080fd5b83018035915067ffffffffffffffff8211156111d757600080fd5b6020019150368190038213156111ec57600080fd5b9250929050565b8183823760009101908152919050565b6020808252818101527f4f776e61626c653a2063616c6c6572206973206e6f7420746865206f776e6572604082015260600190565b634e487b7160e01b600052601160045260246000fd5b60008261126b57634e487b7160e01b600052601260045260246000fd5b500490565b8082028115828204841417610e9f57610e9f611238565b80820180821115610e9f57610e9f611238565b6020808252602e908201527f496e697469616c697a61626c653a20636f6e747261637420697320616c72656160408201526d191e481a5b9a5d1a585b1a5e995960921b606082015260800190565b6020808252602b908201527f496e697469616c697a61626c653a20636f6e7472616374206973206e6f74206960408201526a6e697469616c697a696e6760a81b606082015260800190565b6000806040838503121561134657600080fd5b82516001600160601b038116811461135d57600080fd5b602093909301519294929350505056fea2646970667358221220cd3a7fb501d201391861ed02c7640ed683908c8c8f28c5270f7c874de267ebb864736f6c63430008110033",
    "linkReferences": {}
  },
  "methodIdentifiers": {
    "GAS_DATA_DECREASED_OPTIMISTIC_PERIOD()": "621b58de",
    "GAS_DATA_INCREASED_OPTIMISTIC_PERIOD()": "33ae7bb7",
    "destination()": "b269681d",
    "getDecodedGasData(uint32)": "556517b7",
    "getGasData()": "34926b29",
    "getMinimumTips(uint32,uint256,uint256)": "72010a93",
    "initialize()": "8129fc1c",
    "localDomain()": "8d3638f4",
    "multicall((bool,bytes)[])": "60fc8466",
    "owner()": "8da5cb5b",
    "renounceOwnership()": "715018a6",
    "setGasData(uint32,uint256,uint256,uint256,uint256,uint256,uint256)": "64619d66",
    "setSummitTip(uint256)": "67fb4093",
    "transferOwnership(address)": "f2fde38b",
    "updateGasData(uint32)": "867baea5",
    "version()": "54fd4d50"
  },
  "id": 1
}