{
  "abi": [
    {
      "inputs": [
        {
          "internalType": "uint32",
          "name": "domain",
          "type": "uint32"
        }
      ],
      "stateMutability": "nonpayable",
      "type": "constructor"
    },
    {
      "inputs": [],
      "name": "AgentCantBeAdded",
      "type": "error"
    },
    {
      "inputs": [],
      "name": "AgentNotActive",
      "type": "error"
    },
    {
      "inputs": [],
      "name": "AgentNotActiveNorUnstaking",
      "type": "error"
    },
    {
      "inputs": [],
      "name": "AgentNotFraudulent",
      "type": "error"
    },
    {
      "inputs": [],
      "name": "AgentNotUnstaking",
      "type": "error"
    },
    {
      "inputs": [],
      "name": "CallerNotDestination",
      "type": "error"
    },
    {
      "inputs": [],
      "name": "CallerNotInbox",
      "type": "error"
    },
    {
      "inputs": [],
      "name": "CallerNotSummit",
      "type": "error"
    },
    {
      "inputs": [],
      "name": "DisputeAlreadyResolved",
      "type": "error"
    },
    {
      "inputs": [],
      "name": "DisputeNotOpened",
      "type": "error"
    },
    {
      "inputs": [],
      "name": "DisputeNotStuck",
      "type": "error"
    },
    {
      "inputs": [],
      "name": "GuardInDispute",
      "type": "error"
    },
    {
      "inputs": [],
      "name": "IncorrectAgentDomain",
      "type": "error"
    },
    {
      "inputs": [],
      "name": "IncorrectVersionLength",
      "type": "error"
    },
    {
      "inputs": [],
      "name": "IndexOutOfRange",
      "type": "error"
    },
    {
      "inputs": [],
      "name": "LeafNotProven",
      "type": "error"
    },
    {
      "inputs": [],
      "name": "MerkleTreeFull",
      "type": "error"
    },
    {
      "inputs": [],
      "name": "MustBeSynapseDomain",
      "type": "error"
    },
    {
      "inputs": [],
      "name": "NotaryInDispute",
      "type": "error"
    },
    {
      "inputs": [],
      "name": "SlashAgentOptimisticPeriod",
      "type": "error"
    },
    {
      "inputs": [],
      "name": "SynapseDomainForbidden",
      "type": "error"
    },
    {
      "inputs": [],
      "name": "TreeHeightTooLow",
      "type": "error"
    },
    {
      "anonymous": false,
      "inputs": [
        {
          "indexed": false,
          "internalType": "uint256",
          "name": "disputeIndex",
          "type": "uint256"
        },
        {
          "indexed": false,
          "internalType": "uint32",
          "name": "guardIndex",
          "type": "uint32"
        },
        {
          "indexed": false,
          "internalType": "uint32",
          "name": "notaryIndex",
          "type": "uint32"
        }
      ],
      "name": "DisputeOpened",
      "type": "event"
    },
    {
      "anonymous": false,
      "inputs": [
        {
          "indexed": false,
          "internalType": "uint256",
          "name": "disputeIndex",
          "type": "uint256"
        },
        {
          "indexed": false,
          "internalType": "uint32",
          "name": "slashedIndex",
          "type": "uint32"
        },
        {
          "indexed": false,
          "internalType": "uint32",
          "name": "rivalIndex",
          "type": "uint32"
        },
        {
          "indexed": false,
          "internalType": "address",
          "name": "fraudProver",
          "type": "address"
        }
      ],
      "name": "DisputeResolved",
      "type": "event"
    },
    {
      "anonymous": false,
      "inputs": [
        {
          "indexed": false,
          "internalType": "uint8",
          "name": "version",
          "type": "uint8"
        }
      ],
      "name": "Initialized",
      "type": "event"
    },
    {
      "anonymous": false,
      "inputs": [
        {
          "indexed": true,
          "internalType": "address",
          "name": "previousOwner",
          "type": "address"
        },
        {
          "indexed": true,
          "internalType": "address",
          "name": "newOwner",
          "type": "address"
        }
      ],
      "name": "OwnershipTransferred",
      "type": "event"
    },
    {
      "anonymous": false,
      "inputs": [
        {
          "indexed": false,
          "internalType": "bytes32",
          "name": "newRoot",
          "type": "bytes32"
        }
      ],
      "name": "RootUpdated",
      "type": "event"
    },
    {
      "anonymous": false,
      "inputs": [
        {
          "indexed": false,
          "internalType": "enum AgentFlag",
          "name": "flag",
          "type": "uint8"
        },
        {
          "indexed": true,
          "internalType": "uint32",
          "name": "domain",
          "type": "uint32"
        },
        {
          "indexed": true,
          "internalType": "address",
          "name": "agent",
          "type": "address"
        }
      ],
      "name": "StatusUpdated",
      "type": "event"
    },
    {
      "inputs": [
        {
          "internalType": "uint32",
          "name": "domain",
          "type": "uint32"
        },
        {
          "internalType": "address",
          "name": "agent",
          "type": "address"
        },
        {
          "internalType": "bytes32[]",
          "name": "proof",
          "type": "bytes32[]"
        }
      ],
      "name": "addAgent",
      "outputs": [],
      "stateMutability": "nonpayable",
      "type": "function"
    },
    {
      "inputs": [
        {
          "internalType": "address",
          "name": "agent",
          "type": "address"
        }
      ],
      "name": "agentLeaf",
      "outputs": [
        {
          "internalType": "bytes32",
          "name": "leaf",
          "type": "bytes32"
        }
      ],
      "stateMutability": "view",
      "type": "function"
    },
    {
      "inputs": [],
      "name": "agentRoot",
      "outputs": [
        {
          "internalType": "bytes32",
          "name": "",
          "type": "bytes32"
        }
      ],
      "stateMutability": "view",
      "type": "function"
    },
    {
      "inputs": [
        {
          "internalType": "address",
          "name": "agent",
          "type": "address"
        }
      ],
      "name": "agentStatus",
      "outputs": [
        {
          "components": [
            {
              "internalType": "enum AgentFlag",
              "name": "flag",
              "type": "uint8"
            },
            {
              "internalType": "uint32",
              "name": "domain",
              "type": "uint32"
            },
            {
              "internalType": "uint32",
              "name": "index",
              "type": "uint32"
            }
          ],
          "internalType": "struct AgentStatus",
          "name": "status",
          "type": "tuple"
        }
      ],
      "stateMutability": "view",
      "type": "function"
    },
    {
      "inputs": [],
      "name": "allLeafs",
      "outputs": [
        {
          "internalType": "bytes32[]",
          "name": "leafs",
          "type": "bytes32[]"
        }
      ],
      "stateMutability": "view",
      "type": "function"
    },
    {
      "inputs": [
        {
          "internalType": "uint32",
          "name": "domain",
          "type": "uint32"
        },
        {
          "internalType": "address",
          "name": "agent",
          "type": "address"
        },
        {
          "internalType": "bytes32[]",
          "name": "proof",
          "type": "bytes32[]"
        }
      ],
      "name": "completeSlashing",
      "outputs": [],
      "stateMutability": "nonpayable",
      "type": "function"
    },
    {
      "inputs": [
        {
          "internalType": "uint32",
          "name": "domain",
          "type": "uint32"
        },
        {
          "internalType": "address",
          "name": "agent",
          "type": "address"
        },
        {
          "internalType": "bytes32[]",
          "name": "proof",
          "type": "bytes32[]"
        }
      ],
      "name": "completeUnstaking",
      "outputs": [],
      "stateMutability": "nonpayable",
      "type": "function"
    },
    {
      "inputs": [],
      "name": "destination",
      "outputs": [
        {
          "internalType": "address",
          "name": "",
          "type": "address"
        }
      ],
      "stateMutability": "view",
      "type": "function"
    },
    {
      "inputs": [
        {
          "internalType": "address",
          "name": "agent",
          "type": "address"
        }
      ],
      "name": "disputeStatus",
      "outputs": [
        {
          "internalType": "enum DisputeFlag",
          "name": "flag",
          "type": "uint8"
        },
        {
          "internalType": "address",
          "name": "rival",
          "type": "address"
        },
        {
          "internalType": "address",
          "name": "fraudProver",
          "type": "address"
        },
        {
          "internalType": "uint256",
          "name": "disputePtr",
          "type": "uint256"
        }
      ],
      "stateMutability": "view",
      "type": "function"
    },
    {
      "inputs": [
        {
          "internalType": "uint32",
          "name": "domain",
          "type": "uint32"
        }
      ],
      "name": "getActiveAgents",
      "outputs": [
        {
          "internalType": "address[]",
          "name": "agents",
          "type": "address[]"
        }
      ],
      "stateMutability": "view",
      "type": "function"
    },
    {
      "inputs": [
        {
          "internalType": "uint256",
          "name": "index",
          "type": "uint256"
        }
      ],
      "name": "getAgent",
      "outputs": [
        {
          "internalType": "address",
          "name": "agent",
          "type": "address"
        },
        {
          "components": [
            {
              "internalType": "enum AgentFlag",
              "name": "flag",
              "type": "uint8"
            },
            {
              "internalType": "uint32",
              "name": "domain",
              "type": "uint32"
            },
            {
              "internalType": "uint32",
              "name": "index",
              "type": "uint32"
            }
          ],
          "internalType": "struct AgentStatus",
          "name": "status",
          "type": "tuple"
        }
      ],
      "stateMutability": "view",
      "type": "function"
    },
    {
      "inputs": [
        {
          "internalType": "uint256",
          "name": "index",
          "type": "uint256"
        }
      ],
      "name": "getDispute",
      "outputs": [
        {
          "internalType": "address",
          "name": "guard",
          "type": "address"
        },
        {
          "internalType": "address",
          "name": "notary",
          "type": "address"
        },
        {
          "internalType": "address",
          "name": "slashedAgent",
          "type": "address"
        },
        {
          "internalType": "address",
          "name": "fraudProver",
          "type": "address"
        },
        {
          "internalType": "bytes",
          "name": "reportPayload",
          "type": "bytes"
        },
        {
          "internalType": "bytes",
          "name": "reportSignature",
          "type": "bytes"
        }
      ],
      "stateMutability": "view",
      "type": "function"
    },
    {
      "inputs": [],
      "name": "getDisputesAmount",
      "outputs": [
        {
          "internalType": "uint256",
          "name": "",
          "type": "uint256"
        }
      ],
      "stateMutability": "view",
      "type": "function"
    },
    {
      "inputs": [
        {
          "internalType": "uint256",
          "name": "indexFrom",
          "type": "uint256"
        },
        {
          "internalType": "uint256",
          "name": "amount",
          "type": "uint256"
        }
      ],
      "name": "getLeafs",
      "outputs": [
        {
          "internalType": "bytes32[]",
          "name": "leafs",
          "type": "bytes32[]"
        }
      ],
      "stateMutability": "view",
      "type": "function"
    },
    {
      "inputs": [
        {
          "internalType": "address",
          "name": "agent",
          "type": "address"
        }
      ],
      "name": "getProof",
      "outputs": [
        {
          "internalType": "bytes32[]",
          "name": "proof",
          "type": "bytes32[]"
        }
      ],
      "stateMutability": "view",
      "type": "function"
    },
    {
      "inputs": [],
      "name": "inbox",
      "outputs": [
        {
          "internalType": "address",
          "name": "",
          "type": "address"
        }
      ],
      "stateMutability": "view",
      "type": "function"
    },
    {
      "inputs": [
        {
          "internalType": "address",
          "name": "origin_",
          "type": "address"
        },
        {
          "internalType": "address",
          "name": "destination_",
          "type": "address"
        },
        {
          "internalType": "address",
          "name": "inbox_",
          "type": "address"
        },
        {
          "internalType": "address",
          "name": "summit_",
          "type": "address"
        }
      ],
      "name": "initialize",
      "outputs": [],
      "stateMutability": "nonpayable",
      "type": "function"
    },
    {
      "inputs": [
        {
          "internalType": "uint32",
          "name": "domain",
          "type": "uint32"
        },
        {
          "internalType": "address",
          "name": "agent",
          "type": "address"
        },
        {
          "internalType": "bytes32[]",
          "name": "proof",
          "type": "bytes32[]"
        }
      ],
      "name": "initiateUnstaking",
      "outputs": [],
      "stateMutability": "nonpayable",
      "type": "function"
    },
    {
      "inputs": [],
      "name": "leafsAmount",
      "outputs": [
        {
          "internalType": "uint256",
          "name": "amount",
          "type": "uint256"
        }
      ],
      "stateMutability": "view",
      "type": "function"
    },
    {
      "inputs": [],
      "name": "localDomain",
      "outputs": [
        {
          "internalType": "uint32",
          "name": "",
          "type": "uint32"
        }
      ],
      "stateMutability": "view",
      "type": "function"
    },
    {
      "inputs": [
        {
          "components": [
            {
              "internalType": "bool",
              "name": "allowFailure",
              "type": "bool"
            },
            {
              "internalType": "bytes",
              "name": "callData",
              "type": "bytes"
            }
          ],
          "internalType": "struct MultiCallable.Call[]",
          "name": "calls",
          "type": "tuple[]"
        }
      ],
      "name": "multicall",
      "outputs": [
        {
          "components": [
            {
              "internalType": "bool",
              "name": "success",
              "type": "bool"
            },
            {
              "internalType": "bytes",
              "name": "returnData",
              "type": "bytes"
            }
          ],
          "internalType": "struct MultiCallable.Result[]",
          "name": "callResults",
          "type": "tuple[]"
        }
      ],
      "stateMutability": "nonpayable",
      "type": "function"
    },
    {
      "inputs": [
        {
          "internalType": "uint32",
          "name": "guardIndex",
          "type": "uint32"
        },
        {
          "internalType": "uint32",
          "name": "notaryIndex",
          "type": "uint32"
        }
      ],
      "name": "openDispute",
      "outputs": [],
      "stateMutability": "nonpayable",
      "type": "function"
    },
    {
      "inputs": [],
      "name": "origin",
      "outputs": [
        {
          "internalType": "address",
          "name": "",
          "type": "address"
        }
      ],
      "stateMutability": "view",
      "type": "function"
    },
    {
      "inputs": [],
      "name": "owner",
      "outputs": [
        {
          "internalType": "address",
          "name": "",
          "type": "address"
        }
      ],
      "stateMutability": "view",
      "type": "function"
    },
    {
      "inputs": [
        {
          "internalType": "uint32",
          "name": "msgOrigin",
          "type": "uint32"
        },
        {
          "internalType": "uint256",
          "name": "proofMaturity",
          "type": "uint256"
        },
        {
          "internalType": "uint32",
          "name": "domain",
          "type": "uint32"
        },
        {
          "internalType": "address",
          "name": "agent",
          "type": "address"
        },
        {
          "internalType": "address",
          "name": "prover",
          "type": "address"
        }
      ],
      "name": "remoteSlashAgent",
      "outputs": [
        {
          "internalType": "bytes4",
          "name": "magicValue",
          "type": "bytes4"
        }
      ],
      "stateMutability": "nonpayable",
      "type": "function"
    },
    {
      "inputs": [],
      "name": "renounceOwnership",
      "outputs": [],
      "stateMutability": "nonpayable",
      "type": "function"
    },
    {
      "inputs": [
        {
          "internalType": "uint32",
          "name": "domain",
          "type": "uint32"
        },
        {
          "internalType": "address",
          "name": "slashedAgent",
          "type": "address"
        }
      ],
      "name": "resolveStuckDispute",
      "outputs": [],
      "stateMutability": "nonpayable",
      "type": "function"
    },
    {
      "inputs": [
        {
          "internalType": "uint32",
          "name": "domain",
          "type": "uint32"
        },
        {
          "internalType": "address",
          "name": "agent",
          "type": "address"
        },
        {
          "internalType": "address",
          "name": "prover",
          "type": "address"
        }
      ],
      "name": "slashAgent",
      "outputs": [],
      "stateMutability": "nonpayable",
      "type": "function"
    },
    {
      "inputs": [],
      "name": "summit",
      "outputs": [
        {
          "internalType": "address",
          "name": "",
          "type": "address"
        }
      ],
      "stateMutability": "view",
      "type": "function"
    },
    {
      "inputs": [
        {
          "internalType": "address",
          "name": "newOwner",
          "type": "address"
        }
      ],
      "name": "transferOwnership",
      "outputs": [],
      "stateMutability": "nonpayable",
      "type": "function"
    },
    {
      "inputs": [],
      "name": "version",
      "outputs": [
        {
          "internalType": "string",
          "name": "versionString",
          "type": "string"
        }
      ],
      "stateMutability": "view",
      "type": "function"
    },
    {
      "inputs": [
        {
          "internalType": "address",
          "name": "recipient",
          "type": "address"
        },
        {
          "internalType": "uint32",
          "name": "origin_",
          "type": "uint32"
        },
        {
          "internalType": "uint256",
          "name": "amount",
          "type": "uint256"
        }
      ],
      "name": "withdrawTips",
      "outputs": [],
      "stateMutability": "nonpayable",
      "type": "function"
    }
  ],
  "bytecode": {
    "object": "0x60e06040523480156200001157600080fd5b50604051620031523803806200315283398101604081905262000034916200009c565b60408051808201909152600580825264302e302e3360d81b602083015260805281816200006181620000cb565b60a0525063ffffffff90811660c0528216600a1490506200009557604051632b3a807f60e01b815260040160405180910390fd5b50620000f3565b600060208284031215620000af57600080fd5b815163ffffffff81168114620000c457600080fd5b9392505050565b80516020808301519190811015620000ed576000198160200360031b1b821691505b50919050565b60805160a05160c0516130286200012a600039600081816103ab015261143a0152600061033b0152600061031801526130286000f3fe608060405234801561001057600080fd5b50600436106101f05760003560e01c806389791e171161010f578063c1c0f4f6116100a2578063f2fde38b11610071578063f2fde38b146104ea578063f8c8765e146104fd578063fb0e722b14610510578063fbc5265e1461052357600080fd5b8063c1c0f4f61461047f578063c99dcb9e1461049f578063cc875501146104b2578063e3a96cbd146104c557600080fd5b80639d228a51116100de5780639d228a511461041a5780639fbcb9cb14610446578063a2155c3414610459578063b269681d1461046c57600080fd5b806389791e17146103935780638d3638f4146103a65780638da5cb5b146103e2578063938b5f321461040757600080fd5b80633463d1b1116101875780634c3e1c1f116101565780634c3e1c1f146102fa57806354fd4d501461030d57806360fc84661461036b578063715018a61461038b57600080fd5b80633463d1b1146102b457806336cba43c146102d75780633aaeccc6146102df5780633eea79d1146102e757600080fd5b806328f3fac9116101c357806328f3fac91461024e5780632de5aaf71461026e57806333c3a8f31461028f57806333d1b2e8146102a157600080fd5b806312db2ef6146101f5578063130c567314610213578063237a85a5146102285780632853a0e61461023b575b600080fd5b6101fd610536565b60405161020a9190612602565b60405180910390f35b6102266102213660046126b6565b61054d565b005b6102266102363660046126b6565b610625565b610226610249366004612781565b6107fc565b61026161025c3660046127c6565b610837565b60405161020a9190612837565b61028161027c366004612845565b6108c2565b60405161020a92919061285e565b60cc545b60405190815260200161020a565b6101fd6102af36600461287b565b610909565b6102c76102c23660046127c6565b6109e4565b60405161020a949392919061289d565b60cd54610293565b609b54610293565b6101fd6102f53660046127c6565b610b20565b6102266103083660046126b6565b610b7f565b6040805180820182527f000000000000000000000000000000000000000000000000000000000000000081527f00000000000000000000000000000000000000000000000000000000000000006020820152905161020a9190612924565b61037e610379366004612937565b610c22565b60405161020a91906129ac565b610226610d74565b6102266103a1366004612a22565b610da0565b6103cd7f000000000000000000000000000000000000000000000000000000000000000081565b60405163ffffffff909116815260200161020a565b6033546001600160a01b03165b6040516001600160a01b03909116815260200161020a565b6097546103ef906001600160a01b031681565b61042d610428366004612a57565b610f6b565b6040516001600160e01b0319909116815260200161020a565b60c9546103ef906001600160a01b031681565b610226610467366004612ab9565b610fda565b6098546103ef906001600160a01b031681565b61049261048d366004612af2565b6112cf565b60405161020a9190612b0f565b6102936104ad3660046127c6565b6113fc565b6102266104c0366004612b50565b61140d565b6104d86104d3366004612845565b61158d565b60405161020a96959493929190612b8f565b6102266104f83660046127c6565b611707565b61022661050b366004612bea565b6117a2565b6099546103ef906001600160a01b031681565b6102266105313660046126b6565b611880565b6060610548600060cc80549050610909565b905090565b6033546001600160a01b031633146105805760405162461bcd60e51b815260040161057790612c3e565b60405180910390fd5b600061058b83610837565b9050610596816118f5565b8363ffffffff16816020015163ffffffff16146105c657604051630b09697760e11b815260040160405180910390fd5b60006105d460018686611928565b905061061e81846040518060600160405280600260058111156105f9576105f96127e1565b81526020018963ffffffff168152602001866040015163ffffffff168152508761195f565b5050505050565b6033546001600160a01b0316331461064f5760405162461bcd60e51b815260040161057790612c3e565b60091963ffffffff8416016106775760405163079597d560e51b815260040160405180910390fd5b600061068283611aa8565b9050600080808351600581111561069b5761069b6127e1565b036107475760cc5463ffffffff116106c6576040516377ae67b360e11b815260040160405180910390fd5b60cc805460018082019092557f47197230e1e4b29fc0bd84d7d78966c0925452aff72a2a121538b102457e9ebe810180546001600160a01b0389166001600160a01b0319918216811790925563ffffffff8a16600090815260cb602090815260408220805496870181558252902090930180549093161790915591506107b0565b60038351600581111561075c5761075c6127e1565b14801561077857508563ffffffff16836020015163ffffffff16145b15610797578260400151915061079060038787611928565b90506107b0565b6040516386511bd960e01b815260040160405180910390fd5b6107f481856040518060600160405280600160058111156107d3576107d36127e1565b81526020018a63ffffffff1681526020018663ffffffff168152508861195f565b505050505050565b6099546001600160a01b031633146108275760405163dbc2fa8560e01b815260040160405180910390fd5b610832838383611b3d565b505050565b604080516060810182526000808252602082018190529181019190915261085d82611aa8565b90506002609a600061086e85611bdf565b815260208101919091526040016000205460ff166002811115610893576108936127e1565b1480156108b357506005815160058111156108b0576108b06127e1565b14155b156108bd57600481525b919050565b604080516060810182526000808252602082018190529181018290526108e783611c09565b91506001600160a01b038216156109045761090182610837565b90505b915091565b60cc5460609080841061092f57604051631390f2a160e01b815260040160405180910390fd5b8061093a8486612c89565b111561094d5761094a8482612c9c565b92505b8267ffffffffffffffff8111156109665761096661266f565b60405190808252806020026020018201604052801561098f578160200160208202803683370190505b50915060005b838110156109dc576109af6109aa8287612c89565b611c44565b8382815181106109c1576109c1612caf565b60209081029190910101526109d581612cc5565b9050610995565b505092915050565b60008060008060006109f586611bdf565b6000818152609a602052604080822081516060810190925280549394509192909190829060ff166002811115610a2d57610a2d6127e1565b6002811115610a3e57610a3e6127e1565b8152905461010081046001600160581b03908116602080850191909152600160601b9092046001600160a01b03166040938401528351928401519184015192995090965016935090508215610b17576000609b610a9c600186612c9c565b81548110610aac57610aac612caf565b600091825260209182902060408051606081018252929091015463ffffffff8082168085526401000000008304821695850195909552600160401b90910416908201529150610b13908414610b02578151610b08565b81602001515b63ffffffff16611c09565b9550505b50509193509193565b60606000610b2c610536565b90506000610b3984611aa8565b905060008082516005811115610b5157610b516127e1565b14610b6657816040015163ffffffff16610b6a565b60cc545b9050610b768382611c7c565b95945050505050565b6033546001600160a01b03163314610ba95760405162461bcd60e51b815260040161057790612c3e565b6000610bb483610837565b9050610bbf81611deb565b8363ffffffff16816020015163ffffffff1614610bef57604051630b09697760e11b815260040160405180910390fd5b6000610bfd60028686611928565b905061061e81846040518060600160405280600360058111156105f9576105f96127e1565b6060818067ffffffffffffffff811115610c3e57610c3e61266f565b604051908082528060200260200182016040528015610c8457816020015b604080518082019091526000815260606020820152815260200190600190039081610c5c5790505b5091503660005b82811015610d6b57858582818110610ca557610ca5612caf565b9050602002810190610cb79190612cde565b91506000848281518110610ccd57610ccd612caf565b60200260200101519050306001600160a01b0316838060200190610cf19190612cfe565b604051610cff929190612d4c565b600060405180830381855af49150503d8060008114610d3a576040519150601f19603f3d011682016040523d82523d6000602084013e610d3f565b606091505b5060208301521515808252833517610d62576309ad446560e31b60005260046000fd5b50600101610c8b565b50505092915050565b6033546001600160a01b03163314610d9e5760405162461bcd60e51b815260040161057790612c3e565b565b6033546001600160a01b03163314610dca5760405162461bcd60e51b815260040161057790612c3e565b6000609a6000610dd984611bdf565b8152602081019190915260409081016000208151606081019092528054829060ff166002811115610e0c57610e0c6127e1565b6002811115610e1d57610e1d6127e1565b8152905461010081046001600160581b03166020830152600160601b90046001600160a01b03166040909101529050600081516002811115610e6157610e616127e1565b03610e7f576040516359d38fd160e11b815260040160405180910390fd5b600281516002811115610e9457610e946127e1565b03610eb25760405163f10068b560e01b815260040160405180910390fd5b6098546040805163204c48a960e11b815290516000926001600160a01b03169163409891529160048083019260609291908290030181865afa158015610efc573d6000803e3d6000fd5b505050506040513d601f19601f82011682018060405250810190610f209190612d71565b505090508064ffffffffff16613840610f399190612c89565b421015610f59576040516301bf715b60e61b815260040160405180910390fd5b610f6584846000611b3d565b50505050565b6098546000906001600160a01b03163314610f9957604051636efcc49f60e01b815260040160405180910390fd5b62015180851015610fbd57604051630a8928dd60e41b815260040160405180910390fd5b610fc8848484611b3d565b50639d228a5160e01b95945050505050565b6099546001600160a01b031633146110055760405163dbc2fa8560e01b815260040160405180910390fd5b63ffffffff82166000908152609a602052604081205460ff16600281111561102f5761102f6127e1565b1461104d5760405163367526d360e21b815260040160405180910390fd5b63ffffffff81166000908152609a602052604081205460ff166002811115611077576110776127e1565b1461109557604051636893014360e01b815260040160405180910390fd5b604080516060808201835263ffffffff8086168352848116602084019081526000848601818152609b8054600181810183559382905296517fbba9db4cdbea0a37c207bbb83e20f828cd4441c49891101dc94fd20dc8efc3499097018054945192518616600160401b0263ffffffff60401b199387166401000000000267ffffffffffffffff1990961698909616979097179390931716929092179093559154835191820190935290819081526001600160581b0383166020808301919091526000604092830181905263ffffffff87168152609a9091522081518154829060ff1916600183600281111561118c5761118c6127e1565b0217905550602082015181546040938401516001600160a01b0316600160601b026001600160601b036001600160581b03909316610100029290921660ff9091161717905580516060810190915280600181526001600160581b0383166020808301919091526000604092830181905263ffffffff86168152609a9091522081518154829060ff19166001836002811115611229576112296127e1565b0217905550602082015181546040909301516001600160a01b0316600160601b026001600160601b036001600160581b03909216610100029190911660ff909316929092179190911790557fd0672fae056abe2bf0637742527d49add67fdb68192a6c6f6bf86eac19fe05306112a0600183612c9c565b6040805191825263ffffffff808716602084015285169082015260600160405180910390a16108328383611e1e565b63ffffffff8116600090815260cb60205260409020546060908067ffffffffffffffff8111156113015761130161266f565b60405190808252806020026020018201604052801561132a578160200160208202803683370190505b5091506000805b828110156113e95763ffffffff8516600090815260cb6020526040812080548390811061136057611360612caf565b6000918252602090912001546001600160a01b03169050600161138282610837565b516005811115611394576113946127e1565b036113d8578085846113a581612cc5565b9550815181106113b7576113b7612caf565b60200260200101906001600160a01b031690816001600160a01b0316815250505b506113e281612cc5565b9050611331565b508181146113f5578083525b5050919050565b600061140782611ef1565b92915050565b60c9546001600160a01b03163314611438576040516364e24e7360e11b815260040160405180910390fd5b7f000000000000000000000000000000000000000000000000000000000000000063ffffffff168263ffffffff16036114d657609754604051634e04e7a760e01b81526001600160a01b0385811660048301526024820184905290911690634e04e7a790604401600060405180830381600087803b1580156114b957600080fd5b505af11580156114cd573d6000803e3d6000fd5b50505050505050565b609754604080516001600160a01b038681166024830152604480830186905283518084039091018152606490920183526020820180516001600160e01b03166303f40e2760e31b179052915163a1c702a760e01b8152919092169163a1c702a79161154b918691620151809190600401612db8565b60408051808303816000875af1158015611569573d6000803e3d6000fd5b505050506040513d601f19601f8201168201806040525081019061061e9190612de1565b600080600080606080609b8054905087106115bb57604051631390f2a160e01b815260040160405180910390fd5b6000609b88815481106115d0576115d0612caf565b600091825260209182902060408051606081018252929091015463ffffffff8082168085526401000000008304821695850195909552600160401b9091041690820152915061161e90611c09565b9650611633816020015163ffffffff16611c09565b604082015190965063ffffffff161561168757611659816040015163ffffffff16611c09565b60408281015163ffffffff166000908152609a6020522054909550600160601b90046001600160a01b031693505b60995460405163c495912b60e01b8152600481018a90526001600160a01b039091169063c495912b90602401600060405180830381865afa1580156116d0573d6000803e3d6000fd5b505050506040513d6000823e601f3d908101601f191682016040526116f89190810190612e73565b97999698509496939592505050565b6033546001600160a01b031633146117315760405162461bcd60e51b815260040161057790612c3e565b6001600160a01b0381166117965760405162461bcd60e51b815260206004820152602660248201527f4f776e61626c653a206e6577206f776e657220697320746865207a65726f206160448201526564647265737360d01b6064820152608401610577565b61179f81611f32565b50565b60006117ae6001611f84565b905080156117c6576000805461ff0019166101001790555b6117d185858561200c565b60c980546001600160a01b0319166001600160a01b0384161790556117f4612072565b60cc80546001810182556000919091527f47197230e1e4b29fc0bd84d7d78966c0925452aff72a2a121538b102457e9ebe0180546001600160a01b0319169055801561061e576000805461ff0019169055604051600181527f7f26b83ff96e1f2b6a682f133852f6798a09c465da95921460cefb38474024989060200160405180910390a15050505050565b600061188b83610837565b9050611896816120a1565b8363ffffffff16816020015163ffffffff16146118c657604051630b09697760e11b815260040160405180910390fd5b60006118d184611ef1565b905061061e818460405180606001604052806005808111156105f9576105f96127e1565b60018151600581111561190a5761190a6127e1565b1461179f57604051632437e77160e11b815260040160405180910390fd5b600083838360405160200161193f93929190612ed7565b6040516020818303038152906040528051906020012090505b9392505050565b60006119748360000151846020015184611928565b9050600061199c846040015163ffffffff1687878560cd6120d490949392919063ffffffff16565b6001600160a01b038416600090815260ca60205260409020855181549293508692829060ff191660018360058111156119d7576119d76127e1565b0217905550602082810151825460409485015168ffffffffffffffff001990911661010063ffffffff9384160268ffffffff0000000000191617650100000000009183169190910217909255860151865192516001600160a01b0387169391909216917f8f9b8b0f4f062833bec85ea9a8465e4a1207b4be6eb565bbd0ae8b913588d04e91611a6591612f24565b60405180910390a36040518181527f2cbc14f49c068133583f7cb530018af451c87c1cf1327cf2a4ff4698c4730aa49060200160405180910390a1505050505050565b60408051606081018252600080825260208201819052918101919091526001600160a01b038216600090815260ca6020526040908190208151606081019092528054829060ff166005811115611b0057611b006127e1565b6005811115611b1157611b116127e1565b8152905463ffffffff610100820481166020840152650100000000009091041660409091015292915050565b6000611b4883611aa8565b9050611b538161211f565b8363ffffffff16816020015163ffffffff1614611b8357604051630b09697760e11b815260040160405180910390fd5b826001600160a01b03168463ffffffff167f8f9b8b0f4f062833bec85ea9a8465e4a1207b4be6eb565bbd0ae8b913588d04e6004604051611bc49190612f24565b60405180910390a3611bda816040015183612173565b610f65565b6001600160a01b0316600090815260ca602052604090205465010000000000900463ffffffff1690565b60cc546000908210156108bd5760cc8281548110611c2957611c29612caf565b6000918252602090912001546001600160a01b031692915050565b600081156108bd5761140760cc8381548110611c6257611c62612caf565b6000918252602090912001546001600160a01b0316611ef1565b60606000611ca284518410611c9b57611c96846001612c89565b612408565b8451612408565b90508067ffffffffffffffff811115611cbd57611cbd61266f565b604051908082528060200260200182016040528015611ce6578160200160208202803683370190505b50845190925060005b82811015610d6b57818560011810611d08576000611d26565b858560011881518110611d1d57611d1d612caf565b60200260200101515b848281518110611d3857611d38612caf565b60200260200101818152505060005b82811015611dd85760008160010190506000888381518110611d6b57611d6b612caf565b602002602001015190506000858310611d85576000611da0565b898381518110611d9757611d97612caf565b60200260200101515b9050611dac8282612421565b8a600186901c81518110611dc257611dc2612caf565b6020908102919091010152505050600201611d47565b50600194851c94918201821c9101611cef565b600281516005811115611e0057611e006127e1565b1461179f5760405163398debe560e21b815260040160405180910390fd5b609854604051632885570d60e21b815263ffffffff8085166004830152831660248201526001600160a01b039091169063a2155c3490604401600060405180830381600087803b158015611e7157600080fd5b505af1158015611e85573d6000803e3d6000fd5b505060c954604051632885570d60e21b815263ffffffff8087166004830152851660248201526001600160a01b03909116925063a2155c3491506044015b600060405180830381600087803b158015611edd57600080fd5b505af11580156107f4573d6000803e3d6000fd5b600080611efd83611aa8565b9050600081516005811115611f1457611f146127e1565b14611f2c576119588160000151826020015185611928565b50919050565b603380546001600160a01b038381166001600160a01b0319831681179093556040519116919082907f8be0079c531659141344cd1fd0a4f28419497f9722a3daafe3b4186f6b6457e090600090a35050565b60008054610100900460ff1615611fcb578160ff166001148015611fa75750303b155b611fc35760405162461bcd60e51b815260040161057790612f32565b506000919050565b60005460ff808416911610611ff25760405162461bcd60e51b815260040161057790612f32565b506000805460ff191660ff92909216919091179055600190565b600054610100900460ff166120335760405162461bcd60e51b815260040161057790612f80565b609780546001600160a01b039485166001600160a01b031991821617909155609880549385169382169390931790925560998054919093169116179055565b600054610100900460ff166120995760405162461bcd60e51b815260040161057790612f80565b610d9e612469565b6004815160058111156120b6576120b66127e1565b1461179f57604051630a06903760e01b815260040160405180910390fd5b84546000906120e68686866020612499565b1461210457604051630c5805f160e11b815260040160405180910390fd5b6121118583856020612499565b958690555093949350505050565b600181516005811115612134576121346127e1565b141580156121555750600281516005811115612152576121526127e1565b14155b1561179f5760405163ec3d0d8560e01b815260040160405180910390fd5b63ffffffff82166000908152609a60205260408082208151606081019092528054829060ff1660028111156121aa576121aa6127e1565b60028111156121bb576121bb6127e1565b8152905461010081046001600160581b03166020830152600160601b90046001600160a01b031660409091015290506002815160028111156121ff576121ff6127e1565b0361221d5760405163f10068b560e01b815260040160405180910390fd5b60028082526001600160a01b03831660408084019190915263ffffffff85166000908152609a60205220825181548493839160ff1916906001908490811115612268576122686127e1565b021790555060208281015182546040909401516001600160a01b0316600160601b026001600160601b036001600160581b03928316610100021660ff909516949094179390931790915582015160009116156123fe576000600183602001516122d19190612fcb565b6001600160581b031690506000609b82815481106122f1576122f1612caf565b600091825260209182902060408051606081018252919092015463ffffffff80821683526401000000008204811694830194909452600160401b900490921690820152609b805491925087918490811061234d5761234d612caf565b600091825260209182902001805463ffffffff60401b1916600160401b63ffffffff9485160217905582015187821691161461238d578060200151612390565b80515b63ffffffff8181166000818152609a60209081526040808320929092558151878152938b16908401528201526001600160a01b03871660608201529093507fb4cad5624e1d1c6c622ec70516ee582fe3f6519440c5b47e5165141edc9c54cf9060800160405180910390a150505b610f658482612528565b600060015b82811015611f2c576001918201911b61240d565b60008215801561242f575081155b1561243c57506000611407565b50604080516020808201949094528082019290925280518083038201815260609092019052805191012090565b600054610100900460ff166124905760405162461bcd60e51b815260040161057790612f80565b610d9e33611f32565b8151600090828111156124bf5760405163c5360feb60e01b815260040160405180910390fd5b84915060005b818110156124fc576124f2838683815181106124e3576124e3612caf565b602002602001015189846125d1565b92506001016124c5565b50805b8381101561251e5761251483600089846125d1565b92506001016124ff565b5050949350505050565b609854604051630c22d24360e31b815263ffffffff8085166004830152831660248201526001600160a01b0390911690636116921890604401600060405180830381600087803b15801561257b57600080fd5b505af115801561258f573d6000803e3d6000fd5b505060c954604051630c22d24360e31b815263ffffffff8087166004830152851660248201526001600160a01b03909116925063611692189150604401611ec3565b6000600183831c1681036125f0576125e98585612421565b90506125fa565b6125e98486612421565b949350505050565b6020808252825182820181905260009190848201906040850190845b8181101561263a5783518352928401929184019160010161261e565b50909695505050505050565b63ffffffff8116811461179f57600080fd5b80356001600160a01b03811681146108bd57600080fd5b634e487b7160e01b600052604160045260246000fd5b604051601f8201601f1916810167ffffffffffffffff811182821017156126ae576126ae61266f565b604052919050565b6000806000606084860312156126cb57600080fd5b83356126d681612646565b925060206126e5858201612658565b9250604085013567ffffffffffffffff8082111561270257600080fd5b818701915087601f83011261271657600080fd5b8135818111156127285761272861266f565b8060051b9150612739848301612685565b818152918301840191848101908a84111561275357600080fd5b938501935b8385101561277157843582529385019390850190612758565b8096505050505050509250925092565b60008060006060848603121561279657600080fd5b83356127a181612646565b92506127af60208501612658565b91506127bd60408501612658565b90509250925092565b6000602082840312156127d857600080fd5b61195882612658565b634e487b7160e01b600052602160045260246000fd5b60068110612807576128076127e1565b9052565b6128168282516127f7565b60208181015163ffffffff9081169184019190915260409182015116910152565b60608101611407828461280b565b60006020828403121561285757600080fd5b5035919050565b6001600160a01b038316815260808101611958602083018461280b565b6000806040838503121561288e57600080fd5b50508035926020909101359150565b60808101600386106128b1576128b16127e1565b9481526001600160a01b0393841660208201529190921660408201526060015290565b60005b838110156128ef5781810151838201526020016128d7565b50506000910152565b600081518084526129108160208601602086016128d4565b601f01601f19169290920160200192915050565b60208152600061195860208301846128f8565b6000806020838503121561294a57600080fd5b823567ffffffffffffffff8082111561296257600080fd5b818501915085601f83011261297657600080fd5b81358181111561298557600080fd5b8660208260051b850101111561299a57600080fd5b60209290920196919550909350505050565b60006020808301818452808551808352604092508286019150828160051b87010184880160005b83811015612a1457888303603f190185528151805115158452870151878401879052612a01878501826128f8565b95880195935050908601906001016129d3565b509098975050505050505050565b60008060408385031215612a3557600080fd5b8235612a4081612646565b9150612a4e60208401612658565b90509250929050565b600080600080600060a08688031215612a6f57600080fd5b8535612a7a81612646565b9450602086013593506040860135612a9181612646565b9250612a9f60608701612658565b9150612aad60808701612658565b90509295509295909350565b60008060408385031215612acc57600080fd5b8235612ad781612646565b91506020830135612ae781612646565b809150509250929050565b600060208284031215612b0457600080fd5b813561195881612646565b6020808252825182820181905260009190848201906040850190845b8181101561263a5783516001600160a01b031683529284019291840191600101612b2b565b600080600060608486031215612b6557600080fd5b612b6e84612658565b92506020840135612b7e81612646565b929592945050506040919091013590565b6001600160a01b038781168252868116602083015285811660408301528416606082015260c060808201819052600090612bcb908301856128f8565b82810360a0840152612bdd81856128f8565b9998505050505050505050565b60008060008060808587031215612c0057600080fd5b612c0985612658565b9350612c1760208601612658565b9250612c2560408601612658565b9150612c3360608601612658565b905092959194509250565b6020808252818101527f4f776e61626c653a2063616c6c6572206973206e6f7420746865206f776e6572604082015260600190565b634e487b7160e01b600052601160045260246000fd5b8082018082111561140757611407612c73565b8181038181111561140757611407612c73565b634e487b7160e01b600052603260045260246000fd5b600060018201612cd757612cd7612c73565b5060010190565b60008235603e19833603018112612cf457600080fd5b9190910192915050565b6000808335601e19843603018112612d1557600080fd5b83018035915067ffffffffffffffff821115612d3057600080fd5b602001915036819003821315612d4557600080fd5b9250929050565b8183823760009101908152919050565b805164ffffffffff811681146108bd57600080fd5b600080600060608486031215612d8657600080fd5b612d8f84612d5c565b9250612d9d60208501612d5c565b91506040840151612dad81612646565b809150509250925092565b600063ffffffff808616835280851660208401525060606040830152610b7660608301846128f8565b60008060408385031215612df457600080fd5b8251612dff81612646565b6020939093015192949293505050565b600082601f830112612e2057600080fd5b815167ffffffffffffffff811115612e3a57612e3a61266f565b612e4d601f8201601f1916602001612685565b818152846020838601011115612e6257600080fd5b6125fa8260208301602087016128d4565b60008060408385031215612e8657600080fd5b825167ffffffffffffffff80821115612e9e57600080fd5b612eaa86838701612e0f565b93506020850151915080821115612ec057600080fd5b50612ecd85828601612e0f565b9150509250929050565b600060068510612ee957612ee96127e1565b5060f89390931b835260e09190911b6001600160e01b031916600183015260601b6bffffffffffffffffffffffff1916600582015260190190565b6020810161140782846127f7565b6020808252602e908201527f496e697469616c697a61626c653a20636f6e747261637420697320616c72656160408201526d191e481a5b9a5d1a585b1a5e995960921b606082015260800190565b6020808252602b908201527f496e697469616c697a61626c653a20636f6e7472616374206973206e6f74206960408201526a6e697469616c697a696e6760a81b606082015260800190565b6001600160581b03828116828216039080821115612feb57612feb612c73565b509291505056fea26469706673582212208d461c9592f6030aa5c08d232f392a224950404ba1eb92319f47221f8fec0a5564736f6c63430008110033",
    "linkReferences": {}
  },
  "methodIdentifiers": {
    "addAgent(uint32,address,bytes32[])": "237a85a5",
    "agentLeaf(address)": "c99dcb9e",
    "agentRoot()": "36cba43c",
    "agentStatus(address)": "28f3fac9",
    "allLeafs()": "12db2ef6",
    "completeSlashing(uint32,address,bytes32[])": "fbc5265e",
    "completeUnstaking(uint32,address,bytes32[])": "4c3e1c1f",
    "destination()": "b269681d",
    "disputeStatus(address)": "3463d1b1",
    "getActiveAgents(uint32)": "c1c0f4f6",
    "getAgent(uint256)": "2de5aaf7",
    "getDispute(uint256)": "e3a96cbd",
    "getDisputesAmount()": "3aaeccc6",
    "getLeafs(uint256,uint256)": "33d1b2e8",
    "getProof(address)": "3eea79d1",
    "inbox()": "fb0e722b",
    "initialize(address,address,address,address)": "f8c8765e",
    "initiateUnstaking(uint32,address,bytes32[])": "130c5673",
    "leafsAmount()": "33c3a8f3",
    "localDomain()": "8d3638f4",
    "multicall((bool,bytes)[])": "60fc8466",
    "openDispute(uint32,uint32)": "a2155c34",
    "origin()": "938b5f32",
    "owner()": "8da5cb5b",
    "remoteSlashAgent(uint32,uint256,uint32,address,address)": "9d228a51",
    "renounceOwnership()": "715018a6",
    "resolveStuckDispute(uint32,address)": "89791e17",
    "slashAgent(uint32,address,address)": "2853a0e6",
    "summit()": "9fbcb9cb",
    "transferOwnership(address)": "f2fde38b",
    "version()": "54fd4d50",
    "withdrawTips(address,uint32,uint256)": "cc875501"
  },
  "id": 65
}