{
  "abi": [
    {
      "inputs": [
        {
          "internalType": "address",
          "name": "origin_",
          "type": "address"
        },
        {
          "internalType": "address",
          "name": "destination_",
          "type": "address"
        }
      ],
      "stateMutability": "nonpayable",
      "type": "constructor"
    },
    {
      "inputs": [],
      "name": "CallerNotDestination",
      "type": "error"
    },
    {
      "inputs": [],
      "name": "IncorrectNonce",
      "type": "error"
    },
    {
      "inputs": [],
      "name": "IncorrectRecipient",
      "type": "error"
    },
    {
      "inputs": [],
      "name": "IncorrectSender",
      "type": "error"
    },
    {
      "inputs": [],
      "name": "ZeroProofMaturity",
      "type": "error"
    },
    {
      "anonymous": false,
      "inputs": [
        {
          "indexed": false,
          "internalType": "uint256",
          "name": "pingId",
          "type": "uint256"
        }
      ],
      "name": "PingReceived",
      "type": "event"
    },
    {
      "anonymous": false,
      "inputs": [
        {
          "indexed": false,
          "internalType": "uint256",
          "name": "pingId",
          "type": "uint256"
        }
      ],
      "name": "PingSent",
      "type": "event"
    },
    {
      "anonymous": false,
      "inputs": [
        {
          "indexed": false,
          "internalType": "uint256",
          "name": "pingId",
          "type": "uint256"
        }
      ],
      "name": "PongReceived",
      "type": "event"
    },
    {
      "anonymous": false,
      "inputs": [
        {
          "indexed": false,
          "internalType": "uint256",
          "name": "pingId",
          "type": "uint256"
        }
      ],
      "name": "PongSent",
      "type": "event"
    },
    {
      "inputs": [],
      "name": "destination",
      "outputs": [
        {
          "internalType": "address",
          "name": "",
          "type": "address"
        }
      ],
      "stateMutability": "view",
      "type": "function"
    },
    {
      "inputs": [
        {
          "internalType": "uint32",
          "name": "destination_",
          "type": "uint32"
        },
        {
          "internalType": "address",
          "name": "recipient",
          "type": "address"
        },
        {
          "internalType": "uint16",
          "name": "counter",
          "type": "uint16"
        }
      ],
      "name": "doPing",
      "outputs": [],
      "stateMutability": "nonpayable",
      "type": "function"
    },
    {
      "inputs": [
        {
          "internalType": "uint16",
          "name": "pingCount",
          "type": "uint16"
        },
        {
          "internalType": "uint32",
          "name": "destination_",
          "type": "uint32"
        },
        {
          "internalType": "address",
          "name": "recipient",
          "type": "address"
        },
        {
          "internalType": "uint16",
          "name": "counter",
          "type": "uint16"
        }
      ],
      "name": "doPings",
      "outputs": [],
      "stateMutability": "nonpayable",
      "type": "function"
    },
    {
      "inputs": [],
      "name": "nextOptimisticPeriod",
      "outputs": [
        {
          "internalType": "uint32",
          "name": "period",
          "type": "uint32"
        }
      ],
      "stateMutability": "view",
      "type": "function"
    },
    {
      "inputs": [],
      "name": "origin",
      "outputs": [
        {
          "internalType": "address",
          "name": "",
          "type": "address"
        }
      ],
      "stateMutability": "view",
      "type": "function"
    },
    {
      "inputs": [],
      "name": "pingsReceived",
      "outputs": [
        {
          "internalType": "uint256",
          "name": "",
          "type": "uint256"
        }
      ],
      "stateMutability": "view",
      "type": "function"
    },
    {
      "inputs": [],
      "name": "pingsSent",
      "outputs": [
        {
          "internalType": "uint256",
          "name": "",
          "type": "uint256"
        }
      ],
      "stateMutability": "view",
      "type": "function"
    },
    {
      "inputs": [],
      "name": "pongsReceived",
      "outputs": [
        {
          "internalType": "uint256",
          "name": "",
          "type": "uint256"
        }
      ],
      "stateMutability": "view",
      "type": "function"
    },
    {
      "inputs": [],
      "name": "random",
      "outputs": [
        {
          "internalType": "uint256",
          "name": "",
          "type": "uint256"
        }
      ],
      "stateMutability": "view",
      "type": "function"
    },
    {
      "inputs": [
        {
          "internalType": "uint32",
          "name": "origin_",
          "type": "uint32"
        },
        {
          "internalType": "uint32",
          "name": "nonce",
          "type": "uint32"
        },
        {
          "internalType": "bytes32",
          "name": "sender",
          "type": "bytes32"
        },
        {
          "internalType": "uint256",
          "name": "proofMaturity",
          "type": "uint256"
        },
        {
          "internalType": "uint32",
          "name": "version",
          "type": "uint32"
        },
        {
          "internalType": "bytes",
          "name": "content",
          "type": "bytes"
        }
      ],
      "name": "receiveBaseMessage",
      "outputs": [],
      "stateMutability": "payable",
      "type": "function"
    }
  ],
  "bytecode": {
    "object": "0x60c060405234801561001057600080fd5b50604051610b7f380380610b7f83398101604081905261002f91610087565b6001600160a01b039182166080521660a052604080514360208083019190915282518083038201815291830190925280519101206000556100ba565b80516001600160a01b038116811461008257600080fd5b919050565b6000806040838503121561009a57600080fd5b6100a38361006b565b91506100b16020840161006b565b90509250929050565b60805160a051610a926100ed600039600081816101b2015261020b01526000818161014601526105db0152610a926000f3fe6080604052600436106100915760003560e01c8063938b5f3211610059578063938b5f3214610134578063aa40203914610180578063b269681d146101a0578063b475cba3146101d4578063e3ac3ca0146101ea57600080fd5b8063032f287e1461009657806308fe5e4e146100ab5780632bd56025146100cb57806345a8b8ed146100fa5780635ec01e4d1461011e575b600080fd5b6100a96100a436600461070d565b610200565b005b3480156100b757600080fd5b506100a96100c6366004610834565b6102c9565b3480156100d757600080fd5b506100e06102e2565b60405163ffffffff90911681526020015b60405180910390f35b34801561010657600080fd5b5061011060035481565b6040519081526020016100f1565b34801561012a57600080fd5b5061011060005481565b34801561014057600080fd5b506101687f000000000000000000000000000000000000000000000000000000000000000081565b6040516001600160a01b0390911681526020016100f1565b34801561018c57600080fd5b506100a961019b36600461087d565b6102f8565b3480156101ac57600080fd5b506101687f000000000000000000000000000000000000000000000000000000000000000081565b3480156101e057600080fd5b5061011060015481565b3480156101f657600080fd5b5061011060025481565b336001600160a01b037f0000000000000000000000000000000000000000000000000000000000000000161461024957604051636efcc49f60e01b815260040160405180910390fd5b8463ffffffff1660000361027057604051630ce9b1b160e31b815260040160405180910390fd5b600084900361029257604051637d1c29f360e01b815260040160405180910390fd5b826000036102b357604051636e71456760e11b815260040160405180910390fd5b6102c1868686868686610332565b505050505050565b6102dd836001600160a01b03841683610426565b505050565b6000603c6000546102f391906108d7565b905090565b60005b8461ffff1681101561032b5761031b846001600160a01b03851684610426565b6103248161090f565b90506102fb565b5050505050565b6000818060200190518101906103489190610928565b90508060200151156103ac576002600081546103639061090f565b9091555080516040519081527f51c4f05cea43f3d4604f77fd5a656743088090aa726deb5e3a9f670d8da75d659060200160405180910390a16103a78786836104a2565b61041d565b6003600081546103bb9061090f565b9091555080516040519081527f08d46b5262cb13a84b9421fef5cfd01017e1cb48c879e3fc89acaadf34f2106e9060200160405180910390a1604081015161ffff161561041d5761041d8786600184604001516104189190610996565b610426565b50505050505050565b60018054600091826104378361090f565b919050559050610469848460405180606001604052808581526020016001151581526020018661ffff16815250610510565b6040518181527f14089a5f67ef0667796ead5223612a15d24422be4bdaa19abc32fb26d4c8b3db9060200160405180910390a150505050565b6104d68383604051806060016040528085600001518152602001600015158152602001856040015161ffff16815250610510565b80516040519081527f0a72872b9cfe43d6c13b13553f28d4879e427f3b456545649fd0761fdcbe03119060200160405180910390a1505050565b604080516060808201835260008083526207a120602080850191909152838501919091528351855181830152908501511515818501528484015161ffff1681830152835180820390920182526080019092529061041d8585610570610577565b85856105b6565b60006105816102e2565b905060005460405160200161059891815260200190565b60408051601f19818403018152919052805160209091012060005590565b6000808581036105d95760405163519bdea760e01b815260040160405180910390fd5b7f00000000000000000000000000000000000000000000000000000000000000006001600160a01b031663873661bd348989896106158a610686565b896040518763ffffffff1660e01b81526004016106369594939291906109b8565b604080518083038185885af1158015610653573d6000803e3d6000fd5b50505050506040513d601f19601f820116820180604052508101906106789190610a2e565b915091509550959350505050565b60006106d38260000151836020015184604001516bffffffffffffffffffffffff60601b606084901b166bffffffffffffffff00000000602084901b161763ffffffff8216179392505050565b6001600160c01b031692915050565b63ffffffff811681146106f457600080fd5b50565b634e487b7160e01b600052604160045260246000fd5b60008060008060008060c0878903121561072657600080fd5b8635610731816106e2565b95506020870135610741816106e2565b94506040870135935060608701359250608087013561075f816106e2565b915060a087013567ffffffffffffffff8082111561077c57600080fd5b818901915089601f83011261079057600080fd5b8135818111156107a2576107a26106f7565b604051601f8201601f19908116603f011681019083821181831017156107ca576107ca6106f7565b816040528281528c60208487010111156107e357600080fd5b8260208601602083013760006020848301015280955050505050509295509295509295565b80356001600160a01b038116811461081f57600080fd5b919050565b61ffff811681146106f457600080fd5b60008060006060848603121561084957600080fd5b8335610854816106e2565b925061086260208501610808565b9150604084013561087281610824565b809150509250925092565b6000806000806080858703121561089357600080fd5b843561089e81610824565b935060208501356108ae816106e2565b92506108bc60408601610808565b915060608501356108cc81610824565b939692955090935050565b6000826108f457634e487b7160e01b600052601260045260246000fd5b500690565b634e487b7160e01b600052601160045260246000fd5b600060018201610921576109216108f9565b5060010190565b60006060828403121561093a57600080fd5b6040516060810181811067ffffffffffffffff8211171561095d5761095d6106f7565b604052825181526020830151801515811461097757600080fd5b6020820152604083015161098a81610824565b60408201529392505050565b61ffff8281168282160390808211156109b1576109b16108f9565b5092915050565b600063ffffffff808816835260208781850152818716604085015285606085015260a06080850152845191508160a085015260005b82811015610a095785810182015185820160c0015281016109ed565b5050600060c0828501015260c0601f19601f8301168401019150509695505050505050565b60008060408385031215610a4157600080fd5b8251610a4c816106e2565b602093909301519294929350505056fea264697066735822122021edbe10fb84efdf5c66a2ddbce300ade6d6410c6e14de5e962c0610cdd60efd64736f6c63430008110033",
    "linkReferences": {}
  },
  "methodIdentifiers": {
    "destination()": "b269681d",
    "doPing(uint32,address,uint16)": "08fe5e4e",
    "doPings(uint16,uint32,address,uint16)": "aa402039",
    "nextOptimisticPeriod()": "2bd56025",
    "origin()": "938b5f32",
    "pingsReceived()": "e3ac3ca0",
    "pingsSent()": "b475cba3",
    "pongsReceived()": "45a8b8ed",
    "random()": "5ec01e4d",
    "receiveBaseMessage(uint32,uint32,bytes32,uint256,uint32,bytes)": "032f287e"
  },
  "id": 10
}