{
  "abi": [
    {
      "inputs": [
        {
          "internalType": "uint32",
          "name": "domain",
          "type": "uint32"
        }
      ],
      "stateMutability": "nonpayable",
      "type": "constructor"
    },
    {
      "inputs": [],
      "name": "AgentNotActiveNorUnstaking",
      "type": "error"
    },
    {
      "inputs": [],
      "name": "CallerNotDestination",
      "type": "error"
    },
    {
      "inputs": [],
      "name": "CallerNotInbox",
      "type": "error"
    },
    {
      "inputs": [],
      "name": "DisputeAlreadyResolved",
      "type": "error"
    },
    {
      "inputs": [],
      "name": "DisputeNotOpened",
      "type": "error"
    },
    {
      "inputs": [],
      "name": "DisputeNotStuck",
      "type": "error"
    },
    {
      "inputs": [],
      "name": "GuardInDispute",
      "type": "error"
    },
    {
      "inputs": [],
      "name": "IncorrectAgentDomain",
      "type": "error"
    },
    {
      "inputs": [],
      "name": "IncorrectAgentIndex",
      "type": "error"
    },
    {
      "inputs": [],
      "name": "IncorrectAgentProof",
      "type": "error"
    },
    {
      "inputs": [],
      "name": "IncorrectVersionLength",
      "type": "error"
    },
    {
      "inputs": [],
      "name": "IndexOutOfRange",
      "type": "error"
    },
    {
      "inputs": [],
      "name": "MustBeSynapseDomain",
      "type": "error"
    },
    {
      "inputs": [],
      "name": "NotaryInDispute",
      "type": "error"
    },
    {
      "inputs": [],
      "name": "SynapseDomainForbidden",
      "type": "error"
    },
    {
      "inputs": [],
      "name": "TreeHeightTooLow",
      "type": "error"
    },
    {
      "inputs": [],
      "name": "WithdrawTipsOptimisticPeriod",
      "type": "error"
    },
    {
      "anonymous": false,
      "inputs": [
        {
          "indexed": false,
          "internalType": "uint256",
          "name": "disputeIndex",
          "type": "uint256"
        },
        {
          "indexed": false,
          "internalType": "uint32",
          "name": "guardIndex",
          "type": "uint32"
        },
        {
          "indexed": false,
          "internalType": "uint32",
          "name": "notaryIndex",
          "type": "uint32"
        }
      ],
      "name": "DisputeOpened",
      "type": "event"
    },
    {
      "anonymous": false,
      "inputs": [
        {
          "indexed": false,
          "internalType": "uint256",
          "name": "disputeIndex",
          "type": "uint256"
        },
        {
          "indexed": false,
          "internalType": "uint32",
          "name": "slashedIndex",
          "type": "uint32"
        },
        {
          "indexed": false,
          "internalType": "uint32",
          "name": "rivalIndex",
          "type": "uint32"
        },
        {
          "indexed": false,
          "internalType": "address",
          "name": "fraudProver",
          "type": "address"
        }
      ],
      "name": "DisputeResolved",
      "type": "event"
    },
    {
      "anonymous": false,
      "inputs": [
        {
          "indexed": false,
          "internalType": "uint8",
          "name": "version",
          "type": "uint8"
        }
      ],
      "name": "Initialized",
      "type": "event"
    },
    {
      "anonymous": false,
      "inputs": [
        {
          "indexed": true,
          "internalType": "address",
          "name": "previousOwner",
          "type": "address"
        },
        {
          "indexed": true,
          "internalType": "address",
          "name": "newOwner",
          "type": "address"
        }
      ],
      "name": "OwnershipTransferred",
      "type": "event"
    },
    {
      "anonymous": false,
      "inputs": [
        {
          "indexed": false,
          "internalType": "bytes32",
          "name": "newRoot",
          "type": "bytes32"
        }
      ],
      "name": "RootUpdated",
      "type": "event"
    },
    {
      "anonymous": false,
      "inputs": [
        {
          "indexed": false,
          "internalType": "enum AgentFlag",
          "name": "flag",
          "type": "uint8"
        },
        {
          "indexed": true,
          "internalType": "uint32",
          "name": "domain",
          "type": "uint32"
        },
        {
          "indexed": true,
          "internalType": "address",
          "name": "agent",
          "type": "address"
        }
      ],
      "name": "StatusUpdated",
      "type": "event"
    },
    {
      "inputs": [],
      "name": "agentRoot",
      "outputs": [
        {
          "internalType": "bytes32",
          "name": "",
          "type": "bytes32"
        }
      ],
      "stateMutability": "view",
      "type": "function"
    },
    {
      "inputs": [
        {
          "internalType": "address",
          "name": "agent",
          "type": "address"
        }
      ],
      "name": "agentStatus",
      "outputs": [
        {
          "components": [
            {
              "internalType": "enum AgentFlag",
              "name": "flag",
              "type": "uint8"
            },
            {
              "internalType": "uint32",
              "name": "domain",
              "type": "uint32"
            },
            {
              "internalType": "uint32",
              "name": "index",
              "type": "uint32"
            }
          ],
          "internalType": "struct AgentStatus",
          "name": "status",
          "type": "tuple"
        }
      ],
      "stateMutability": "view",
      "type": "function"
    },
    {
      "inputs": [],
      "name": "destination",
      "outputs": [
        {
          "internalType": "address",
          "name": "",
          "type": "address"
        }
      ],
      "stateMutability": "view",
      "type": "function"
    },
    {
      "inputs": [
        {
          "internalType": "address",
          "name": "agent",
          "type": "address"
        }
      ],
      "name": "disputeStatus",
      "outputs": [
        {
          "internalType": "enum DisputeFlag",
          "name": "flag",
          "type": "uint8"
        },
        {
          "internalType": "address",
          "name": "rival",
          "type": "address"
        },
        {
          "internalType": "address",
          "name": "fraudProver",
          "type": "address"
        },
        {
          "internalType": "uint256",
          "name": "disputePtr",
          "type": "uint256"
        }
      ],
      "stateMutability": "view",
      "type": "function"
    },
    {
      "inputs": [
        {
          "internalType": "uint256",
          "name": "index",
          "type": "uint256"
        }
      ],
      "name": "getAgent",
      "outputs": [
        {
          "internalType": "address",
          "name": "agent",
          "type": "address"
        },
        {
          "components": [
            {
              "internalType": "enum AgentFlag",
              "name": "flag",
              "type": "uint8"
            },
            {
              "internalType": "uint32",
              "name": "domain",
              "type": "uint32"
            },
            {
              "internalType": "uint32",
              "name": "index",
              "type": "uint32"
            }
          ],
          "internalType": "struct AgentStatus",
          "name": "status",
          "type": "tuple"
        }
      ],
      "stateMutability": "view",
      "type": "function"
    },
    {
      "inputs": [
        {
          "internalType": "uint256",
          "name": "index",
          "type": "uint256"
        }
      ],
      "name": "getDispute",
      "outputs": [
        {
          "internalType": "address",
          "name": "guard",
          "type": "address"
        },
        {
          "internalType": "address",
          "name": "notary",
          "type": "address"
        },
        {
          "internalType": "address",
          "name": "slashedAgent",
          "type": "address"
        },
        {
          "internalType": "address",
          "name": "fraudProver",
          "type": "address"
        },
        {
          "internalType": "bytes",
          "name": "reportPayload",
          "type": "bytes"
        },
        {
          "internalType": "bytes",
          "name": "reportSignature",
          "type": "bytes"
        }
      ],
      "stateMutability": "view",
      "type": "function"
    },
    {
      "inputs": [],
      "name": "getDisputesAmount",
      "outputs": [
        {
          "internalType": "uint256",
          "name": "",
          "type": "uint256"
        }
      ],
      "stateMutability": "view",
      "type": "function"
    },
    {
      "inputs": [],
      "name": "inbox",
      "outputs": [
        {
          "internalType": "address",
          "name": "",
          "type": "address"
        }
      ],
      "stateMutability": "view",
      "type": "function"
    },
    {
      "inputs": [
        {
          "internalType": "address",
          "name": "origin_",
          "type": "address"
        },
        {
          "internalType": "address",
          "name": "destination_",
          "type": "address"
        },
        {
          "internalType": "address",
          "name": "inbox_",
          "type": "address"
        }
      ],
      "name": "initialize",
      "outputs": [],
      "stateMutability": "nonpayable",
      "type": "function"
    },
    {
      "inputs": [],
      "name": "localDomain",
      "outputs": [
        {
          "internalType": "uint32",
          "name": "",
          "type": "uint32"
        }
      ],
      "stateMutability": "view",
      "type": "function"
    },
    {
      "inputs": [
        {
          "components": [
            {
              "internalType": "bool",
              "name": "allowFailure",
              "type": "bool"
            },
            {
              "internalType": "bytes",
              "name": "callData",
              "type": "bytes"
            }
          ],
          "internalType": "struct MultiCallable.Call[]",
          "name": "calls",
          "type": "tuple[]"
        }
      ],
      "name": "multicall",
      "outputs": [
        {
          "components": [
            {
              "internalType": "bool",
              "name": "success",
              "type": "bool"
            },
            {
              "internalType": "bytes",
              "name": "returnData",
              "type": "bytes"
            }
          ],
          "internalType": "struct MultiCallable.Result[]",
          "name": "callResults",
          "type": "tuple[]"
        }
      ],
      "stateMutability": "nonpayable",
      "type": "function"
    },
    {
      "inputs": [
        {
          "internalType": "uint32",
          "name": "guardIndex",
          "type": "uint32"
        },
        {
          "internalType": "uint32",
          "name": "notaryIndex",
          "type": "uint32"
        }
      ],
      "name": "openDispute",
      "outputs": [],
      "stateMutability": "nonpayable",
      "type": "function"
    },
    {
      "inputs": [],
      "name": "origin",
      "outputs": [
        {
          "internalType": "address",
          "name": "",
          "type": "address"
        }
      ],
      "stateMutability": "view",
      "type": "function"
    },
    {
      "inputs": [],
      "name": "owner",
      "outputs": [
        {
          "internalType": "address",
          "name": "",
          "type": "address"
        }
      ],
      "stateMutability": "view",
      "type": "function"
    },
    {
      "inputs": [
        {
          "internalType": "uint32",
          "name": "msgOrigin",
          "type": "uint32"
        },
        {
          "internalType": "uint256",
          "name": "proofMaturity",
          "type": "uint256"
        },
        {
          "internalType": "address",
          "name": "recipient",
          "type": "address"
        },
        {
          "internalType": "uint256",
          "name": "amount",
          "type": "uint256"
        }
      ],
      "name": "remoteWithdrawTips",
      "outputs": [
        {
          "internalType": "bytes4",
          "name": "magicValue",
          "type": "bytes4"
        }
      ],
      "stateMutability": "nonpayable",
      "type": "function"
    },
    {
      "inputs": [],
      "name": "renounceOwnership",
      "outputs": [],
      "stateMutability": "nonpayable",
      "type": "function"
    },
    {
      "inputs": [
        {
          "internalType": "uint32",
          "name": "domain",
          "type": "uint32"
        },
        {
          "internalType": "address",
          "name": "slashedAgent",
          "type": "address"
        }
      ],
      "name": "resolveStuckDispute",
      "outputs": [],
      "stateMutability": "nonpayable",
      "type": "function"
    },
    {
      "inputs": [
        {
          "internalType": "bytes32",
          "name": "agentRoot_",
          "type": "bytes32"
        }
      ],
      "name": "setAgentRoot",
      "outputs": [],
      "stateMutability": "nonpayable",
      "type": "function"
    },
    {
      "inputs": [
        {
          "internalType": "uint32",
          "name": "domain",
          "type": "uint32"
        },
        {
          "internalType": "address",
          "name": "agent",
          "type": "address"
        },
        {
          "internalType": "address",
          "name": "prover",
          "type": "address"
        }
      ],
      "name": "slashAgent",
      "outputs": [],
      "stateMutability": "nonpayable",
      "type": "function"
    },
    {
      "inputs": [
        {
          "internalType": "address",
          "name": "newOwner",
          "type": "address"
        }
      ],
      "name": "transferOwnership",
      "outputs": [],
      "stateMutability": "nonpayable",
      "type": "function"
    },
    {
      "inputs": [
        {
          "internalType": "address",
          "name": "agent",
          "type": "address"
        },
        {
          "components": [
            {
              "internalType": "enum AgentFlag",
              "name": "flag",
              "type": "uint8"
            },
            {
              "internalType": "uint32",
              "name": "domain",
              "type": "uint32"
            },
            {
              "internalType": "uint32",
              "name": "index",
              "type": "uint32"
            }
          ],
          "internalType": "struct AgentStatus",
          "name": "status",
          "type": "tuple"
        },
        {
          "internalType": "bytes32[]",
          "name": "proof",
          "type": "bytes32[]"
        }
      ],
      "name": "updateAgentStatus",
      "outputs": [],
      "stateMutability": "nonpayable",
      "type": "function"
    },
    {
      "inputs": [],
      "name": "version",
      "outputs": [
        {
          "internalType": "string",
          "name": "versionString",
          "type": "string"
        }
      ],
      "stateMutability": "view",
      "type": "function"
    }
  ],
  "bytecode": {
    "object": "0x60e06040523480156200001157600080fd5b50604051620025ce380380620025ce83398101604081905262000034916200009e565b60408051808201909152600580825264302e302e3360d81b602083015260805281816200006181620000cd565b60a0525063ffffffff90811660c052821661038419019050620000975760405163079597d560e51b815260040160405180910390fd5b50620000f5565b600060208284031215620000b157600080fd5b815163ffffffff81168114620000c657600080fd5b9392505050565b80516020808301519190811015620000ef576000198160200360031b1b821691505b50919050565b60805160a05160c0516124a96200012560003960006102c10152600061023e0152600061021b01526124a96000f3fe608060405234801561001057600080fd5b50600436106101425760003560e01c806389791e17116100b8578063b269681d1161007c578063b269681d14610343578063c0c53b8b14610356578063cbd0596514610369578063e3a96cbd1461037c578063f2fde38b146103a1578063fb0e722b146103b457600080fd5b806389791e17146102a95780638d3638f4146102bc5780638da5cb5b146102f8578063938b5f321461031d578063a2155c341461033057600080fd5b806336cba43c1161010a57806336cba43c146101f15780633aaeccc61461020857806354fd4d5014610210578063586681761461026e57806360fc846614610281578063715018a6146102a157600080fd5b80631fa07138146101475780632853a0e61461017857806328f3fac91461018d5780632de5aaf7146101ad5780633463d1b1146101ce575b600080fd5b61015a610155366004611b8b565b6103c7565b6040516001600160e01b031990911681526020015b60405180910390f35b61018b610186366004611bd1565b6104ba565b005b6101a061019b366004611c16565b6104f5565b60405161016f9190611c87565b6101c06101bb366004611c95565b610596565b60405161016f929190611cae565b6101e16101dc366004611c16565b6105e3565b60405161016f9493929190611ccb565b6101fa60c95481565b60405190815260200161016f565b609b546101fa565b6040805180820182527f000000000000000000000000000000000000000000000000000000000000000081527f00000000000000000000000000000000000000000000000000000000000000006020820152905161016f9190611d52565b61018b61027c366004611c95565b61074b565b61029461028f366004611d65565b610782565b60405161016f9190611dda565b61018b6108d4565b61018b6102b7366004611e50565b610909565b6102e37f000000000000000000000000000000000000000000000000000000000000000081565b60405163ffffffff909116815260200161016f565b6033546001600160a01b03165b6040516001600160a01b03909116815260200161016f565b609754610305906001600160a01b031681565b61018b61033e366004611e85565b610aea565b609854610305906001600160a01b031681565b61018b610364366004611ebe565b610ddf565b61018b610377366004611fcc565b610e61565b61038f61038a366004611c95565b611079565b60405161016f96959493929190612074565b61018b6103af366004611c16565b611207565b609954610305906001600160a01b031681565b6098546000906001600160a01b031633146103f557604051636efcc49f60e01b815260040160405180910390fd5b63ffffffff85166103851461041d57604051632b3a807f60e01b815260040160405180910390fd5b620151808410156104415760405163df5728f360e01b815260040160405180910390fd5b609754604051634e04e7a760e01b81526001600160a01b0385811660048301526024820185905290911690634e04e7a790604401600060405180830381600087803b15801561048f57600080fd5b505af11580156104a3573d6000803e3d6000fd5b506303f40e2760e31b93505050505b949350505050565b6099546001600160a01b031633146104e55760405163dbc2fa8560e01b815260040160405180910390fd5b6104f083838361129f565b505050565b604080516060810182526000808252602082018190529181019190915261051b82611347565b90506002609a6000610542856001600160a01b0316600090815260cc602052604090205490565b815260208101919091526040016000205460ff16600281111561056757610567611c31565b148015610587575060058151600581111561058457610584611c31565b14155b1561059157600481525b919050565b60408051606081018252600080825260208201819052918101829052600083815260cb60205260409020546001600160a01b0316915081156105de576105db826104f5565b90505b915091565b600080600080600061060a866001600160a01b0316600090815260cc602052604090205490565b6000818152609a602052604080822081516060810190925280549394509192909190829060ff16600281111561064257610642611c31565b600281111561065357610653611c31565b8152905461010081046001600160581b03908116602080850191909152600160601b9092046001600160a01b03166040938401528351928401519184015192995090965016935090508215610742576000609b6106b16001866120e5565b815481106106c1576106c16120f8565b600091825260209182902060408051606081018252929091015463ffffffff8082168085526401000000008304821695850195909552600160401b9091041690820152915061073e90841461071757815161071d565b81602001515b63ffffffff16600090815260cb60205260409020546001600160a01b031690565b9550505b50509193509193565b6098546001600160a01b0316331461077657604051636efcc49f60e01b815260040160405180910390fd5b61077f816113e3565b50565b6060818067ffffffffffffffff81111561079e5761079e611edc565b6040519080825280602002602001820160405280156107e457816020015b6040805180820190915260008152606060208201528152602001906001900390816107bc5790505b5091503660005b828110156108cb57858582818110610805576108056120f8565b9050602002810190610817919061210e565b9150600084828151811061082d5761082d6120f8565b60200260200101519050306001600160a01b0316838060200190610851919061212e565b60405161085f92919061217c565b600060405180830381855af49150503d806000811461089a576040519150601f19603f3d011682016040523d82523d6000602084013e61089f565b606091505b50602083015215158082528335176108c2576309ad446560e31b60005260046000fd5b506001016107eb565b50505092915050565b6033546001600160a01b031633146109075760405162461bcd60e51b81526004016108fe9061218c565b60405180910390fd5b565b6033546001600160a01b031633146109335760405162461bcd60e51b81526004016108fe9061218c565b6000609a6000610958846001600160a01b0316600090815260cc602052604090205490565b8152602081019190915260409081016000208151606081019092528054829060ff16600281111561098b5761098b611c31565b600281111561099c5761099c611c31565b8152905461010081046001600160581b03166020830152600160601b90046001600160a01b031660409091015290506000815160028111156109e0576109e0611c31565b036109fe576040516359d38fd160e11b815260040160405180910390fd5b600281516002811115610a1357610a13611c31565b03610a315760405163f10068b560e01b815260040160405180910390fd5b6098546040805163204c48a960e11b815290516000926001600160a01b03169163409891529160048083019260609291908290030181865afa158015610a7b573d6000803e3d6000fd5b505050506040513d601f19601f82011682018060405250810190610a9f91906121d6565b505090508064ffffffffff16613840610ab8919061221d565b421015610ad8576040516301bf715b60e61b815260040160405180910390fd5b610ae48484600061129f565b50505050565b6099546001600160a01b03163314610b155760405163dbc2fa8560e01b815260040160405180910390fd5b63ffffffff82166000908152609a602052604081205460ff166002811115610b3f57610b3f611c31565b14610b5d5760405163367526d360e21b815260040160405180910390fd5b63ffffffff81166000908152609a602052604081205460ff166002811115610b8757610b87611c31565b14610ba557604051636893014360e01b815260040160405180910390fd5b604080516060808201835263ffffffff8086168352848116602084019081526000848601818152609b8054600181810183559382905296517fbba9db4cdbea0a37c207bbb83e20f828cd4441c49891101dc94fd20dc8efc3499097018054945192518616600160401b0263ffffffff60401b199387166401000000000267ffffffffffffffff1990961698909616979097179390931716929092179093559154835191820190935290819081526001600160581b0383166020808301919091526000604092830181905263ffffffff87168152609a9091522081518154829060ff19166001836002811115610c9c57610c9c611c31565b0217905550602082015181546040938401516001600160a01b0316600160601b026001600160601b036001600160581b03909316610100029290921660ff9091161717905580516060810190915280600181526001600160581b0383166020808301919091526000604092830181905263ffffffff86168152609a9091522081518154829060ff19166001836002811115610d3957610d39611c31565b0217905550602082015181546040909301516001600160a01b0316600160601b026001600160601b036001600160581b03909216610100029190911660ff909316929092179190911790557fd0672fae056abe2bf0637742527d49add67fdb68192a6c6f6bf86eac19fe0530610db06001836120e5565b6040805191825263ffffffff808716602084015285169082015260600160405180910390a16104f08383611427565b6000610deb600161148f565b90508015610e03576000805461ff0019166101001790555b610e0e848484611517565b610e1661157d565b8015610ae4576000805461ff0019169055604051600181527f7f26b83ff96e1f2b6a682f133852f6798a09c465da95921460cefb38474024989060200160405180910390a150505050565b60408083015163ffffffff16600090815260cb60205220546001600160a01b03168015801590610ea35750836001600160a01b0316816001600160a01b031614155b15610ec1576040516312b88bb960e21b815260040160405180910390fd5b6000610ed684600001518560200151876115ac565b9050600060c954905080610ef7866040015163ffffffff16848760206115e3565b14610f1557604051634cc472e760e01b815260040160405180910390fd5b6001600160a01b038316610f6f576040858101805163ffffffff908116600090815260cb602090815284822080546001600160a01b0319166001600160a01b038d16908117909155935193825260cc905292909220911690555b600081815260ca602090815260408083206001600160a01b038a16845290915290208551815487929190829060ff19166001836005811115610fb357610fb3611c31565b0217905550602082810151825460409485015168ffffffffffffffff001990911661010063ffffffff9384160268ffffffff0000000000191617650100000000009183169190910217909255870151875192516001600160a01b038a169391909216917f8f9b8b0f4f062833bec85ea9a8465e4a1207b4be6eb565bbd0ae8b913588d04e9161104191612230565b60405180910390a360058551600581111561105e5761105e611c31565b0361107157611071856040015133611672565b505050505050565b600080600080606080609b8054905087106110a757604051631390f2a160e01b815260040160405180910390fd5b6000609b88815481106110bc576110bc6120f8565b6000918252602080832060408051606081018252939091015463ffffffff80821680865264010000000083048216868601908152600160401b909304821686850152865260cb9093528185205490519092168452909220546001600160a01b03928316995090925016604082015190965063ffffffff16156111875760408082015163ffffffff16600090815260cb60205220546001600160a01b031660408281015163ffffffff166000908152609a6020522054909550600160601b90046001600160a01b031693505b60995460405163c495912b60e01b8152600481018a90526001600160a01b039091169063c495912b90602401600060405180830381865afa1580156111d0573d6000803e3d6000fd5b505050506040513d6000823e601f3d908101601f191682016040526111f891908101906122a2565b97999698509496939592505050565b6033546001600160a01b031633146112315760405162461bcd60e51b81526004016108fe9061218c565b6001600160a01b0381166112965760405162461bcd60e51b815260206004820152602660248201527f4f776e61626c653a206e6577206f776e657220697320746865207a65726f206160448201526564647265737360d01b60648201526084016108fe565b61077f81611907565b60006112aa83611347565b90506112b581611959565b8363ffffffff16816020015163ffffffff16146112e557604051630b09697760e11b815260040160405180910390fd5b826001600160a01b03168463ffffffff167f8f9b8b0f4f062833bec85ea9a8465e4a1207b4be6eb565bbd0ae8b913588d04e60046040516113269190612230565b60405180910390a361133c816040015183611672565b610ae48484846119ad565b60408051606080820183526000808352602080840182905283850182905260c954825260ca81528482206001600160a01b038716835290528390208351918201909352825491929091829060ff1660058111156113a6576113a6611c31565b60058111156113b7576113b7611c31565b8152905463ffffffff610100820481166020840152650100000000009091041660409091015292915050565b8060c9541461077f5760c98190556040518181527f2cbc14f49c068133583f7cb530018af451c87c1cf1327cf2a4ff4698c4730aa49060200160405180910390a150565b609854604051632885570d60e21b815263ffffffff8085166004830152831660248201526001600160a01b039091169063a2155c34906044015b600060405180830381600087803b15801561147b57600080fd5b505af1158015611071573d6000803e3d6000fd5b60008054610100900460ff16156114d6578160ff1660011480156114b25750303b155b6114ce5760405162461bcd60e51b81526004016108fe90612306565b506000919050565b60005460ff8084169116106114fd5760405162461bcd60e51b81526004016108fe90612306565b506000805460ff191660ff92909216919091179055600190565b600054610100900460ff1661153e5760405162461bcd60e51b81526004016108fe90612354565b609780546001600160a01b039485166001600160a01b031991821617909155609880549385169382169390931790925560998054919093169116179055565b600054610100900460ff166115a45760405162461bcd60e51b81526004016108fe90612354565b610907611a7d565b60008383836040516020016115c39392919061239f565b6040516020818303038152906040528051906020012090505b9392505050565b8151600090828111156116095760405163c5360feb60e01b815260040160405180910390fd5b84915060005b818110156116465761163c8386838151811061162d5761162d6120f8565b60200260200101518984611aad565b925060010161160f565b50805b838110156116685761165e8360008984611aad565b9250600101611649565b5050949350505050565b63ffffffff82166000908152609a60205260408082208151606081019092528054829060ff1660028111156116a9576116a9611c31565b60028111156116ba576116ba611c31565b8152905461010081046001600160581b03166020830152600160601b90046001600160a01b031660409091015290506002815160028111156116fe576116fe611c31565b0361171c5760405163f10068b560e01b815260040160405180910390fd5b60028082526001600160a01b03831660408084019190915263ffffffff85166000908152609a60205220825181548493839160ff191690600190849081111561176757611767611c31565b021790555060208281015182546040909401516001600160a01b0316600160601b026001600160601b036001600160581b03928316610100021660ff909516949094179390931790915582015160009116156118fd576000600183602001516117d091906123ec565b6001600160581b031690506000609b82815481106117f0576117f06120f8565b600091825260209182902060408051606081018252919092015463ffffffff80821683526401000000008204811694830194909452600160401b900490921690820152609b805491925087918490811061184c5761184c6120f8565b600091825260209182902001805463ffffffff60401b1916600160401b63ffffffff9485160217905582015187821691161461188c57806020015161188f565b80515b63ffffffff8181166000818152609a60209081526040808320929092558151878152938b16908401528201526001600160a01b03871660608201529093507fb4cad5624e1d1c6c622ec70516ee582fe3f6519440c5b47e5165141edc9c54cf9060800160405180910390a150505b610ae48482611ad6565b603380546001600160a01b038381166001600160a01b0319831681179093556040519116919082907f8be0079c531659141344cd1fd0a4f28419497f9722a3daafe3b4186f6b6457e090600090a35050565b60018151600581111561196e5761196e611c31565b1415801561198f575060028151600581111561198c5761198c611c31565b14155b1561077f5760405163ec3d0d8560e01b815260040160405180910390fd5b6097546040805163ffffffff861660248201526001600160a01b03858116604483015284811660648084019190915283518084039091018152608490920183526020820180516001600160e01b0316639d228a5160e01b179052915163a1c702a760e01b8152919092169163a1c702a791611a349161038591620151809190600401612413565b60408051808303816000875af1158015611a52573d6000803e3d6000fd5b505050506040513d601f19601f82011682018060405250810190611a769190612445565b5050505050565b600054610100900460ff16611aa45760405162461bcd60e51b81526004016108fe90612354565b61090733611907565b6000600183831c168103611acc57611ac58585611b14565b90506104b2565b611ac58486611b14565b609854604051630c22d24360e31b815263ffffffff8085166004830152831660248201526001600160a01b0390911690636116921890604401611461565b600082158015611b22575081155b15611b2f57506000611b5c565b60408051602081018590529081018390526060016040516020818303038152906040528051906020012090505b92915050565b63ffffffff8116811461077f57600080fd5b80356001600160a01b038116811461059157600080fd5b60008060008060808587031215611ba157600080fd5b8435611bac81611b62565b935060208501359250611bc160408601611b74565b9396929550929360600135925050565b600080600060608486031215611be657600080fd5b8335611bf181611b62565b9250611bff60208501611b74565b9150611c0d60408501611b74565b90509250925092565b600060208284031215611c2857600080fd5b6115dc82611b74565b634e487b7160e01b600052602160045260246000fd5b60068110611c5757611c57611c31565b9052565b611c66828251611c47565b60208181015163ffffffff9081169184019190915260409182015116910152565b60608101611b5c8284611c5b565b600060208284031215611ca757600080fd5b5035919050565b6001600160a01b0383168152608081016115dc6020830184611c5b565b6080810160038610611cdf57611cdf611c31565b9481526001600160a01b0393841660208201529190921660408201526060015290565b60005b83811015611d1d578181015183820152602001611d05565b50506000910152565b60008151808452611d3e816020860160208601611d02565b601f01601f19169290920160200192915050565b6020815260006115dc6020830184611d26565b60008060208385031215611d7857600080fd5b823567ffffffffffffffff80821115611d9057600080fd5b818501915085601f830112611da457600080fd5b813581811115611db357600080fd5b8660208260051b8501011115611dc857600080fd5b60209290920196919550909350505050565b60006020808301818452808551808352604092508286019150828160051b87010184880160005b83811015611e4257888303603f190185528151805115158452870151878401879052611e2f87850182611d26565b9588019593505090860190600101611e01565b509098975050505050505050565b60008060408385031215611e6357600080fd5b8235611e6e81611b62565b9150611e7c60208401611b74565b90509250929050565b60008060408385031215611e9857600080fd5b8235611ea381611b62565b91506020830135611eb381611b62565b809150509250929050565b600080600060608486031215611ed357600080fd5b611bf184611b74565b634e487b7160e01b600052604160045260246000fd5b6040516060810167ffffffffffffffff81118282101715611f1557611f15611edc565b60405290565b604051601f8201601f1916810167ffffffffffffffff81118282101715611f4457611f44611edc565b604052919050565b600082601f830112611f5d57600080fd5b8135602067ffffffffffffffff821115611f7957611f79611edc565b8160051b611f88828201611f1b565b9283528481018201928281019087851115611fa257600080fd5b83870192505b84831015611fc157823582529183019190830190611fa8565b979650505050505050565b600080600083850360a0811215611fe257600080fd5b611feb85611b74565b93506060601f1982011215611fff57600080fd5b50612008611ef2565b60208501356006811061201a57600080fd5b8152604085013561202a81611b62565b6020820152606085013561203d81611b62565b60408201529150608084013567ffffffffffffffff81111561205e57600080fd5b61206a86828701611f4c565b9150509250925092565b6001600160a01b038781168252868116602083015285811660408301528416606082015260c0608082018190526000906120b090830185611d26565b82810360a08401526120c28185611d26565b9998505050505050505050565b634e487b7160e01b600052601160045260246000fd5b81810381811115611b5c57611b5c6120cf565b634e487b7160e01b600052603260045260246000fd5b60008235603e1983360301811261212457600080fd5b9190910192915050565b6000808335601e1984360301811261214557600080fd5b83018035915067ffffffffffffffff82111561216057600080fd5b60200191503681900382131561217557600080fd5b9250929050565b8183823760009101908152919050565b6020808252818101527f4f776e61626c653a2063616c6c6572206973206e6f7420746865206f776e6572604082015260600190565b805164ffffffffff8116811461059157600080fd5b6000806000606084860312156121eb57600080fd5b6121f4846121c1565b9250612202602085016121c1565b9150604084015161221281611b62565b809150509250925092565b80820180821115611b5c57611b5c6120cf565b60208101611b5c8284611c47565b600082601f83011261224f57600080fd5b815167ffffffffffffffff81111561226957612269611edc565b61227c601f8201601f1916602001611f1b565b81815284602083860101111561229157600080fd5b6104b2826020830160208701611d02565b600080604083850312156122b557600080fd5b825167ffffffffffffffff808211156122cd57600080fd5b6122d98683870161223e565b935060208501519150808211156122ef57600080fd5b506122fc8582860161223e565b9150509250929050565b6020808252602e908201527f496e697469616c697a61626c653a20636f6e747261637420697320616c72656160408201526d191e481a5b9a5d1a585b1a5e995960921b606082015260800190565b6020808252602b908201527f496e697469616c697a61626c653a20636f6e7472616374206973206e6f74206960408201526a6e697469616c697a696e6760a81b606082015260800190565b6000600685106123b1576123b1611c31565b5060f89390931b835260e09190911b6001600160e01b031916600183015260601b6bffffffffffffffffffffffff1916600582015260190190565b6001600160581b0382811682821603908082111561240c5761240c6120cf565b5092915050565b600063ffffffff80861683528085166020840152506060604083015261243c6060830184611d26565b95945050505050565b6000806040838503121561245857600080fd5b825161246381611b62565b602093909301519294929350505056fea2646970667358221220c05f658f7fc637b13a61173b5dcaf81fcd71f8353ceee1798ec64a2ef53406ca64736f6c63430008110033",
    "linkReferences": {}
  },
  "methodIdentifiers": {
    "agentRoot()": "36cba43c",
    "agentStatus(address)": "28f3fac9",
    "destination()": "b269681d",
    "disputeStatus(address)": "3463d1b1",
    "getAgent(uint256)": "2de5aaf7",
    "getDispute(uint256)": "e3a96cbd",
    "getDisputesAmount()": "3aaeccc6",
    "inbox()": "fb0e722b",
    "initialize(address,address,address)": "c0c53b8b",
    "localDomain()": "8d3638f4",
    "multicall((bool,bytes)[])": "60fc8466",
    "openDispute(uint32,uint32)": "a2155c34",
    "origin()": "938b5f32",
    "owner()": "8da5cb5b",
    "remoteWithdrawTips(uint32,uint256,address,uint256)": "1fa07138",
    "renounceOwnership()": "715018a6",
    "resolveStuckDispute(uint32,address)": "89791e17",
    "setAgentRoot(bytes32)": "58668176",
    "slashAgent(uint32,address,address)": "2853a0e6",
    "transferOwnership(address)": "f2fde38b",
    "updateAgentStatus(address,(uint8,uint32,uint32),bytes32[])": "cbd05965",
    "version()": "54fd4d50"
  },
  "id": 66
}