{
  "abi": [
    {
      "inputs": [
        {
          "internalType": "address",
          "name": "origin_",
          "type": "address"
        },
        {
          "internalType": "address",
          "name": "destination_",
          "type": "address"
        }
      ],
      "stateMutability": "nonpayable",
      "type": "constructor"
    },
    {
      "inputs": [],
      "name": "CallerNotDestination",
      "type": "error"
    },
    {
      "inputs": [],
      "name": "IncorrectNonce",
      "type": "error"
    },
    {
      "inputs": [],
      "name": "IncorrectRecipient",
      "type": "error"
    },
    {
      "inputs": [],
      "name": "IncorrectSender",
      "type": "error"
    },
    {
      "inputs": [],
      "name": "ZeroProofMaturity",
      "type": "error"
    },
    {
      "anonymous": false,
      "inputs": [
        {
          "indexed": false,
          "internalType": "uint32",
          "name": "origin",
          "type": "uint32"
        },
        {
          "indexed": false,
          "internalType": "uint32",
          "name": "nonce",
          "type": "uint32"
        },
        {
          "indexed": false,
          "internalType": "bytes32",
          "name": "sender",
          "type": "bytes32"
        },
        {
          "indexed": false,
          "internalType": "uint256",
          "name": "proofMaturity",
          "type": "uint256"
        },
        {
          "indexed": false,
          "internalType": "uint32",
          "name": "version",
          "type": "uint32"
        },
        {
          "indexed": false,
          "internalType": "bytes",
          "name": "content",
          "type": "bytes"
        }
      ],
      "name": "MessageReceived",
      "type": "event"
    },
    {
      "anonymous": false,
      "inputs": [
        {
          "indexed": false,
          "internalType": "uint32",
          "name": "destination",
          "type": "uint32"
        },
        {
          "indexed": false,
          "internalType": "uint32",
          "name": "nonce",
          "type": "uint32"
        },
        {
          "indexed": false,
          "internalType": "bytes32",
          "name": "sender",
          "type": "bytes32"
        },
        {
          "indexed": false,
          "internalType": "bytes32",
          "name": "recipient",
          "type": "bytes32"
        },
        {
          "indexed": false,
          "internalType": "bytes",
          "name": "content",
          "type": "bytes"
        }
      ],
      "name": "MessageSent",
      "type": "event"
    },
    {
      "inputs": [],
      "name": "destination",
      "outputs": [
        {
          "internalType": "address",
          "name": "",
          "type": "address"
        }
      ],
      "stateMutability": "view",
      "type": "function"
    },
    {
      "inputs": [],
      "name": "origin",
      "outputs": [
        {
          "internalType": "address",
          "name": "",
          "type": "address"
        }
      ],
      "stateMutability": "view",
      "type": "function"
    },
    {
      "inputs": [
        {
          "internalType": "uint32",
          "name": "origin_",
          "type": "uint32"
        },
        {
          "internalType": "uint32",
          "name": "nonce",
          "type": "uint32"
        },
        {
          "internalType": "bytes32",
          "name": "sender",
          "type": "bytes32"
        },
        {
          "internalType": "uint256",
          "name": "proofMaturity",
          "type": "uint256"
        },
        {
          "internalType": "uint32",
          "name": "version",
          "type": "uint32"
        },
        {
          "internalType": "bytes",
          "name": "content",
          "type": "bytes"
        }
      ],
      "name": "receiveBaseMessage",
      "outputs": [],
      "stateMutability": "payable",
      "type": "function"
    },
    {
      "inputs": [
        {
          "internalType": "uint32",
          "name": "destination_",
          "type": "uint32"
        },
        {
          "internalType": "address",
          "name": "recipientAddress",
          "type": "address"
        },
        {
          "internalType": "uint32",
          "name": "optimisticSeconds",
          "type": "uint32"
        },
        {
          "internalType": "uint64",
          "name": "gasLimit",
          "type": "uint64"
        },
        {
          "internalType": "uint32",
          "name": "version",
          "type": "uint32"
        },
        {
          "internalType": "bytes",
          "name": "content",
          "type": "bytes"
        }
      ],
      "name": "sendMessage",
      "outputs": [],
      "stateMutability": "payable",
      "type": "function"
    }
  ],
  "bytecode": {
    "object": "0x60c060405234801561001057600080fd5b506040516107cf3803806107cf83398101604081905261002f91610062565b6001600160a01b039182166080521660a052610095565b80516001600160a01b038116811461005d57600080fd5b919050565b6000806040838503121561007557600080fd5b61007e83610046565b915061008c60208401610046565b90509250929050565b60805160a05161070a6100c56000396000818160ce015260fb015260008181607e01526102b9015261070a6000f3fe60806040526004361061003f5760003560e01c8063032f287e146100445780636d82c66514610059578063938b5f321461006c578063b269681d146100bc575b600080fd5b610057610052366004610478565b6100f0565b005b6100576100673660046104ff565b6101b9565b34801561007857600080fd5b506100a07f000000000000000000000000000000000000000000000000000000000000000081565b6040516001600160a01b03909116815260200160405180910390f35b3480156100c857600080fd5b506100a07f000000000000000000000000000000000000000000000000000000000000000081565b336001600160a01b037f0000000000000000000000000000000000000000000000000000000000000000161461013957604051636efcc49f60e01b815260040160405180910390fd5b8463ffffffff1660000361016057604051630ce9b1b160e31b815260040160405180910390fd5b600084900361018257604051637d1c29f360e01b815260040160405180910390fd5b826000036101a357604051636e71456760e11b815260040160405180910390fd5b6101b186868686868661024b565b505050505050565b60408051606081018252600080825267ffffffffffffffff8616602083015263ffffffff8516928201929092526001600160a01b038716916101fe8984898588610294565b5090507ff17c656698e3361e14b0a2402b83112a3d8ffcc011ce6bae5e8368685d14327689823086886040516102389594939291906105e8565b60405180910390a1505050505050505050565b7f3f9b1e40d9a4eda9d0f907e5149157e0ba489ee09f73d9c99a533462f3232ee386868686868660405161028496959493929190610628565b60405180910390a1505050505050565b6000808581036102b75760405163519bdea760e01b815260040160405180910390fd5b7f00000000000000000000000000000000000000000000000000000000000000006001600160a01b031663873661bd348989896102f38a610364565b896040518763ffffffff1660e01b8152600401610314959493929190610671565b604080518083038185885af1158015610331573d6000803e3d6000fd5b50505050506040513d601f19601f8201168201806040525081019061035691906106a6565b915091509550959350505050565b60006103b18260000151836020015184604001516bffffffffffffffffffffffff60601b606084901b166bffffffffffffffff00000000602084901b161763ffffffff8216179392505050565b6001600160c01b031692915050565b63ffffffff811681146103d257600080fd5b50565b634e487b7160e01b600052604160045260246000fd5b600082601f8301126103fc57600080fd5b813567ffffffffffffffff80821115610417576104176103d5565b604051601f8301601f19908116603f0116810190828211818310171561043f5761043f6103d5565b8160405283815286602085880101111561045857600080fd5b836020870160208301376000602085830101528094505050505092915050565b60008060008060008060c0878903121561049157600080fd5b863561049c816103c0565b955060208701356104ac816103c0565b9450604087013593506060870135925060808701356104ca816103c0565b915060a087013567ffffffffffffffff8111156104e657600080fd5b6104f289828a016103eb565b9150509295509295509295565b60008060008060008060c0878903121561051857600080fd5b8635610523816103c0565b955060208701356001600160a01b038116811461053f57600080fd5b9450604087013561054f816103c0565b9350606087013567ffffffffffffffff808216821461056d57600080fd5b90935060808801359061057f826103c0565b90925060a0880135908082111561059557600080fd5b506104f289828a016103eb565b6000815180845260005b818110156105c8576020818501810151868301820152016105ac565b506000602082860101526020601f19601f83011685010191505092915050565b600063ffffffff808816835280871660208401525084604083015283606083015260a0608083015261061d60a08301846105a2565b979650505050505050565b600063ffffffff8089168352808816602084015286604084015285606084015280851660808401525060c060a083015261066560c08301846105a2565b98975050505050505050565b600063ffffffff808816835286602084015280861660408401525083606083015260a0608083015261061d60a08301846105a2565b600080604083850312156106b957600080fd5b82516106c4816103c0565b602093909301519294929350505056fea2646970667358221220ffb7181fdd37ee7e3851e75ff531911bb11045eef22f4a47bc92881e37ec360264736f6c63430008110033",
    "linkReferences": {}
  },
  "methodIdentifiers": {
    "destination()": "b269681d",
    "origin()": "938b5f32",
    "receiveBaseMessage(uint32,uint32,bytes32,uint256,uint32,bytes)": "032f287e",
    "sendMessage(uint32,address,uint32,uint64,uint32,bytes)": "6d82c665"
  },
  "id": 11
}