{
  "abi": [
    {
      "inputs": [
        {
          "internalType": "uint32",
          "name": "domain",
          "type": "uint32"
        },
        {
          "internalType": "address",
          "name": "agentManager_",
          "type": "address"
        },
        {
          "internalType": "address",
          "name": "inbox_",
          "type": "address"
        }
      ],
      "stateMutability": "nonpayable",
      "type": "constructor"
    },
    {
      "inputs": [],
      "name": "CallerNotAgentManager",
      "type": "error"
    },
    {
      "inputs": [],
      "name": "CallerNotInbox",
      "type": "error"
    },
    {
      "inputs": [],
      "name": "Empty",
      "type": "error"
    },
    {
      "inputs": [],
      "name": "IncorrectAttestation",
      "type": "error"
    },
    {
      "inputs": [],
      "name": "IncorrectState",
      "type": "error"
    },
    {
      "inputs": [],
      "name": "IncorrectStatesAmount",
      "type": "error"
    },
    {
      "inputs": [],
      "name": "IncorrectVersionLength",
      "type": "error"
    },
    {
      "inputs": [],
      "name": "IndexOutOfRange",
      "type": "error"
    },
    {
      "inputs": [],
      "name": "IndexedTooMuch",
      "type": "error"
    },
    {
      "inputs": [],
      "name": "MustBeSynapseDomain",
      "type": "error"
    },
    {
      "inputs": [],
      "name": "NonceOutOfRange",
      "type": "error"
    },
    {
      "inputs": [],
      "name": "NotaryInDispute",
      "type": "error"
    },
    {
      "inputs": [],
      "name": "OccupiedMemory",
      "type": "error"
    },
    {
      "inputs": [],
      "name": "OutdatedNonce",
      "type": "error"
    },
    {
      "inputs": [],
      "name": "PrecompileOutOfGas",
      "type": "error"
    },
    {
      "inputs": [],
      "name": "TipsClaimMoreThanEarned",
      "type": "error"
    },
    {
      "inputs": [],
      "name": "TipsClaimZero",
      "type": "error"
    },
    {
      "inputs": [],
      "name": "TreeHeightTooLow",
      "type": "error"
    },
    {
      "inputs": [],
      "name": "UnallocatedMemory",
      "type": "error"
    },
    {
      "inputs": [],
      "name": "UnformattedAttestation",
      "type": "error"
    },
    {
      "inputs": [],
      "name": "UnformattedReceipt",
      "type": "error"
    },
    {
      "inputs": [],
      "name": "UnformattedSnapshot",
      "type": "error"
    },
    {
      "inputs": [],
      "name": "UnformattedState",
      "type": "error"
    },
    {
      "inputs": [],
      "name": "ViewOverrun",
      "type": "error"
    },
    {
      "anonymous": false,
      "inputs": [
        {
          "indexed": false,
          "internalType": "bytes",
          "name": "attestation",
          "type": "bytes"
        }
      ],
      "name": "AttestationSaved",
      "type": "event"
    },
    {
      "anonymous": false,
      "inputs": [
        {
          "indexed": false,
          "internalType": "uint8",
          "name": "version",
          "type": "uint8"
        }
      ],
      "name": "Initialized",
      "type": "event"
    },
    {
      "anonymous": false,
      "inputs": [
        {
          "indexed": true,
          "internalType": "address",
          "name": "previousOwner",
          "type": "address"
        },
        {
          "indexed": true,
          "internalType": "address",
          "name": "newOwner",
          "type": "address"
        }
      ],
      "name": "OwnershipTransferred",
      "type": "event"
    },
    {
      "anonymous": false,
      "inputs": [
        {
          "indexed": false,
          "internalType": "bytes",
          "name": "state",
          "type": "bytes"
        }
      ],
      "name": "StateSaved",
      "type": "event"
    },
    {
      "anonymous": false,
      "inputs": [
        {
          "indexed": false,
          "internalType": "address",
          "name": "actor",
          "type": "address"
        },
        {
          "indexed": false,
          "internalType": "uint32",
          "name": "origin",
          "type": "uint32"
        },
        {
          "indexed": false,
          "internalType": "uint256",
          "name": "tip",
          "type": "uint256"
        }
      ],
      "name": "TipAwarded",
      "type": "event"
    },
    {
      "inputs": [
        {
          "internalType": "uint32",
          "name": "guardIndex",
          "type": "uint32"
        },
        {
          "internalType": "uint256",
          "name": "sigIndex",
          "type": "uint256"
        },
        {
          "internalType": "bytes",
          "name": "snapPayload",
          "type": "bytes"
        }
      ],
      "name": "acceptGuardSnapshot",
      "outputs": [],
      "stateMutability": "nonpayable",
      "type": "function"
    },
    {
      "inputs": [
        {
          "internalType": "uint32",
          "name": "notaryIndex",
          "type": "uint32"
        },
        {
          "internalType": "uint256",
          "name": "sigIndex",
          "type": "uint256"
        },
        {
          "internalType": "bytes32",
          "name": "agentRoot",
          "type": "bytes32"
        },
        {
          "internalType": "bytes",
          "name": "snapPayload",
          "type": "bytes"
        }
      ],
      "name": "acceptNotarySnapshot",
      "outputs": [
        {
          "internalType": "bytes",
          "name": "attPayload",
          "type": "bytes"
        }
      ],
      "stateMutability": "nonpayable",
      "type": "function"
    },
    {
      "inputs": [
        {
          "internalType": "uint32",
          "name": "rcptNotaryIndex",
          "type": "uint32"
        },
        {
          "internalType": "uint32",
          "name": "attNotaryIndex",
          "type": "uint32"
        },
        {
          "internalType": "uint256",
          "name": "sigIndex",
          "type": "uint256"
        },
        {
          "internalType": "uint32",
          "name": "attNonce",
          "type": "uint32"
        },
        {
          "internalType": "uint256",
          "name": "paddedTips",
          "type": "uint256"
        },
        {
          "internalType": "bytes",
          "name": "rcptPayload",
          "type": "bytes"
        }
      ],
      "name": "acceptReceipt",
      "outputs": [
        {
          "internalType": "bool",
          "name": "wasAccepted",
          "type": "bool"
        }
      ],
      "stateMutability": "nonpayable",
      "type": "function"
    },
    {
      "inputs": [
        {
          "internalType": "address",
          "name": "",
          "type": "address"
        },
        {
          "internalType": "uint32",
          "name": "",
          "type": "uint32"
        }
      ],
      "name": "actorTips",
      "outputs": [
        {
          "internalType": "uint128",
          "name": "earned",
          "type": "uint128"
        },
        {
          "internalType": "uint128",
          "name": "claimed",
          "type": "uint128"
        }
      ],
      "stateMutability": "view",
      "type": "function"
    },
    {
      "inputs": [],
      "name": "agentManager",
      "outputs": [
        {
          "internalType": "address",
          "name": "",
          "type": "address"
        }
      ],
      "stateMutability": "view",
      "type": "function"
    },
    {
      "inputs": [
        {
          "internalType": "address",
          "name": "agent",
          "type": "address"
        }
      ],
      "name": "agentStatus",
      "outputs": [
        {
          "components": [
            {
              "internalType": "enum AgentFlag",
              "name": "flag",
              "type": "uint8"
            },
            {
              "internalType": "uint32",
              "name": "domain",
              "type": "uint32"
            },
            {
              "internalType": "uint32",
              "name": "index",
              "type": "uint32"
            }
          ],
          "internalType": "struct AgentStatus",
          "name": "",
          "type": "tuple"
        }
      ],
      "stateMutability": "view",
      "type": "function"
    },
    {
      "inputs": [],
      "name": "distributeTips",
      "outputs": [
        {
          "internalType": "bool",
          "name": "queuePopped",
          "type": "bool"
        }
      ],
      "stateMutability": "nonpayable",
      "type": "function"
    },
    {
      "inputs": [
        {
          "internalType": "uint256",
          "name": "index",
          "type": "uint256"
        }
      ],
      "name": "getAgent",
      "outputs": [
        {
          "internalType": "address",
          "name": "agent",
          "type": "address"
        },
        {
          "components": [
            {
              "internalType": "enum AgentFlag",
              "name": "flag",
              "type": "uint8"
            },
            {
              "internalType": "uint32",
              "name": "domain",
              "type": "uint32"
            },
            {
              "internalType": "uint32",
              "name": "index",
              "type": "uint32"
            }
          ],
          "internalType": "struct AgentStatus",
          "name": "status",
          "type": "tuple"
        }
      ],
      "stateMutability": "view",
      "type": "function"
    },
    {
      "inputs": [
        {
          "internalType": "uint32",
          "name": "attNonce",
          "type": "uint32"
        }
      ],
      "name": "getAttestation",
      "outputs": [
        {
          "internalType": "bytes",
          "name": "attPayload",
          "type": "bytes"
        },
        {
          "internalType": "bytes32",
          "name": "agentRoot",
          "type": "bytes32"
        },
        {
          "internalType": "uint256[]",
          "name": "snapGas",
          "type": "uint256[]"
        }
      ],
      "stateMutability": "view",
      "type": "function"
    },
    {
      "inputs": [
        {
          "internalType": "uint256",
          "name": "index",
          "type": "uint256"
        }
      ],
      "name": "getGuardSnapshot",
      "outputs": [
        {
          "internalType": "bytes",
          "name": "snapPayload",
          "type": "bytes"
        },
        {
          "internalType": "bytes",
          "name": "snapSignature",
          "type": "bytes"
        }
      ],
      "stateMutability": "view",
      "type": "function"
    },
    {
      "inputs": [
        {
          "internalType": "uint32",
          "name": "origin",
          "type": "uint32"
        },
        {
          "internalType": "address",
          "name": "agent",
          "type": "address"
        }
      ],
      "name": "getLatestAgentState",
      "outputs": [
        {
          "internalType": "bytes",
          "name": "stateData",
          "type": "bytes"
        }
      ],
      "stateMutability": "view",
      "type": "function"
    },
    {
      "inputs": [
        {
          "internalType": "address",
          "name": "notary",
          "type": "address"
        }
      ],
      "name": "getLatestNotaryAttestation",
      "outputs": [
        {
          "internalType": "bytes",
          "name": "attPayload",
          "type": "bytes"
        },
        {
          "internalType": "bytes32",
          "name": "agentRoot",
          "type": "bytes32"
        },
        {
          "internalType": "uint256[]",
          "name": "snapGas",
          "type": "uint256[]"
        }
      ],
      "stateMutability": "view",
      "type": "function"
    },
    {
      "inputs": [
        {
          "internalType": "uint32",
          "name": "origin",
          "type": "uint32"
        }
      ],
      "name": "getLatestState",
      "outputs": [
        {
          "internalType": "bytes",
          "name": "statePayload",
          "type": "bytes"
        }
      ],
      "stateMutability": "view",
      "type": "function"
    },
    {
      "inputs": [
        {
          "internalType": "bytes",
          "name": "attPayload",
          "type": "bytes"
        }
      ],
      "name": "getNotarySnapshot",
      "outputs": [
        {
          "internalType": "bytes",
          "name": "snapPayload",
          "type": "bytes"
        },
        {
          "internalType": "bytes",
          "name": "snapSignature",
          "type": "bytes"
        }
      ],
      "stateMutability": "view",
      "type": "function"
    },
    {
      "inputs": [
        {
          "internalType": "uint256",
          "name": "index",
          "type": "uint256"
        }
      ],
      "name": "getNotarySnapshot",
      "outputs": [
        {
          "internalType": "bytes",
          "name": "snapPayload",
          "type": "bytes"
        },
        {
          "internalType": "bytes",
          "name": "snapSignature",
          "type": "bytes"
        }
      ],
      "stateMutability": "view",
      "type": "function"
    },
    {
      "inputs": [
        {
          "internalType": "uint32",
          "name": "attNonce",
          "type": "uint32"
        },
        {
          "internalType": "uint256",
          "name": "stateIndex",
          "type": "uint256"
        }
      ],
      "name": "getSnapshotProof",
      "outputs": [
        {
          "internalType": "bytes32[]",
          "name": "snapProof",
          "type": "bytes32[]"
        }
      ],
      "stateMutability": "view",
      "type": "function"
    },
    {
      "inputs": [],
      "name": "inbox",
      "outputs": [
        {
          "internalType": "address",
          "name": "",
          "type": "address"
        }
      ],
      "stateMutability": "view",
      "type": "function"
    },
    {
      "inputs": [],
      "name": "initialize",
      "outputs": [],
      "stateMutability": "nonpayable",
      "type": "function"
    },
    {
      "inputs": [
        {
          "internalType": "bytes",
          "name": "attPayload",
          "type": "bytes"
        }
      ],
      "name": "isValidAttestation",
      "outputs": [
        {
          "internalType": "bool",
          "name": "isValid",
          "type": "bool"
        }
      ],
      "stateMutability": "view",
      "type": "function"
    },
    {
      "inputs": [],
      "name": "localDomain",
      "outputs": [
        {
          "internalType": "uint32",
          "name": "",
          "type": "uint32"
        }
      ],
      "stateMutability": "view",
      "type": "function"
    },
    {
      "inputs": [
        {
          "components": [
            {
              "internalType": "bool",
              "name": "allowFailure",
              "type": "bool"
            },
            {
              "internalType": "bytes",
              "name": "callData",
              "type": "bytes"
            }
          ],
          "internalType": "struct MultiCallable.Call[]",
          "name": "calls",
          "type": "tuple[]"
        }
      ],
      "name": "multicall",
      "outputs": [
        {
          "components": [
            {
              "internalType": "bool",
              "name": "success",
              "type": "bool"
            },
            {
              "internalType": "bytes",
              "name": "returnData",
              "type": "bytes"
            }
          ],
          "internalType": "struct MultiCallable.Result[]",
          "name": "callResults",
          "type": "tuple[]"
        }
      ],
      "stateMutability": "nonpayable",
      "type": "function"
    },
    {
      "inputs": [
        {
          "internalType": "uint32",
          "name": "guardIndex",
          "type": "uint32"
        },
        {
          "internalType": "uint32",
          "name": "notaryIndex",
          "type": "uint32"
        }
      ],
      "name": "openDispute",
      "outputs": [],
      "stateMutability": "nonpayable",
      "type": "function"
    },
    {
      "inputs": [],
      "name": "owner",
      "outputs": [
        {
          "internalType": "address",
          "name": "",
          "type": "address"
        }
      ],
      "stateMutability": "view",
      "type": "function"
    },
    {
      "inputs": [],
      "name": "receiptQueueLength",
      "outputs": [
        {
          "internalType": "uint256",
          "name": "",
          "type": "uint256"
        }
      ],
      "stateMutability": "view",
      "type": "function"
    },
    {
      "inputs": [],
      "name": "renounceOwnership",
      "outputs": [],
      "stateMutability": "nonpayable",
      "type": "function"
    },
    {
      "inputs": [
        {
          "internalType": "uint32",
          "name": "slashedIndex",
          "type": "uint32"
        },
        {
          "internalType": "uint32",
          "name": "honestIndex",
          "type": "uint32"
        }
      ],
      "name": "resolveDispute",
      "outputs": [],
      "stateMutability": "nonpayable",
      "type": "function"
    },
    {
      "inputs": [
        {
          "internalType": "address",
          "name": "newOwner",
          "type": "address"
        }
      ],
      "name": "transferOwnership",
      "outputs": [],
      "stateMutability": "nonpayable",
      "type": "function"
    },
    {
      "inputs": [],
      "name": "version",
      "outputs": [
        {
          "internalType": "string",
          "name": "versionString",
          "type": "string"
        }
      ],
      "stateMutability": "view",
      "type": "function"
    },
    {
      "inputs": [
        {
          "internalType": "uint32",
          "name": "origin",
          "type": "uint32"
        },
        {
          "internalType": "uint256",
          "name": "amount",
          "type": "uint256"
        }
      ],
      "name": "withdrawTips",
      "outputs": [],
      "stateMutability": "nonpayable",
      "type": "function"
    }
  ],
  "bytecode": {
    "object": "0x6101206040523480156200001257600080fd5b5060405162004ed538038062004ed58339810160408190526200003591620000d9565b60408051808201909152600580825264302e302e3360d81b602083015260805283838383838162000066816200012d565b60a0525063ffffffff90811660c0526001600160a01b0393841660e05291909216610100528616600a149250620000b391505057604051632b3a807f60e01b815260040160405180910390fd5b50505062000155565b80516001600160a01b0381168114620000d457600080fd5b919050565b600080600060608486031215620000ef57600080fd5b835163ffffffff811681146200010457600080fd5b92506200011460208501620000bc565b91506200012460408501620000bc565b90509250925092565b805160208083015191908110156200014f576000198160200360031b1b821691505b50919050565b60805160a05160c05160e05161010051614cf5620001e06000396000818161052d0152818161055c015281816110ff0152818161144e0152611bae0152600081816103b601528181610e0d01528181610fad0152818161116001528181611536015281816120ea0152612187015260006103fd01526000610338015260006103150152614cf56000f3fe608060405234801561001057600080fd5b50600436106101ce5760003560e01c80638129fc1c11610104578063bf1aae26116100a2578063e8c12f8011610071578063e8c12f80146104ef578063f2fde38b14610502578063f523071914610515578063fb0e722b1461052857600080fd5b8063bf1aae26146104a3578063c79a431b146104b6578063caecc6db146104c9578063d17db53a146104dc57600080fd5b80639cc1bb31116100de5780639cc1bb3114610445578063a2155c3414610458578063a23d9bae1461046b578063a5ba1a551461048d57600080fd5b80638129fc1c146103f05780638d3638f4146103f85780638da5cb5b1461043457600080fd5b806347ca1b1411610171578063611692181161014b57806361169218146103815780636170e4e614610396578063715018a6146103a95780637622f78d146103b157600080fd5b806347ca1b14146102a957806354fd4d501461030957806360fc84661461036157600080fd5b8063229b5b1e116101ad578063229b5b1e1461023557806328f3fac9146102555780632de5aaf7146102755780634362fd111461029657600080fd5b8062f34054146101d357806302eef8dc146101fc5780630729ae8a1461021d575b600080fd5b6101e66101e136600461435d565b61054f565b6040516101f3919061440f565b60405180910390f35b61020f61020a366004614422565b6105de565b6040516101f3929190614456565b6102256106c2565b60405190151581526020016101f3565b61024861024336600461447b565b61095c565b6040516101f391906144a7565b610268610263366004614500565b610c3f565b6040516101f39190614576565b610288610283366004614584565b610c65565b6040516101f392919061459d565b6102256102a4366004614422565b610c93565b6102e96102b73660046145ba565b6101006020908152600092835260408084209091529082529020546001600160801b0380821691600160801b90041682565b604080516001600160801b039384168152929091166020830152016101f3565b604080518082019091527f000000000000000000000000000000000000000000000000000000000000000081527f000000000000000000000000000000000000000000000000000000000000000060208201526101e6565b61037461036f3660046145f3565b610cb1565b6040516101f39190614667565b61039461038f3660046146dd565b610e02565b005b6103946103a436600461447b565b610e95565b610394611016565b6103d87f000000000000000000000000000000000000000000000000000000000000000081565b6040516001600160a01b0390911681526020016101f3565b610394611077565b61041f7f000000000000000000000000000000000000000000000000000000000000000081565b60405163ffffffff90911681526020016101f3565b6033546001600160a01b03166103d8565b6103946104533660046146fb565b6110f4565b6103946104663660046146dd565b611155565b61047e610479366004614753565b6111d8565b6040516101f393929190614770565b610495611336565b6040519081526020016101f3565b61047e6104b1366004614500565b611356565b6102256104c43660046147be565b611441565b61020f6104d7366004614584565b6114d6565b6101e66104ea366004614753565b611513565b6101e66104fd366004614844565b611643565b610394610510366004614500565b61168f565b61020f610523366004614584565b611757565b6103d87f000000000000000000000000000000000000000000000000000000000000000081565b6060336001600160a01b037f0000000000000000000000000000000000000000000000000000000000000000161461059a5760405163dbc2fa8560e01b815260040160405180910390fd5b6105a3856117a2565b156105c157604051636893014360e01b815260040160405180910390fd5b6105d56105cd836117d7565b8487876117ea565b95945050505050565b60608060006105ec846119f3565b90506105f781611a06565b6106145760405163d6ab3b2160e01b815260040160405180910390fd5b6106b860cb61062283611aa7565b63ffffffff168154811061063857610638614872565b9060005260206000209060020201604051806040016040529081600082018054806020026020016040519081016040528092919081815260200182805480156106a057602002820191906000526020600020905b81548152602001906001019080831161068c575b50505050508152602001600182015481525050611ab9565b9250925050915091565b60006106de60fe54600f81810b600160801b909204900b131590565b156106e95750600090565b60006106f560fe611c33565b600081815260fc6020526040808220815160a0810190925280549394509192909190829060ff16600281111561072d5761072d61451d565b600281111561073e5761073e61451d565b8152905460ff6101008204811615156020840152620100008204161515604083015263ffffffff6301000000820416606083015264ffffffffff600160381b90910481166080928301529082015191925061079e9162015180911661489e565b4210156107ae5760009250505090565b6107bc828260600151611c87565b156107ca5760019250505090565b600082815260fb6020908152604091829020825160e081018452815463ffffffff80821683526401000000008204811694830194909452600160401b810484169482019490945260ff600160601b8504166060820152600160681b9093049091166080830181905260018201546001600160a01b0390811660a085015260029092015490911660c0830152610860908490611c87565b1561086f576001935050505090565b61088482606001518260800151858486611cf8565b600060208084018290526001604080860182905286845260fc9092529120835181548593839160ff1916908360028111156108c1576108c161451d565b0217905550602082015181546040840151606085015160809095015164ffffffffff16600160381b0264ffffffffff60381b1963ffffffff909616630100000002959095166bffffffffffffffffff00000019911515620100000262ff000019941515610100029490941662ffff00199093169290921792909217919091161791909117905561095160fe611df4565b506001935050505090565b606063ffffffff83161580610979575060cb5463ffffffff841610155b156109975760405163dad9fe3360e01b815260040160405180910390fd5b600060cb8463ffffffff16815481106109b2576109b2614872565b906000526020600020906002020160405180604001604052908160008201805480602002602001604051908101604052809291908181526020018280548015610a1a57602002820191906000526020600020905b815481526020019060010190808311610a06575b505050918352505060019190910154602090910152805151909150808410610a5557604051631390f2a160e01b815260040160405180910390fd5b6000610a628260026148b1565b6001600160401b03811115610a7957610a7961429a565b604051908082528060200260200182016040528015610aa2578160200160208202803683370190505b50905060005b82811015610c1e57600084600001518281518110610ac857610ac8614872565b6020026020010151905080600003610ae257610ae26148c8565b6000610ba5610ba060c9610af76001866148de565b81548110610b0757610b07614872565b60009182526020918290206040805161010081018252600390930290910180548352600181015463ffffffff8082169585019590955264010000000080820486169385019390935264ffffffffff600160401b820481166060860152600160681b82041660808501526001600160601b03600160901b9091041660a08401526002015480841660c08401520490911660e0820152611e6a565b611efe565b9050610bb081611f11565b85610bbc8660026148b1565b81518110610bcc57610bcc614872565b6020026020010186866002610be191906148b1565b610bec90600161489e565b81518110610bfc57610bfc614872565b60209081029190910101919091525250610c179050816148f1565b9050610aa8565b50610c3381610c2e8760026148b1565b611f40565b93505050505b92915050565b6040805160608101825260008082526020820181905291810191909152610c39826120ae565b60408051606081018252600080825260208201819052918101829052610c8a83612155565b91509150915091565b600080610c9f836119f3565b9050610caa81611a06565b9392505050565b606081806001600160401b03811115610ccc57610ccc61429a565b604051908082528060200260200182016040528015610d1257816020015b604080518082019091526000815260606020820152815260200190600190039081610cea5790505b5091503660005b82811015610df957858582818110610d3357610d33614872565b9050602002810190610d45919061490a565b91506000848281518110610d5b57610d5b614872565b60200260200101519050306001600160a01b0316838060200190610d7f919061492a565b604051610d8d929190614970565b600060405180830381855af49150503d8060008114610dc8576040519150601f19603f3d011682016040523d82523d6000602084013e610dcd565b606091505b5060208301521515808252833517610df0576309ad446560e31b60005260046000fd5b50600101610d19565b50505092915050565b336001600160a01b037f00000000000000000000000000000000000000000000000000000000000000001614610e4b57604051637bcb136360e11b815260040160405180910390fd5b63ffffffff8281166000908152609760205260409020805460ff19166002179055811615610e915763ffffffff81166000908152609760205260409020805460ff191690555b5050565b80600003610eb65760405163488f8cdd60e11b815260040160405180910390fd5b3360009081526101006020908152604080832063ffffffff861684528252918290208251808401909352546001600160801b038082168452600160801b90910416908201819052610f07908361489e565b81516001600160801b03161015610f31576040516331bf27dd60e01b815260040160405180910390fd5b8181602001516001600160801b0316610f4a919061489e565b3360008181526101006020908152604080832063ffffffff891680855292529182902080546001600160801b03958616600160801b029516949094179093555163cc87550160e01b815260048101919091526024810191909152604481018390527f00000000000000000000000000000000000000000000000000000000000000006001600160a01b03169063cc87550190606401600060405180830381600087803b158015610ff957600080fd5b505af115801561100d573d6000803e3d6000fd5b50505050505050565b6033546001600160a01b031633146110755760405162461bcd60e51b815260206004820181905260248201527f4f776e61626c653a2063616c6c6572206973206e6f7420746865206f776e657260448201526064015b60405180910390fd5b565b600061108360016121fa565b9050801561109b576000805461ff0019166101001790555b6110a3612282565b6110ab6122b1565b80156110f1576000805461ff0019169055604051600181527f7f26b83ff96e1f2b6a682f133852f6798a09c465da95921460cefb38474024989060200160405180910390a15b50565b336001600160a01b037f0000000000000000000000000000000000000000000000000000000000000000161461113d5760405163dbc2fa8560e01b815260040160405180910390fd5b611150611149826117d7565b848461243c565b505050565b336001600160a01b037f0000000000000000000000000000000000000000000000000000000000000000161461119e57604051637bcb136360e11b815260040160405180910390fd5b63ffffffff9182166000908152609760205260408082208054600160ff199182168117909255939094168252902080549091169091179055565b60606000606060cc805490508463ffffffff16106112095760405163dad9fe3360e01b815260040160405180910390fd5b600060cc8563ffffffff168154811061122457611224614872565b60009182526020918290206040805160a08101825260049093029091018054835260018101549383019390935260028301549082015260039091015464ffffffffff8082166060840152600160281b90910416608082015290506112888186612516565b93508060200151925061132d60cb8663ffffffff16815481106112ad576112ad614872565b90600052602060002090600202016040518060400160405290816000820180548060200260200160405190810160405280929190818152602001828054801561131557602002820191906000526020600020905b815481526020019060010190808311611301575b505050505081526020016001820154815250506125bf565b93959294505050565b600061135160fe54600f81810b600160801b909204900b0390565b905090565b606060006060600060cf600061136b876120ae565b60409081015163ffffffff908116835260208301939093520160002054169050801561143957600060cc8263ffffffff16815481106113ac576113ac614872565b60009182526020918290206040805160a08101825260049093029091018054835260018101549383019390935260028301549082015260039091015464ffffffffff8082166060840152600160281b90910416608082015290506114108183612516565b94508060200151935061143560cb8363ffffffff16815481106112ad576112ad614872565b9250505b509193909250565b6000336001600160a01b037f0000000000000000000000000000000000000000000000000000000000000000161461148c5760405163dbc2fa8560e01b815260040160405180910390fd5b611495876117a2565b156114b357604051636893014360e01b815260040160405180910390fd5b6114c96114bf8361271d565b8489898989612730565b90505b9695505050505050565b60ca54606090819083106114fd57604051631390f2a160e01b815260040160405180910390fd5b610c8a60ca848154811061063857610638614872565b6040516360e07a7b60e11b81526000600482018190526060916001600160a01b037f0000000000000000000000000000000000000000000000000000000000000000169063c1c0f4f690602401600060405180830381865afa15801561157d573d6000803e3d6000fd5b505050506040513d6000823e601f3d908101601f191682016040526115a59190810190614980565b90506115af6141ed565b60005b825181101561161f5760006115ec866115e38685815181106115d6576115d6614872565b60200260200101516120ae565b60400151612bc6565b9050826040015163ffffffff16816040015163ffffffff16111561160e578092505b50611618816148f1565b90506115b2565b50604081015163ffffffff161561163c5761163981611e6a565b92505b5050919050565b60606000611654846115e3856120ae565b9050806040015163ffffffff1660000361167e575050604080516020810190915260008152610c39565b61168781611e6a565b949350505050565b6033546001600160a01b031633146116e95760405162461bcd60e51b815260206004820181905260248201527f4f776e61626c653a2063616c6c6572206973206e6f7420746865206f776e6572604482015260640161106c565b6001600160a01b03811661174e5760405162461bcd60e51b815260206004820152602660248201527f4f776e61626c653a206e6577206f776e657220697320746865207a65726f206160448201526564647265737360d01b606482015260840161106c565b6110f181612cb1565b606080600061176784600161489e565b60cb54909150811061178c57604051631390f2a160e01b815260040160405180910390fd5b6106b860cb828154811061063857610638614872565b60008063ffffffff831660009081526097602052604090205460ff1660028111156117cf576117cf61451d565b141592915050565b6000610c396117e583612d03565b612d16565b606060006117f786612d42565b90506000816001600160401b038111156118135761181361429a565b60405190808252806020026020018201604052801561183c578160200160208202803683370190505b50905060005b828110156119da5760006118568983612d63565b9050600061186382612dc3565b90508060000361188657604051630508c93960e41b815260040160405180910390fd5b8084848151811061189957611899614872565b60200260200101818152505060006118b083612e0d565b90506118bc818a612bc6565b6040015163ffffffff166118cf84612e1c565b63ffffffff16116118f357604051633dbfe96160e11b815260040160405180910390fd5b60c96119006001846148de565b8154811061191057611910614872565b6000918252602082206002600390920201015463ffffffff640100000000909104169003611986578860c96119466001856148de565b8154811061195657611956614872565b906000526020600020906003020160020160046101000a81548163ffffffff021916908363ffffffff1602179055505b84848151811061199857611998614872565b60209081029190910181015163ffffffff928316600090815260ce83526040808220948d1682529390925291902055506119d39050816148f1565b9050611842565b506119e88782888888612e2b565b979650505050505050565b6000610c39611a0183612d03565b61305d565b600080611a1283611aa7565b60cc5490915063ffffffff821610611a2d5750600092915050565b610caa8360cc8363ffffffff1681548110611a4a57611a4a614872565b60009182526020918290206040805160a08101825260049093029091018054835260018101549383019390935260028301549082015260039091015464ffffffffff8082166060840152600160281b909104166080820152613085565b6000610c3960406004845b9190613124565b80515160609081906000816001600160401b03811115611adb57611adb61429a565b604051908082528060200260200182016040528015611b04578160200160208202803683370190505b50905060005b82811015611b8557600086600001518281518110611b2a57611b2a614872565b6020026020010151905080600003611b4457611b446148c8565b611b57610ba060c9610af76001856148de565b838381518110611b6957611b69614872565b602090810291909101015250611b7e816148f1565b9050611b0a565b50611b8f81613145565b6020860151604051636ef7fd3360e11b81529195506001600160a01b037f0000000000000000000000000000000000000000000000000000000000000000169163ddeffa6691611be59160040190815260200190565b600060405180830381865afa158015611c02573d6000803e3d6000fd5b505050506040513d6000823e601f3d908101601f19168201604052611c2a9190810190614a31565b92505050915091565b6000611c4e8254600f81810b600160801b909204900b131590565b15611c6c57604051631ed9509560e11b815260040160405180910390fd5b508054600f0b60009081526001909101602052604090205490565b63ffffffff811660009081526097602052604081205460ff166002816002811115611cb457611cb461451d565b03611ccb57611cc284613218565b60019150611cf1565b6001816002811115611cdf57611cdf61451d565b03611cf157611cec61328e565b600191505b5092915050565b600083815260fd60209081526040808320815160808101835290546001600160401b038082168352600160401b8204811694830194909452600160801b8104841682840152600160c01b900490921660608301528301519091901590600284516002811115611d6957611d6961451d565b1490508115611db857611d8e85604001518660600151876000015186600001516132a7565b611da187866000015185602001516132da565b611db88560a0015186600001518560400151613335565b611dcd88838388600001518760000151613410565b8015611dea57611dea8560c0015186600001518560600151613335565b5050505050505050565b6000611e0f8254600f81810b600160801b909204900b131590565b15611e2d57604051631ed9509560e11b815260040160405180910390fd5b508054600f0b6000818152600180840160205260408220805492905583546001600160801b03191692016001600160801b03169190911790915590565b6060610c39826000015183602001518460400151856060015186608001518760a0015160408051602081019790975260e095861b6001600160e01b0319908116888301529490951b909316604486015260d891821b6001600160d81b03199081166048870152911b16604d84015260a01b6001600160a01b03191660528301528051603e818403018152605e909201905290565b6000610c39611f0c83612d03565b613476565b60008082611f28611f2382602461349e565b6134ab565b9250611f38611f238260246134cd565b915050915091565b60606000611f6684518410611f5f57611f5a84600161489e565b613511565b8451613511565b9050806001600160401b03811115611f8057611f8061429a565b604051908082528060200260200182016040528015611fa9578160200160208202803683370190505b50845190925060005b82811015610df957818560011810611fcb576000611fe9565b858560011881518110611fe057611fe0614872565b60200260200101515b848281518110611ffb57611ffb614872565b60200260200101818152505060005b8281101561209b576000816001019050600088838151811061202e5761202e614872565b602002602001015190506000858310612048576000612063565b89838151811061205a5761205a614872565b60200260200101515b905061206f8282613530565b8a600186901c8151811061208557612085614872565b602090810291909101015250505060020161200a565b50600194851c94918201821c9101611fb2565b60408051606081018252600080825260208201819052918101919091526040516328f3fac960e01b81526001600160a01b0383811660048301527f000000000000000000000000000000000000000000000000000000000000000016906328f3fac990602401606060405180830381865afa158015612131573d6000803e3d6000fd5b505050506040513d601f19601f82011682018060405250810190610c399190614b19565b60408051606081018252600080825260208201819052918101829052604051632de5aaf760e01b8152600481018490527f00000000000000000000000000000000000000000000000000000000000000006001600160a01b031690632de5aaf790602401608060405180830381865afa1580156121d6573d6000803e3d6000fd5b505050506040513d601f19601f82011682018060405250810190610c8a9190614b35565b60008054610100900460ff1615612241578160ff16600114801561221d5750303b155b6122395760405162461bcd60e51b815260040161106c90614b6b565b506000919050565b60005460ff8084169116106122685760405162461bcd60e51b815260040161106c90614b6b565b506000805460ff191660ff92909216919091179055600190565b600054610100900460ff166122a95760405162461bcd60e51b815260040161106c90614bb9565b61107561357c565b60cc54156122c1576122c16148c8565b6040805160a0810182526000808252602080830182815283850183815264ffffffffff43811660608088019182524283166080890190815260cc805460018082018355918a5299517f47197230e1e4b29fc0bd84d7d78966c0925452aff72a2a121538b102457e9ebe6004909b029a8b015595517f47197230e1e4b29fc0bd84d7d78966c0925452aff72a2a121538b102457e9ebf8a015593517f47197230e1e4b29fc0bd84d7d78966c0925452aff72a2a121538b102457e9ec089015590517f47197230e1e4b29fc0bd84d7d78966c0925452aff72a2a121538b102457e9ec1909701805493518316600160281b0269ffffffffffffffffffff199094169790921696909617919091179055845180860184815294810190955292845283810182905260cb80549384018155909152825180517fa7ce836d032b2bf62b7e2097a8e0a6d8aeb35405ad15271e96d3b0188a1d06fb6002909402939093019261242d9284920190614231565b50602082015181600101555050565b600061244784612d42565b90506000816001600160401b038111156124635761246361429a565b60405190808252806020026020018201604052801561248c578160200160208202803683370190505b50905060005b82811015612504576124ad6124a78783612d63565b866135ac565b8282815181106124bf576124bf614872565b6020026020010181815250508181815181106124dd576124dd614872565b60200260200101516000036124f4576124f46148c8565b6124fd816148f1565b9050612492565b5061250f8184613815565b5050505050565b6060610caa836000015161255985602001518660400151604080516020808201949094528082019290925280518083038201815260609092019052805191012090565b84866060015187608001516040805160208101969096528581019490945260e09290921b6001600160e01b031916606085015260d890811b6001600160d81b0319908116606486015291901b1660698301528051604e818403018152606e909201905290565b805151606090806001600160401b038111156125dd576125dd61429a565b604051908082528060200260200182016040528015612606578160200160208202803683370190505b50915060005b8181101561163c5760008460000151828151811061262c5761262c614872565b6020026020010151905080600003612646576126466148c8565b6126e660c96126566001846148de565b8154811061266657612666614872565b906000526020600020906003020160010160129054906101000a90046001600160601b031660c960018461269a91906148de565b815481106126aa576126aa614872565b600091825260209091206001600390920201015463ffffffff1663ffffffff1660209190911b6fffffffffffffffffffffffff00000000161790565b6001600160801b031684838151811061270157612701614872565b602090810291909101015250612716816148f1565b905061260c565b6000610c3961272b83612d03565b613886565b600061273b866138ae565b60000361274a575060006114cc565b60006127558861391a565b600081815260fc6020526040808220815160a0810190925280549394509192909190829060ff16600281111561278d5761278d61451d565b600281111561279e5761279e61451d565b81529054610100810460ff9081161515602080850191909152620100008304909116151560408401526301000000820463ffffffff166060840152600160381b90910464ffffffffff1660809092019190915281015190915015612807576000925050506114cc565b6000806128138b61392c565b6001600160a01b03161461282857600261282b565b60015b905080600281111561283f5761283f61451d565b825160028111156128525761285261451d565b1061286357600093505050506114cc565b6040518060e001604052806128778c61393b565b63ffffffff16815260200161288b8c613949565b63ffffffff1681526020018663ffffffff1681526020016128ab8c613957565b60ff1681526020018863ffffffff1681526020016128c88c613966565b6001600160a01b031681526020016128df8c61392c565b6001600160a01b03908116909152600085815260fb60209081526040918290208451815492860151868501516060880151608089015163ffffffff908116600160681b0263ffffffff60681b1960ff909316600160601b0260ff60601b19948316600160401b02949094166cffffffffff0000000000000000199583166401000000000267ffffffffffffffff199099169290961691909117969096179290921692909217919091171691909117815560a0808501516001830180549186166001600160a01b031992831617905560c090950151600292830180549190951695169490941790925580519283019052819083908111156129e1576129e161451d565b81526020016001151581526020018360400151151581526020018963ffffffff1681526020014264ffffffffff1681525060fc600085815260200190815260200160002060008201518160000160006101000a81548160ff02191690836002811115612a4f57612a4f61451d565b021790555060208201518154604080850151606086015160809687015164ffffffffff16600160381b0264ffffffffff60381b1963ffffffff909216630100000002919091166bffffffffffffffffff00000019921515620100000262ff000019961515610100029690961662ffff001990951694909417949094171691909117919091179091558051918201905280612ae98b60c01c90565b6001600160401b03168152602001612b018b60801c90565b6001600160401b03168152602001612b198b60401c90565b6001600160401b031681526020018a6001600160401b03908116909152600085815260fd60209081526040918290208451815492860151938601516060909601518516600160c01b026001600160c01b03968616600160801b02969096166001600160801b03948616600160401b026001600160801b03199094169190951617919091179190911691909117919091179055612bb660fe84613973565b5060019998505050505050505050565b612bce6141ed565b63ffffffff808416600090815260ce60209081526040808320938616835292905220548015611cf15760c9612c046001836148de565b81548110612c1457612c14614872565b60009182526020918290206040805161010081018252600390930290910180548352600181015463ffffffff8082169585019590955264010000000080820486169385019390935264ffffffffff600160401b820481166060860152600160681b82041660808501526001600160601b03600160901b9091041660a08401526002015480841660c08401520490911660e082015291505092915050565b603380546001600160a01b038381166001600160a01b0319831681179093556040519116919082907f8be0079c531659141344cd1fd0a4f28419497f9722a3daafe3b4186f6b6457e090600090a35050565b80516000906020830161163981836139af565b6000612d21826139f9565b612d3e57604051635cb1e1ad60e11b815260040160405180910390fd5b5090565b6000612d50600c603261489e565b610c39906001600160801b038416614c1a565b60008281612d73600c603261489e565b612d7d90856148b1565b90506001600160801b0382168110612da857604051631390f2a160e01b815260040160405180910390fd5b6105d5611f0c82612dbb600c603261489e565b859190613a46565b600060cd6000612dd284612e0d565b63ffffffff1663ffffffff1681526020019081526020016000206000612df784613a9e565b8152602001908152602001600020549050919050565b6000610c396020600484611ab2565b6000610c396024600484611ab2565b60cc546060906000612e4d612e3f89613add565b805160051b60209091012090565b90506000612e8e612e5d8a613bbb565b6040805160a081018252918252602082018a9052810184905264ffffffffff43811660608301524216608082015290565b9050612e9a8184612516565b63ffffffff808816600090815260cf60209081526040808320805494891663ffffffff199095169490941790935560cc805460018181018355918452865160049091027f47197230e1e4b29fc0bd84d7d78966c0925452aff72a2a121538b102457e9ebe810191909155868301517f47197230e1e4b29fc0bd84d7d78966c0925452aff72a2a121538b102457e9ebf820155868501517f47197230e1e4b29fc0bd84d7d78966c0925452aff72a2a121538b102457e9ec082015560608701517f47197230e1e4b29fc0bd84d7d78966c0925452aff72a2a121538b102457e9ec19091018054608089015164ffffffffff908116600160281b0269ffffffffffffffffffff1990921693169290921791909117905583518085019094528c84528382018a905260cb805491820181559092528251805194985092936002929092027fa7ce836d032b2bf62b7e2097a8e0a6d8aeb35405ad15271e96d3b0188a1d06fb019261300d9284929190910190614231565b506020820151816001015550507f60c3a1f5763d1f5370168d8e60a7e6c27c5200c3327a20af481c738a9b11d7de84604051613049919061440f565b60405180910390a150505095945050505050565b600061306882613c93565b612d3e57604051633ae4998b60e21b815260040160405180910390fd5b805160009061309384613ca9565b1480156130d45750602080830151604080850151815180850193909352828201528051808303820181526060909201905280519101206130d284613cb7565b145b80156130f95750816060015164ffffffffff166130f084613cc5565b64ffffffffff16145b8015610caa5750816080015164ffffffffff1661311584613cd4565b64ffffffffff16149392505050565b600080613132858585613ce3565b602084900360031b1c9150509392505050565b60606131518251613d78565b61316e576040516376cc6d3360e11b815260040160405180910390fd5b81516000816001600160401b0381111561318a5761318a61429a565b6040519080825280602002602001820160405280156131b3578160200160208202803683370190505b50905060005b8281101561320e576131e18582815181106131d6576131d6614872565b602002602001015190565b8282815181106131f3576131f3614872565b6020908102919091010152613207816148f1565b90506131b9565b5061163981613d9d565b600081815260fb60209081526040808320805470ffffffffffffffffffffffffffffffffff191681556001810180546001600160a01b031990811690915560029091018054909116905560fc825280832080546bffffffffffffffffffffffff1916905560fd909152812055610e9160fe611df4565b600061329a60fe611df4565b90506110f160fe82613973565b60006132b282613dd2565b90506000806132c4878760ff16613ddf565b915091506132d38286856132da565b61100d8186855b6000806132ec8563ffffffff16612155565b90925090506004815160058111156133065761330661451d565b148061332457506005815160058111156133225761332261451d565b145b1561332e57600091505b61250f8285855b6001600160a01b03831660009081526101006020908152604080832063ffffffff86168452909152812080546001600160401b03841692906133819084906001600160801b0316614c2e565b92506101000a8154816001600160801b0302191690836001600160801b031602179055507f028eefe3e6e6c46784170a285345379538ad119d61613ffeae882dfe14498b9c838383604051613403939291906001600160a01b0393909316835263ffffffff9190911660208301526001600160401b0316604082015260600190565b60405180910390a1505050565b600061341b82613eb1565b905060008580156134295750845b1561343557508061346b565b851561344d57613446600283614c4e565b905061346b565b841561346b5761345e600283614c4e565b6134689083614c74565b90505b61100d8785836132da565b600061348182613ed1565b612d3e57604051631ae8107160e21b815260040160405180910390fd5b6000610caa838284613a46565b6000806134b88360801c90565b6001600160801b039390931690922092915050565b60006001600160801b038316808311156134fa5760405163a3b99ded60e01b815260040160405180910390fd5b611687836135088660801c90565b018483036139af565b600060015b8281101561352a576001918201911b613516565b50919050565b60008215801561353e575081155b1561354b57506000610c39565b6040805160208101859052908101839052606001604051602081830303815290604052805190602001209050610c39565b600054610100900460ff166135a35760405162461bcd60e51b815260040161106c90614bb9565b61107533612cb1565b6000806135b884612e0d565b90506135c48184612bc6565b6040015163ffffffff166135d785612e1c565b63ffffffff16116135fb57604051633dbfe96160e11b815260040160405180910390fd5b600061360685613a9e565b63ffffffff8316600090815260cd6020908152604080832084845290915281205494509091508390036137e657600061363f8686613eee565b60c98054600181018255600082815283517f66be4f155c5ef2ebd3772b228f2f00681e4ed5826cdb3b1943cc11ad15ad1d286003909302928301556020808501517f66be4f155c5ef2ebd3772b228f2f00681e4ed5826cdb3b1943cc11ad15ad1d298401805460408089015160608a015160808b015160a08c015163ffffffff97881667ffffffffffffffff199687161764010000000094891685021771ffffffffffffffffffff00000000000000001916600160401b64ffffffffff9485160264ffffffffff60681b191617600160681b9390921692909202176bffffffffffffffffffffffff60901b1916600160901b6001600160601b03909216919091021790935560c08901517f66be4f155c5ef2ebd3772b228f2f00681e4ed5826cdb3b1943cc11ad15ad1d2a909701805460e08b0151988616931692909217968416909202959095179094559354938816825260cd8152828220878352905220819055945090507fc82fd59396134ccdeb4ce594571af6fe8f87d1df40fb6aaf1463ee06d610d0cb6137cf87613f7c565b6040516137dc919061440f565b60405180910390a1505b5063ffffffff908116600090815260ce6020908152604080832095909316825293909352909120819055919050565b60408051808201909152828152602080820183905260ca80546001810182556000919091528251805160029092027f42d72674974f694b5f5159593243114d38a5c39c89d6b62fee061ff523240ee1019261387592849290910190614231565b506020820151816001015550505050565b600061389182613fb2565b612d3e57604051631dad384f60e21b815260040160405180910390fd5b6000816001600160401b03166138c48360401c90565b6001600160401b03166138d78460801c90565b6001600160401b03166138ea8560c01c90565b6001600160401b03166138fd919061489e565b613907919061489e565b613911919061489e565b60201b92915050565b6000610c3960086020845b9190613ce3565b6000610c396071835b90613fc5565b6000610c3981600484611ab2565b6000610c3960048084611ab2565b6000610c396048600184611ab2565b6000610c39605d83613935565b8154600160801b90819004600f0b6000818152600180860160205260409091209390935583546001600160801b03908116939091011602179055565b6000806139bc838561489e565b90506040518111156139cc575060005b806000036139ed5760405163085f79c360e11b815260040160405180910390fd5b608084901b8317611687565b60006001600160801b03821681613a12600c603261489e565b613a1c9083614c1a565b905081613a2b600c603261489e565b613a3590836148b1565b148015611639575061163981613d78565b600080613a538560801c90565b9050613a5e85613fd3565b83613a69868461489e565b613a73919061489e565b1115613a925760405163a3b99ded60e01b815260040160405180910390fd5b6105d5848201846139af565b6000806000613aac84611f11565b6040805160208082019490945280820192909252805180830382018152606090920190528051910120949350505050565b60606000613aea83612d42565b9050806001600160401b03811115613b0457613b0461429a565b604051908082528060200260200182016040528015613b2d578160200160208202803683370190505b50915060005b8181101561163c576000613b478583612d63565b9050613b80613b5582613ff0565b613b5e83612e0d565b63ffffffff1660209190911b6fffffffffffffffffffffffff00000000161790565b848381518110613b9257613b92614872565b6001600160801b039092166020928302919091019091015250613bb4816148f1565b9050613b33565b600080613bc783612d42565b90506000816001600160401b03811115613be357613be361429a565b604051908082528060200260200182016040528015613c0c578160200160208202803683370190505b50905060005b82811015613c5957613c2c613c278683612d63565b613a9e565b828281518110613c3e57613c3e614872565b6020908102919091010152613c52816148f1565b9050613c12565b50613c6f81613c6a600160066148de565b614005565b80600081518110613c8257613c82614872565b602002602001015192505050919050565b6000604e6001600160801b0383165b1492915050565b6000610c3981602084613925565b6000610c3960208084613925565b6000610c396044600584611ab2565b6000610c396049600584611ab2565b600081600003613cf557506000610caa565b6020821115613d175760405163063af09560e31b815260040160405180910390fd5b6001600160801b038416613d2b838561489e565b1115613d4a5760405163a3b99ded60e01b815260040160405180910390fd5b600382901b6000613d5b8660801c90565b90940151600160ff1b600019929092019190911d16949350505050565b60008115801590610c395750613d90600160066148de565b6001901b82111592915050565b604051806000613db084602084016140df565b6001600160801b0316601f8101601f1916830160200160405290915250919050565b6000610c39600383614c4e565b600080600060cb8563ffffffff1681548110613dfd57613dfd614872565b90600052602060002090600202016000018481548110613e1f57613e1f614872565b9060005260206000200154905060c9600182613e3b91906148de565b81548110613e4b57613e4b614872565b600091825260209091206002600390920201015463ffffffff1660c9613e726001846148de565b81548110613e8257613e82614872565b906000526020600020906003020160020160049054906101000a900463ffffffff1692509250505b9250929050565b6000613ebc82613dd2565b613ec7906002614c94565b610c399083614c74565b6000613edf600c603261489e565b6001600160801b038316613ca2565b613ef66141ed565b613eff83613ca9565b8152613f0a83612e0d565b63ffffffff166020820152613f1e83612e1c565b63ffffffff166040820152613f3283614161565b64ffffffffff166060820152613f4783614170565b64ffffffffff166080820152613f5c83613ff0565b6001600160601b031660a082015263ffffffff90911660c0820152919050565b60405180613f8d836020830161417f565b506001600160801b0383166000601f8201601f19168301602001604052509052919050565b600060856001600160801b038316613ca2565b6000610caa83836014613124565b60006001600160801b038216613fe98360801c90565b0192915050565b6000610c396140026032600c85611ab2565b90565b81516001821b81111561402b5760405163c5360feb60e01b815260040160405180910390fd5b60005b828110156140d95760005b828110156140ca576000816001019050600086838151811061405d5761405d614872565b602002602001015190506000858310614077576000614092565b87838151811061408957614089614872565b60200260200101515b905061409e8282613530565b88600186901c815181106140b4576140b4614872565b6020908102919091010152505050600201614039565b506001918201821c910161402e565b50505050565b60405160009080831015614106576040516312ca856360e21b815260040160405180910390fd5b6000805b855181101561415457600086828151811061412757614127614872565b6020026020010151905061413d8184880161417f565b506001600160801b0316919091019060010161410a565b50608084901b81176105d5565b6000610c396028600584611ab2565b6000610c39602d600584611ab2565b6040516000906001600160801b03841690608085901c90808510156141b7576040516312ca856360e21b815260040160405180910390fd5b60008386858560045afa9050806141e157604051637c7d772f60e01b815260040160405180910390fd5b608086901b84176119e8565b6040805161010081018252600080825260208201819052918101829052606081018290526080810182905260a0810182905260c0810182905260e081019190915290565b82805482825590600052602060002090810192821561426c579160200282015b8281111561426c578251825591602001919060010190614251565b50612d3e9291505b80821115612d3e5760008155600101614274565b63ffffffff811681146110f157600080fd5b634e487b7160e01b600052604160045260246000fd5b604051601f8201601f191681016001600160401b03811182821017156142d8576142d861429a565b604052919050565b60006001600160401b038211156142f9576142f961429a565b50601f01601f191660200190565b600082601f83011261431857600080fd5b813561432b614326826142e0565b6142b0565b81815284602083860101111561434057600080fd5b816020850160208301376000918101602001919091529392505050565b6000806000806080858703121561437357600080fd5b843561437e81614288565b9350602085013592506040850135915060608501356001600160401b038111156143a757600080fd5b6143b387828801614307565b91505092959194509250565b60005b838110156143da5781810151838201526020016143c2565b50506000910152565b600081518084526143fb8160208601602086016143bf565b601f01601f19169290920160200192915050565b602081526000610caa60208301846143e3565b60006020828403121561443457600080fd5b81356001600160401b0381111561444a57600080fd5b61168784828501614307565b60408152600061446960408301856143e3565b82810360208401526105d581856143e3565b6000806040838503121561448e57600080fd5b823561449981614288565b946020939093013593505050565b6020808252825182820181905260009190848201906040850190845b818110156144df578351835292840192918401916001016144c3565b50909695505050505050565b6001600160a01b03811681146110f157600080fd5b60006020828403121561451257600080fd5b8135610caa816144eb565b634e487b7160e01b600052602160045260246000fd5b80516006811061455357634e487b7160e01b600052602160045260246000fd5b825260208181015163ffffffff9081169184019190915260409182015116910152565b60608101610c398284614533565b60006020828403121561459657600080fd5b5035919050565b6001600160a01b038316815260808101610caa6020830184614533565b600080604083850312156145cd57600080fd5b82356145d8816144eb565b915060208301356145e881614288565b809150509250929050565b6000806020838503121561460657600080fd5b82356001600160401b038082111561461d57600080fd5b818501915085601f83011261463157600080fd5b81358181111561464057600080fd5b8660208260051b850101111561465557600080fd5b60209290920196919550909350505050565b60006020808301818452808551808352604092508286019150828160051b87010184880160005b838110156146cf57888303603f1901855281518051151584528701518784018790526146bc878501826143e3565b958801959350509086019060010161468e565b509098975050505050505050565b600080604083850312156146f057600080fd5b82356145d881614288565b60008060006060848603121561471057600080fd5b833561471b81614288565b92506020840135915060408401356001600160401b0381111561473d57600080fd5b61474986828701614307565b9150509250925092565b60006020828403121561476557600080fd5b8135610caa81614288565b60608152600061478360608301866143e3565b6020838101869052838203604085015284518083528582019282019060005b818110156146cf578451835293830193918301916001016147a2565b60008060008060008060c087890312156147d757600080fd5b86356147e281614288565b955060208701356147f281614288565b945060408701359350606087013561480981614288565b92506080870135915060a08701356001600160401b0381111561482b57600080fd5b61483789828a01614307565b9150509295509295509295565b6000806040838503121561485757600080fd5b823561486281614288565b915060208301356145e8816144eb565b634e487b7160e01b600052603260045260246000fd5b634e487b7160e01b600052601160045260246000fd5b80820180821115610c3957610c39614888565b8082028115828204841417610c3957610c39614888565b634e487b7160e01b600052600160045260246000fd5b81810381811115610c3957610c39614888565b60006001820161490357614903614888565b5060010190565b60008235603e1983360301811261492057600080fd5b9190910192915050565b6000808335601e1984360301811261494157600080fd5b8301803591506001600160401b0382111561495b57600080fd5b602001915036819003821315613eaa57600080fd5b8183823760009101908152919050565b6000602080838503121561499357600080fd5b82516001600160401b03808211156149aa57600080fd5b818501915085601f8301126149be57600080fd5b8151818111156149d0576149d061429a565b8060051b91506149e18483016142b0565b81815291830184019184810190888411156149fb57600080fd5b938501935b83851015614a255784519250614a15836144eb565b8282529385019390850190614a00565b98975050505050505050565b600060208284031215614a4357600080fd5b81516001600160401b03811115614a5957600080fd5b8201601f81018413614a6a57600080fd5b8051614a78614326826142e0565b818152856020838501011115614a8d57600080fd5b6105d58260208301602086016143bf565b600060608284031215614ab057600080fd5b604051606081018181106001600160401b0382111715614ad257614ad261429a565b8060405250809150825160068110614ae957600080fd5b81526020830151614af981614288565b60208201526040830151614b0c81614288565b6040919091015292915050565b600060608284031215614b2b57600080fd5b610caa8383614a9e565b60008060808385031215614b4857600080fd5b8251614b53816144eb565b9150614b628460208501614a9e565b90509250929050565b6020808252602e908201527f496e697469616c697a61626c653a20636f6e747261637420697320616c72656160408201526d191e481a5b9a5d1a585b1a5e995960921b606082015260800190565b6020808252602b908201527f496e697469616c697a61626c653a20636f6e7472616374206973206e6f74206960408201526a6e697469616c697a696e6760a81b606082015260800190565b634e487b7160e01b600052601260045260246000fd5b600082614c2957614c29614c04565b500490565b6001600160801b03818116838216019080821115611cf157611cf1614888565b60006001600160401b0380841680614c6857614c68614c04565b92169190910492915050565b6001600160401b03828116828216039080821115611cf157611cf1614888565b6001600160401b03818116838216028082169190828114614cb757614cb7614888565b50509291505056fea2646970667358221220b357596dcb7786e158947e3305368e7810066ae38f9dbc85fbab61d755402c1264736f6c63430008110033",
    "linkReferences": {}
  },
  "methodIdentifiers": {
    "acceptGuardSnapshot(uint32,uint256,bytes)": "9cc1bb31",
    "acceptNotarySnapshot(uint32,uint256,bytes32,bytes)": "00f34054",
    "acceptReceipt(uint32,uint32,uint256,uint32,uint256,bytes)": "c79a431b",
    "actorTips(address,uint32)": "47ca1b14",
    "agentManager()": "7622f78d",
    "agentStatus(address)": "28f3fac9",
    "distributeTips()": "0729ae8a",
    "getAgent(uint256)": "2de5aaf7",
    "getAttestation(uint32)": "a23d9bae",
    "getGuardSnapshot(uint256)": "caecc6db",
    "getLatestAgentState(uint32,address)": "e8c12f80",
    "getLatestNotaryAttestation(address)": "bf1aae26",
    "getLatestState(uint32)": "d17db53a",
    "getNotarySnapshot(bytes)": "02eef8dc",
    "getNotarySnapshot(uint256)": "f5230719",
    "getSnapshotProof(uint32,uint256)": "229b5b1e",
    "inbox()": "fb0e722b",
    "initialize()": "8129fc1c",
    "isValidAttestation(bytes)": "4362fd11",
    "localDomain()": "8d3638f4",
    "multicall((bool,bytes)[])": "60fc8466",
    "openDispute(uint32,uint32)": "a2155c34",
    "owner()": "8da5cb5b",
    "receiptQueueLength()": "a5ba1a55",
    "renounceOwnership()": "715018a6",
    "resolveDispute(uint32,uint32)": "61169218",
    "transferOwnership(address)": "f2fde38b",
    "version()": "54fd4d50",
    "withdrawTips(uint32,uint256)": "6170e4e6"
  },
  "id": 3
}