{
  "abi": [
    {
      "inputs": [
        {
          "internalType": "uint32",
          "name": "domain",
          "type": "uint32"
        }
      ],
      "stateMutability": "nonpayable",
      "type": "constructor"
    },
    {
      "inputs": [],
      "name": "AgentNotActive",
      "type": "error"
    },
    {
      "inputs": [],
      "name": "AgentNotActiveNorUnstaking",
      "type": "error"
    },
    {
      "inputs": [],
      "name": "AgentNotGuard",
      "type": "error"
    },
    {
      "inputs": [],
      "name": "AgentNotNotary",
      "type": "error"
    },
    {
      "inputs": [],
      "name": "AgentUnknown",
      "type": "error"
    },
    {
      "inputs": [],
      "name": "CallerNotDestination",
      "type": "error"
    },
    {
      "inputs": [],
      "name": "IncorrectAgentDomain",
      "type": "error"
    },
    {
      "inputs": [],
      "name": "IncorrectSnapshotProof",
      "type": "error"
    },
    {
      "inputs": [],
      "name": "IncorrectSnapshotRoot",
      "type": "error"
    },
    {
      "inputs": [],
      "name": "IncorrectTipsProof",
      "type": "error"
    },
    {
      "inputs": [],
      "name": "IncorrectVersionLength",
      "type": "error"
    },
    {
      "inputs": [],
      "name": "IndexOutOfRange",
      "type": "error"
    },
    {
      "inputs": [],
      "name": "IndexedTooMuch",
      "type": "error"
    },
    {
      "inputs": [],
      "name": "MustBeSynapseDomain",
      "type": "error"
    },
    {
      "inputs": [],
      "name": "OccupiedMemory",
      "type": "error"
    },
    {
      "inputs": [],
      "name": "PrecompileOutOfGas",
      "type": "error"
    },
    {
      "inputs": [],
      "name": "TreeHeightTooLow",
      "type": "error"
    },
    {
      "inputs": [],
      "name": "UnallocatedMemory",
      "type": "error"
    },
    {
      "inputs": [],
      "name": "UnformattedAttestation",
      "type": "error"
    },
    {
      "inputs": [],
      "name": "UnformattedReceipt",
      "type": "error"
    },
    {
      "inputs": [],
      "name": "UnformattedSnapshot",
      "type": "error"
    },
    {
      "inputs": [],
      "name": "UnformattedState",
      "type": "error"
    },
    {
      "inputs": [],
      "name": "ViewOverrun",
      "type": "error"
    },
    {
      "anonymous": false,
      "inputs": [
        {
          "indexed": false,
          "internalType": "uint32",
          "name": "domain",
          "type": "uint32"
        },
        {
          "indexed": false,
          "internalType": "address",
          "name": "notary",
          "type": "address"
        },
        {
          "indexed": false,
          "internalType": "bytes",
          "name": "attPayload",
          "type": "bytes"
        },
        {
          "indexed": false,
          "internalType": "bytes",
          "name": "attSignature",
          "type": "bytes"
        }
      ],
      "name": "AttestationAccepted",
      "type": "event"
    },
    {
      "anonymous": false,
      "inputs": [
        {
          "indexed": false,
          "internalType": "uint8",
          "name": "version",
          "type": "uint8"
        }
      ],
      "name": "Initialized",
      "type": "event"
    },
    {
      "anonymous": false,
      "inputs": [
        {
          "indexed": false,
          "internalType": "bytes",
          "name": "attPayload",
          "type": "bytes"
        },
        {
          "indexed": false,
          "internalType": "bytes",
          "name": "attSignature",
          "type": "bytes"
        }
      ],
      "name": "InvalidAttestation",
      "type": "event"
    },
    {
      "anonymous": false,
      "inputs": [
        {
          "indexed": false,
          "internalType": "bytes",
          "name": "arPayload",
          "type": "bytes"
        },
        {
          "indexed": false,
          "internalType": "bytes",
          "name": "arSignature",
          "type": "bytes"
        }
      ],
      "name": "InvalidAttestationReport",
      "type": "event"
    },
    {
      "anonymous": false,
      "inputs": [
        {
          "indexed": false,
          "internalType": "bytes",
          "name": "rcptPayload",
          "type": "bytes"
        },
        {
          "indexed": false,
          "internalType": "bytes",
          "name": "rcptSignature",
          "type": "bytes"
        }
      ],
      "name": "InvalidReceipt",
      "type": "event"
    },
    {
      "anonymous": false,
      "inputs": [
        {
          "indexed": false,
          "internalType": "bytes",
          "name": "rrPayload",
          "type": "bytes"
        },
        {
          "indexed": false,
          "internalType": "bytes",
          "name": "rrSignature",
          "type": "bytes"
        }
      ],
      "name": "InvalidReceiptReport",
      "type": "event"
    },
    {
      "anonymous": false,
      "inputs": [
        {
          "indexed": false,
          "internalType": "bytes",
          "name": "srPayload",
          "type": "bytes"
        },
        {
          "indexed": false,
          "internalType": "bytes",
          "name": "srSignature",
          "type": "bytes"
        }
      ],
      "name": "InvalidStateReport",
      "type": "event"
    },
    {
      "anonymous": false,
      "inputs": [
        {
          "indexed": false,
          "internalType": "uint256",
          "name": "stateIndex",
          "type": "uint256"
        },
        {
          "indexed": false,
          "internalType": "bytes",
          "name": "statePayload",
          "type": "bytes"
        },
        {
          "indexed": false,
          "internalType": "bytes",
          "name": "attPayload",
          "type": "bytes"
        },
        {
          "indexed": false,
          "internalType": "bytes",
          "name": "attSignature",
          "type": "bytes"
        }
      ],
      "name": "InvalidStateWithAttestation",
      "type": "event"
    },
    {
      "anonymous": false,
      "inputs": [
        {
          "indexed": false,
          "internalType": "uint256",
          "name": "stateIndex",
          "type": "uint256"
        },
        {
          "indexed": false,
          "internalType": "bytes",
          "name": "snapPayload",
          "type": "bytes"
        },
        {
          "indexed": false,
          "internalType": "bytes",
          "name": "snapSignature",
          "type": "bytes"
        }
      ],
      "name": "InvalidStateWithSnapshot",
      "type": "event"
    },
    {
      "anonymous": false,
      "inputs": [
        {
          "indexed": true,
          "internalType": "address",
          "name": "previousOwner",
          "type": "address"
        },
        {
          "indexed": true,
          "internalType": "address",
          "name": "newOwner",
          "type": "address"
        }
      ],
      "name": "OwnershipTransferred",
      "type": "event"
    },
    {
      "anonymous": false,
      "inputs": [
        {
          "indexed": false,
          "internalType": "uint32",
          "name": "domain",
          "type": "uint32"
        },
        {
          "indexed": false,
          "internalType": "address",
          "name": "notary",
          "type": "address"
        },
        {
          "indexed": false,
          "internalType": "bytes",
          "name": "rcptPayload",
          "type": "bytes"
        },
        {
          "indexed": false,
          "internalType": "bytes",
          "name": "rcptSignature",
          "type": "bytes"
        }
      ],
      "name": "ReceiptAccepted",
      "type": "event"
    },
    {
      "anonymous": false,
      "inputs": [
        {
          "indexed": true,
          "internalType": "uint32",
          "name": "domain",
          "type": "uint32"
        },
        {
          "indexed": true,
          "internalType": "address",
          "name": "agent",
          "type": "address"
        },
        {
          "indexed": false,
          "internalType": "bytes",
          "name": "snapPayload",
          "type": "bytes"
        },
        {
          "indexed": false,
          "internalType": "bytes",
          "name": "snapSignature",
          "type": "bytes"
        }
      ],
      "name": "SnapshotAccepted",
      "type": "event"
    },
    {
      "inputs": [],
      "name": "agentManager",
      "outputs": [
        {
          "internalType": "address",
          "name": "",
          "type": "address"
        }
      ],
      "stateMutability": "view",
      "type": "function"
    },
    {
      "inputs": [],
      "name": "destination",
      "outputs": [
        {
          "internalType": "address",
          "name": "",
          "type": "address"
        }
      ],
      "stateMutability": "view",
      "type": "function"
    },
    {
      "inputs": [
        {
          "internalType": "uint256",
          "name": "index",
          "type": "uint256"
        }
      ],
      "name": "getGuardReport",
      "outputs": [
        {
          "internalType": "bytes",
          "name": "statementPayload",
          "type": "bytes"
        },
        {
          "internalType": "bytes",
          "name": "reportSignature",
          "type": "bytes"
        }
      ],
      "stateMutability": "view",
      "type": "function"
    },
    {
      "inputs": [],
      "name": "getReportsAmount",
      "outputs": [
        {
          "internalType": "uint256",
          "name": "",
          "type": "uint256"
        }
      ],
      "stateMutability": "view",
      "type": "function"
    },
    {
      "inputs": [
        {
          "internalType": "uint256",
          "name": "index",
          "type": "uint256"
        }
      ],
      "name": "getStoredSignature",
      "outputs": [
        {
          "internalType": "bytes",
          "name": "",
          "type": "bytes"
        }
      ],
      "stateMutability": "view",
      "type": "function"
    },
    {
      "inputs": [
        {
          "internalType": "address",
          "name": "agentManager_",
          "type": "address"
        },
        {
          "internalType": "address",
          "name": "origin_",
          "type": "address"
        },
        {
          "internalType": "address",
          "name": "destination_",
          "type": "address"
        },
        {
          "internalType": "address",
          "name": "summit_",
          "type": "address"
        }
      ],
      "name": "initialize",
      "outputs": [],
      "stateMutability": "nonpayable",
      "type": "function"
    },
    {
      "inputs": [],
      "name": "localDomain",
      "outputs": [
        {
          "internalType": "uint32",
          "name": "",
          "type": "uint32"
        }
      ],
      "stateMutability": "view",
      "type": "function"
    },
    {
      "inputs": [
        {
          "components": [
            {
              "internalType": "bool",
              "name": "allowFailure",
              "type": "bool"
            },
            {
              "internalType": "bytes",
              "name": "callData",
              "type": "bytes"
            }
          ],
          "internalType": "struct MultiCallable.Call[]",
          "name": "calls",
          "type": "tuple[]"
        }
      ],
      "name": "multicall",
      "outputs": [
        {
          "components": [
            {
              "internalType": "bool",
              "name": "success",
              "type": "bool"
            },
            {
              "internalType": "bytes",
              "name": "returnData",
              "type": "bytes"
            }
          ],
          "internalType": "struct MultiCallable.Result[]",
          "name": "callResults",
          "type": "tuple[]"
        }
      ],
      "stateMutability": "nonpayable",
      "type": "function"
    },
    {
      "inputs": [],
      "name": "origin",
      "outputs": [
        {
          "internalType": "address",
          "name": "",
          "type": "address"
        }
      ],
      "stateMutability": "view",
      "type": "function"
    },
    {
      "inputs": [],
      "name": "owner",
      "outputs": [
        {
          "internalType": "address",
          "name": "",
          "type": "address"
        }
      ],
      "stateMutability": "view",
      "type": "function"
    },
    {
      "inputs": [
        {
          "internalType": "uint32",
          "name": "attNotaryIndex",
          "type": "uint32"
        },
        {
          "internalType": "uint32",
          "name": "attNonce",
          "type": "uint32"
        },
        {
          "internalType": "uint256",
          "name": "paddedTips",
          "type": "uint256"
        },
        {
          "internalType": "bytes",
          "name": "rcptPayload",
          "type": "bytes"
        }
      ],
      "name": "passReceipt",
      "outputs": [
        {
          "internalType": "bool",
          "name": "wasAccepted",
          "type": "bool"
        }
      ],
      "stateMutability": "nonpayable",
      "type": "function"
    },
    {
      "inputs": [],
      "name": "renounceOwnership",
      "outputs": [],
      "stateMutability": "nonpayable",
      "type": "function"
    },
    {
      "inputs": [
        {
          "internalType": "bytes",
          "name": "rcptPayload",
          "type": "bytes"
        },
        {
          "internalType": "bytes",
          "name": "rcptSignature",
          "type": "bytes"
        },
        {
          "internalType": "uint256",
          "name": "paddedTips",
          "type": "uint256"
        },
        {
          "internalType": "bytes32",
          "name": "headerHash",
          "type": "bytes32"
        },
        {
          "internalType": "bytes32",
          "name": "bodyHash",
          "type": "bytes32"
        }
      ],
      "name": "submitReceipt",
      "outputs": [
        {
          "internalType": "bool",
          "name": "wasAccepted",
          "type": "bool"
        }
      ],
      "stateMutability": "nonpayable",
      "type": "function"
    },
    {
      "inputs": [
        {
          "internalType": "bytes",
          "name": "rcptPayload",
          "type": "bytes"
        },
        {
          "internalType": "bytes",
          "name": "rcptSignature",
          "type": "bytes"
        },
        {
          "internalType": "bytes",
          "name": "rrSignature",
          "type": "bytes"
        }
      ],
      "name": "submitReceiptReport",
      "outputs": [
        {
          "internalType": "bool",
          "name": "wasAccepted",
          "type": "bool"
        }
      ],
      "stateMutability": "nonpayable",
      "type": "function"
    },
    {
      "inputs": [
        {
          "internalType": "bytes",
          "name": "snapPayload",
          "type": "bytes"
        },
        {
          "internalType": "bytes",
          "name": "snapSignature",
          "type": "bytes"
        }
      ],
      "name": "submitSnapshot",
      "outputs": [
        {
          "internalType": "bytes",
          "name": "attPayload",
          "type": "bytes"
        },
        {
          "internalType": "bytes32",
          "name": "agentRoot_",
          "type": "bytes32"
        },
        {
          "internalType": "uint256[]",
          "name": "snapGas",
          "type": "uint256[]"
        }
      ],
      "stateMutability": "nonpayable",
      "type": "function"
    },
    {
      "inputs": [
        {
          "internalType": "uint256",
          "name": "stateIndex",
          "type": "uint256"
        },
        {
          "internalType": "bytes",
          "name": "srSignature",
          "type": "bytes"
        },
        {
          "internalType": "bytes",
          "name": "snapPayload",
          "type": "bytes"
        },
        {
          "internalType": "bytes",
          "name": "attPayload",
          "type": "bytes"
        },
        {
          "internalType": "bytes",
          "name": "attSignature",
          "type": "bytes"
        }
      ],
      "name": "submitStateReportWithAttestation",
      "outputs": [
        {
          "internalType": "bool",
          "name": "wasAccepted",
          "type": "bool"
        }
      ],
      "stateMutability": "nonpayable",
      "type": "function"
    },
    {
      "inputs": [
        {
          "internalType": "uint256",
          "name": "stateIndex",
          "type": "uint256"
        },
        {
          "internalType": "bytes",
          "name": "srSignature",
          "type": "bytes"
        },
        {
          "internalType": "bytes",
          "name": "snapPayload",
          "type": "bytes"
        },
        {
          "internalType": "bytes",
          "name": "snapSignature",
          "type": "bytes"
        }
      ],
      "name": "submitStateReportWithSnapshot",
      "outputs": [
        {
          "internalType": "bool",
          "name": "wasAccepted",
          "type": "bool"
        }
      ],
      "stateMutability": "nonpayable",
      "type": "function"
    },
    {
      "inputs": [
        {
          "internalType": "uint256",
          "name": "stateIndex",
          "type": "uint256"
        },
        {
          "internalType": "bytes",
          "name": "statePayload",
          "type": "bytes"
        },
        {
          "internalType": "bytes",
          "name": "srSignature",
          "type": "bytes"
        },
        {
          "internalType": "bytes32[]",
          "name": "snapProof",
          "type": "bytes32[]"
        },
        {
          "internalType": "bytes",
          "name": "attPayload",
          "type": "bytes"
        },
        {
          "internalType": "bytes",
          "name": "attSignature",
          "type": "bytes"
        }
      ],
      "name": "submitStateReportWithSnapshotProof",
      "outputs": [
        {
          "internalType": "bool",
          "name": "wasAccepted",
          "type": "bool"
        }
      ],
      "stateMutability": "nonpayable",
      "type": "function"
    },
    {
      "inputs": [],
      "name": "summit",
      "outputs": [
        {
          "internalType": "address",
          "name": "",
          "type": "address"
        }
      ],
      "stateMutability": "view",
      "type": "function"
    },
    {
      "inputs": [
        {
          "internalType": "address",
          "name": "newOwner",
          "type": "address"
        }
      ],
      "name": "transferOwnership",
      "outputs": [],
      "stateMutability": "nonpayable",
      "type": "function"
    },
    {
      "inputs": [
        {
          "internalType": "bytes",
          "name": "attPayload",
          "type": "bytes"
        },
        {
          "internalType": "bytes",
          "name": "attSignature",
          "type": "bytes"
        }
      ],
      "name": "verifyAttestation",
      "outputs": [
        {
          "internalType": "bool",
          "name": "isValidAttestation",
          "type": "bool"
        }
      ],
      "stateMutability": "nonpayable",
      "type": "function"
    },
    {
      "inputs": [
        {
          "internalType": "bytes",
          "name": "attPayload",
          "type": "bytes"
        },
        {
          "internalType": "bytes",
          "name": "arSignature",
          "type": "bytes"
        }
      ],
      "name": "verifyAttestationReport",
      "outputs": [
        {
          "internalType": "bool",
          "name": "isValidReport",
          "type": "bool"
        }
      ],
      "stateMutability": "nonpayable",
      "type": "function"
    },
    {
      "inputs": [
        {
          "internalType": "bytes",
          "name": "rcptPayload",
          "type": "bytes"
        },
        {
          "internalType": "bytes",
          "name": "rcptSignature",
          "type": "bytes"
        }
      ],
      "name": "verifyReceipt",
      "outputs": [
        {
          "internalType": "bool",
          "name": "isValidReceipt",
          "type": "bool"
        }
      ],
      "stateMutability": "nonpayable",
      "type": "function"
    },
    {
      "inputs": [
        {
          "internalType": "bytes",
          "name": "rcptPayload",
          "type": "bytes"
        },
        {
          "internalType": "bytes",
          "name": "rrSignature",
          "type": "bytes"
        }
      ],
      "name": "verifyReceiptReport",
      "outputs": [
        {
          "internalType": "bool",
          "name": "isValidReport",
          "type": "bool"
        }
      ],
      "stateMutability": "nonpayable",
      "type": "function"
    },
    {
      "inputs": [
        {
          "internalType": "bytes",
          "name": "statePayload",
          "type": "bytes"
        },
        {
          "internalType": "bytes",
          "name": "srSignature",
          "type": "bytes"
        }
      ],
      "name": "verifyStateReport",
      "outputs": [
        {
          "internalType": "bool",
          "name": "isValidReport",
          "type": "bool"
        }
      ],
      "stateMutability": "nonpayable",
      "type": "function"
    },
    {
      "inputs": [
        {
          "internalType": "uint256",
          "name": "stateIndex",
          "type": "uint256"
        },
        {
          "internalType": "bytes",
          "name": "snapPayload",
          "type": "bytes"
        },
        {
          "internalType": "bytes",
          "name": "attPayload",
          "type": "bytes"
        },
        {
          "internalType": "bytes",
          "name": "attSignature",
          "type": "bytes"
        }
      ],
      "name": "verifyStateWithAttestation",
      "outputs": [
        {
          "internalType": "bool",
          "name": "isValidState",
          "type": "bool"
        }
      ],
      "stateMutability": "nonpayable",
      "type": "function"
    },
    {
      "inputs": [
        {
          "internalType": "uint256",
          "name": "stateIndex",
          "type": "uint256"
        },
        {
          "internalType": "bytes",
          "name": "snapPayload",
          "type": "bytes"
        },
        {
          "internalType": "bytes",
          "name": "snapSignature",
          "type": "bytes"
        }
      ],
      "name": "verifyStateWithSnapshot",
      "outputs": [
        {
          "internalType": "bool",
          "name": "isValidState",
          "type": "bool"
        }
      ],
      "stateMutability": "nonpayable",
      "type": "function"
    },
    {
      "inputs": [
        {
          "internalType": "uint256",
          "name": "stateIndex",
          "type": "uint256"
        },
        {
          "internalType": "bytes",
          "name": "statePayload",
          "type": "bytes"
        },
        {
          "internalType": "bytes32[]",
          "name": "snapProof",
          "type": "bytes32[]"
        },
        {
          "internalType": "bytes",
          "name": "attPayload",
          "type": "bytes"
        },
        {
          "internalType": "bytes",
          "name": "attSignature",
          "type": "bytes"
        }
      ],
      "name": "verifyStateWithSnapshotProof",
      "outputs": [
        {
          "internalType": "bool",
          "name": "isValidState",
          "type": "bool"
        }
      ],
      "stateMutability": "nonpayable",
      "type": "function"
    },
    {
      "inputs": [],
      "name": "version",
      "outputs": [
        {
          "internalType": "string",
          "name": "versionString",
          "type": "string"
        }
      ],
      "stateMutability": "view",
      "type": "function"
    }
  ],
  "bytecode": {
    "object": "0x60e06040523480156200001157600080fd5b506040516200421a3803806200421a83398101604081905262000034916200009d565b60408051808201909152600580825264302e302e3360d81b602083015260805281816200006181620000cc565b60a0525063ffffffff90811660c05282166103851490506200009657604051632b3a807f60e01b815260040160405180910390fd5b50620000f4565b600060208284031215620000b057600080fd5b815163ffffffff81168114620000c557600080fd5b9392505050565b80516020808301519190811015620000ee576000198160200360031b1b821691505b50919050565b60805160a05160c0516140e8620001326000396000818161039501528181611e770152611eae015260006102ac0152600061028901526140e86000f3fe608060405234801561001057600080fd5b50600436106101cf5760003560e01c80637be8e73811610104578063b269681d116100a2578063ddeffa6611610071578063ddeffa6614610470578063dfe3967514610483578063f2fde38b14610496578063f8c8765e146104a957600080fd5b8063b269681d14610416578063b2a4b45514610429578063c25aa5851461043c578063c495912b1461044f57600080fd5b80638da5cb5b116100de5780638da5cb5b146103cc57806391af2e5d146103dd578063938b5f32146103f05780639fbcb9cb1461040357600080fd5b80637be8e7381461036a578063892465031461037d5780638d3638f41461039057600080fd5b806354fd4d50116101715780636b47b3bc1161014b5780636b47b3bc14610311578063715018a614610324578063756ed01d1461032e5780637622f78d1461033f57600080fd5b806354fd4d501461027d57806360fc8466146102de57806362389709146102fe57600080fd5b8063200f6b66116101ad578063200f6b6614610222578063213a6ddb1461023557806331e8df5a146102485780634bb73ea51461025b57600080fd5b80630b6b985c146101d45780630ca77473146101fc5780630db27e771461020f575b600080fd5b6101e76101e2366004613324565b6104bc565b60405190151581526020015b60405180910390f35b6101e761020a3660046133da565b6105ee565b6101e761021d3660046134b1565b61073a565b6101e761023036600461358a565b6107a8565b6101e761024336600461361b565b61094f565b6101e76102563660046133da565b610aad565b61026e6102693660046133da565b610b7f565b6040516101f3939291906136d7565b604080518082019091527f000000000000000000000000000000000000000000000000000000000000000081527f000000000000000000000000000000000000000000000000000000000000000060208201525b6040516101f39190613733565b6102f16102ec366004613746565b610e20565b6040516101f391906137ba565b6101e761030c36600461358a565b610f68565b6101e761031f366004613834565b61105a565b61032c611110565b005b609b546040519081526020016101f3565b609754610352906001600160a01b031681565b6040516001600160a01b0390911681526020016101f3565b6101e7610378366004613893565b611171565b6101e761038b3660046138f7565b6112de565b6103b77f000000000000000000000000000000000000000000000000000000000000000081565b60405163ffffffff90911681526020016101f3565b6033546001600160a01b0316610352565b6101e76103eb3660046133da565b6113a9565b609854610352906001600160a01b031681565b60c954610352906001600160a01b031681565b609954610352906001600160a01b031681565b6101e7610437366004613945565b61147b565b6101e761044a3660046133da565b611740565b61046261045d3660046139c3565b611811565b6040516101f39291906139dc565b6102d161047e3660046139c3565b6119bd565b6101e76104913660046133da565b611a6c565b61032c6104a4366004613a18565b611b3e565b61032c6104b7366004613a33565b611c09565b6000806104c885611ca0565b905060006104d68289611cb9565b905060006104e48289611d1e565b5090506104f081611d82565b60006104fb87611db5565b905060006105098288611dc8565b50905061051581611e21565b6105228160200151611e75565b61052b82611ef7565b61053486611f08565b14610552576040516312a37cf560e11b815260040160405180910390fd5b61056961056385611fe0565b611fe0565b8b612016565b609754604084810151838201519151632885570d60e21b815263ffffffff9182166004820152911660248201526001600160a01b039091169063a2155c3490604401600060405180830381600087803b1580156105c557600080fd5b505af11580156105d9573d6000803e3d6000fd5b5060019e9d5050505050505050505050505050565b6000806105fa84611db5565b90506000806106098386611dc8565b9150915061061682611e21565b60c954604051634362fd1160e01b81526001600160a01b0390911690634362fd1190610646908990600401613733565b602060405180830381865afa158015610663573d6000803e3d6000fd5b505050506040513d601f19601f820116820180604052508101906106879190613a87565b935083610731577f5ce497fe75d0d52e5ee139d2cd651d0ff00692a94d7052cb37faef5592d74b2b86866040516106bf9291906139dc565b60405180910390a16097546020830151604051631429d07360e11b81526001600160a01b0390921691632853a0e6916106fe9185903390600401613aa9565b600060405180830381600087803b15801561071857600080fd5b505af115801561072c573d6000803e3d6000fd5b505050505b50505092915050565b600080610746876120b0565b905060006107548288611d1e565b50905061076081611d82565b600061076b86611db5565b905060006107798287611dc8565b50905061078581611e21565b6107928160200151611e75565b61079e828c868b6120be565b6105698a8a612016565b6000806107b484611db5565b90506000806107c38386611dc8565b915091506107d082611e21565b60006107db88611ca0565b90506107e684611ef7565b6107ef82611f08565b1461080d576040516312a37cf560e11b815260040160405180910390fd5b600061082261055e61081f848d611cb9565b90565b60985460405163a9dcf22d60e01b81529192506001600160a01b03169063a9dcf22d90610853908490600401613733565b602060405180830381865afa158015610870573d6000803e3d6000fd5b505050506040513d601f19601f820116820180604052508101906108949190613a87565b955085610942577f541491c63a99c21d0612ba7b3c4d90f7662f54a123363e65fae5c51e34e8a4928a828a8a6040516108d09493929190613ad0565b60405180910390a16097546020850151604051631429d07360e11b81526001600160a01b0390921691632853a0e69161090f9187903390600401613aa9565b600060405180830381600087803b15801561092957600080fd5b505af115801561093d573d6000803e3d6000fd5b505050505b5050505050949350505050565b60008061095b84611ca0565b905060008061096c8386600061214e565b9150915061097982611e21565b6098546001600160a01b031663a9dcf22d61099a61055e61081f878c611cb9565b6040518263ffffffff1660e01b81526004016109b69190613733565b602060405180830381865afa1580156109d3573d6000803e3d6000fd5b505050506040513d601f19601f820116820180604052508101906109f79190613a87565b935083610aa3577f8ec8481d2e38a1ffe2c6ec35459332dc9e6248b1219d287dfa4143a68a75bbd1878787604051610a3193929190613b0f565b60405180910390a16097546020830151604051631429d07360e11b81526001600160a01b0390921691632853a0e691610a709185903390600401613aa9565b600060405180830381600087803b158015610a8a57600080fd5b505af1158015610a9e573d6000803e3d6000fd5b505050505b5050509392505050565b600080610ab984611db5565b9050600080610ac883866121bd565b91509150610ad582611e21565b60c954604051634362fd1160e01b81526001600160a01b0390911690634362fd1190610b05908990600401613733565b602060405180830381865afa158015610b22573d6000803e3d6000fd5b505050506040513d601f19601f82011682018060405250810190610b469190613a87565b15935083610731577f6f83f9b71f5c687c7dd205d520001d4e5adc1f16e4e2ee5b798c720d643e5a9e86866040516106bf9291906139dc565b6060600060606000610b9086611ca0565b9050600080610ba18388600061214e565b91509150610bae82611d82565b6000610bb9886121e6565b9050826020015163ffffffff16600003610c3b5760c9546040808501519051639cc1bb3160e01b81526001600160a01b0390921691639cc1bb3191610c049185908e90600401613b44565b600060405180830381600087803b158015610c1e57600080fd5b505af1158015610c32573d6000803e3d6000fd5b50505050610dc7565b609760009054906101000a90046001600160a01b03166001600160a01b03166336cba43c6040518163ffffffff1660e01b8152600401602060405180830381865afa158015610c8e573d6000803e3d6000fd5b505050506040513d601f19601f82011682018060405250810190610cb29190613b69565b60c9546040808601519051623cd01560e21b81529298506001600160a01b039091169162f3405491610cec9185908b908f90600401613b82565b6000604051808303816000875af1158015610d0b573d6000803e3d6000fd5b505050506040513d6000823e601f3d908101601f19168201604052610d339190810190613bad565b96506000610d4085612229565b6099546040808701519051631cff139b60e11b81529293506001600160a01b03909116916339fe273691610d8091600019908d908d908890600401613c1a565b6020604051808303816000875af1158015610d9f573d6000803e3d6000fd5b505050506040513d601f19601f82011682018060405250810190610dc39190613a87565b5094505b816001600160a01b0316836020015163ffffffff167f5ca3d740e03650b41813a4b418830f6ba39700ae010fe8c4d1bca0e8676b9c568b8b604051610e0d9291906139dc565b60405180910390a3505050509250925092565b606081806001600160401b03811115610e3b57610e3b613261565b604051908082528060200260200182016040528015610e8157816020015b604080518082019091526000815260606020820152815260200190600190039081610e595790505b5091503660005b8281101561073157858582818110610ea257610ea2613c93565b9050602002810190610eb49190613ca9565b91506000848281518110610eca57610eca613c93565b60200260200101519050306001600160a01b0316838060200190610eee9190613cc9565b604051610efc929190613d0f565b600060405180830381855af49150503d8060008114610f37576040519150601f19603f3d011682016040523d82523d6000602084013e610f3c565b606091505b5060208301521515808252833517610f5f576309ad446560e31b60005260046000fd5b50600101610e88565b600080610f7484611ca0565b90506000610f848285600161214e565b509050610f9081611e21565b610f9d8160200151611e75565b6000610fa98389611cb9565b90506000610fb78289611d1e565b509050610fc381611d82565b610fd5610fcf83611fe0565b89612016565b609754604082810151858201519151632885570d60e21b815263ffffffff9182166004820152911660248201526001600160a01b039091169063a2155c3490604401600060405180830381600087803b15801561103157600080fd5b505af1158015611045573d6000803e3d6000fd5b5050505060019450505050505b949350505050565b6099546000906001600160a01b0316331461108857604051636efcc49f60e01b815260040160405180910390fd5b60c95460405163c79a431b60e01b81526001600160a01b039091169063c79a431b906110c49088908190600019908a908a908a90600401613d1f565b6020604051808303816000875af11580156110e3573d6000803e3d6000fd5b505050506040513d601f19601f820116820180604052508101906111079190613a87565b95945050505050565b6033546001600160a01b0316331461116f5760405162461bcd60e51b815260206004820181905260248201527f4f776e61626c653a2063616c6c6572206973206e6f7420746865206f776e657260448201526064015b60405180910390fd5b565b60008061117d84611db5565b905060008061118c8386611dc8565b9150915061119982611e21565b60006111a4896120b0565b90506111b2848b838b6120be565b60985460405163a9dcf22d60e01b81526001600160a01b039091169063a9dcf22d906111e2908c90600401613733565b602060405180830381865afa1580156111ff573d6000803e3d6000fd5b505050506040513d601f19601f820116820180604052508101906112239190613a87565b9450846112d1577f541491c63a99c21d0612ba7b3c4d90f7662f54a123363e65fae5c51e34e8a4928a8a898960405161125f9493929190613ad0565b60405180910390a16097546020840151604051631429d07360e11b81526001600160a01b0390921691632853a0e69161129e9186903390600401613aa9565b600060405180830381600087803b1580156112b857600080fd5b505af11580156112cc573d6000803e3d6000fd5b505050505b5050505095945050505050565b6000806112ea8561230e565b905060006112f88285612321565b50905061130481611d82565b6000611310838761234a565b50905061131c81611e21565b6113268786612016565b609754604083810151838201519151632885570d60e21b815263ffffffff9182166004820152911660248201526001600160a01b039091169063a2155c3490604401600060405180830381600087803b15801561138257600080fd5b505af1158015611396573d6000803e3d6000fd5b50505050600193505050505b9392505050565b6000806113b58461230e565b90506000806113c48386612321565b915091506113d182611e21565b60995460405163e2f006f760e01b81526001600160a01b039091169063e2f006f790611401908990600401613733565b602060405180830381865afa15801561141e573d6000803e3d6000fd5b505050506040513d601f19601f820116820180604052508101906114429190613a87565b15935083610731577fa0cb383b7028fbeae86e018eb9fe765c15c869483a584edbb95bf5509344658786866040516106bf9291906139dc565b60006114856131ff565b60006114908861230e565b905061149c818861234a565b6001600160a01b031660208401528083526114b690611d82565b6099546001600160a01b0316634f1275676114d083612373565b6040518263ffffffff1660e01b81526004016114ee91815260200190565b602060405180830381865afa15801561150b573d6000803e3d6000fd5b505050506040513d601f19601f8201168201806040525081019061152f9190613d68565b63ffffffff166040830181905260000361155c576040516312a37cf560e11b815260040160405180910390fd5b6097546001600160a01b03166328f3fac961157683612382565b6040516001600160e01b031960e084901b1681526001600160a01b039091166004820152602401606060405180830381865afa1580156115ba573d6000803e3d6000fd5b505050506040513d601f19601f820116820180604052508101906115de9190613d85565b60608301526115ec8161238f565b63ffffffff1682606001516020015163ffffffff161461161f57604051630b09697760e11b815260040160405180910390fd5b61163361162b826123a0565b8787876123af565b600061163e886121e6565b905060c960009054906101000a90046001600160a01b03166001600160a01b031663c79a431b8460000151604001518560600151604001518487604001518c8f6040518763ffffffff1660e01b815260040161169f96959493929190613d1f565b6020604051808303816000875af11580156116be573d6000803e3d6000fd5b505050506040513d601f19601f820116820180604052508101906116e29190613a87565b93508315611734577f9377955fede38ca63bc09f7b3fae7dd349934c78c058963a6d3c05d4eed0411283600001516020015184602001518b8b60405161172b9493929190613dfa565b60405180910390a15b50505095945050505050565b60008061174c8461230e565b905060008061175b838661234a565b9150915061176882611e21565b60995460405163e2f006f760e01b81526001600160a01b039091169063e2f006f790611798908990600401613733565b602060405180830381865afa1580156117b5573d6000803e3d6000fd5b505050506040513d601f19601f820116820180604052508101906117d99190613a87565b935083610731577f4d4c3a87f0d5fbcea3c51d5baa727fceedb200dd7c9287f7ef85b60b794d6a8d86866040516106bf9291906139dc565b609b546060908190831061183857604051631390f2a160e01b815260040160405180910390fd5b6000609b848154811061184d5761184d613c93565b90600052602060002090600202016040518060400160405290816000820154815260200160018201805461188090613e3c565b80601f01602080910402602001604051908101604052809291908181526020018280546118ac90613e3c565b80156118f95780601f106118ce576101008083540402835291602001916118f9565b820191906000526020600020905b8154815290600101906020018083116118dc57829003601f168201915b505050505081525050905080602001519250609a81600001518154811061192257611922613c93565b90600052602060002001805461193790613e3c565b80601f016020809104026020016040519081016040528092919081815260200182805461196390613e3c565b80156119b05780601f10611985576101008083540402835291602001916119b0565b820191906000526020600020905b81548152906001019060200180831161199357829003601f168201915b5050505050915050915091565b6060609a82815481106119d2576119d2613c93565b9060005260206000200180546119e790613e3c565b80601f0160208091040260200160405190810160405280929190818152602001828054611a1390613e3c565b8015611a605780601f10611a3557610100808354040283529160200191611a60565b820191906000526020600020905b815481529060010190602001808311611a4357829003601f168201915b50505050509050919050565b600080611a78846120b0565b9050600080611a878386611d1e565b91509150611a9482611e21565b60985460405163a9dcf22d60e01b81526001600160a01b039091169063a9dcf22d90611ac4908990600401613733565b602060405180830381865afa158015611ae1573d6000803e3d6000fd5b505050506040513d601f19601f82011682018060405250810190611b059190613a87565b15935083610731577f9b0db5e74572fe0188dcef5afafe498161864c5706c3003c98ee506ae5c0282d86866040516106bf9291906139dc565b6033546001600160a01b03163314611b985760405162461bcd60e51b815260206004820181905260248201527f4f776e61626c653a2063616c6c6572206973206e6f7420746865206f776e65726044820152606401611166565b6001600160a01b038116611bfd5760405162461bcd60e51b815260206004820152602660248201527f4f776e61626c653a206e6577206f776e657220697320746865207a65726f206160448201526564647265737360d01b6064820152608401611166565b611c06816123f5565b50565b6000611c156001612447565b90508015611c2d576000805461ff0019166101001790555b611c388585856124d4565b60c980546001600160a01b0319166001600160a01b0384161790558015611c99576000805461ff0019169055604051600181527f7f26b83ff96e1f2b6a682f133852f6798a09c465da95921460cefb38474024989060200160405180910390a15b5050505050565b6000611cb3611cae83612545565b612558565b92915050565b60008281611cc9600c6032613e86565b611cd39085613e99565b90506001600160801b0382168110611cfe57604051631390f2a160e01b815260040160405180910390fd5b611107611d1982611d11600c6032613e86565b859190612584565b6125dc565b6040805160608101825260008082526020820181905291810182905290611d4d611d4785612604565b84612632565b6020820151919350915063ffffffff1615611d7b576040516370488f8b60e01b815260040160405180910390fd5b9250929050565b600181516005811115611d9757611d97613eb0565b14611c0657604051632437e77160e11b815260040160405180910390fd5b6000611cb3611dc383612545565b612738565b6040805160608101825260008082526020820181905291810182905290611df1611d4785612760565b6020820151919350915063ffffffff16600003611d7b576040516354cc70e560e11b815260040160405180910390fd5b600181516005811115611e3657611e36613eb0565b14158015611e575750600281516005811115611e5457611e54613eb0565b14155b15611c065760405163ec3d0d8560e01b815260040160405180910390fd5b7f000000000000000000000000000000000000000000000000000000000000000063ffffffff168163ffffffff1614158015611ed957507f000000000000000000000000000000000000000000000000000000000000000063ffffffff1661038514155b15611c0657604051630b09697760e11b815260040160405180910390fd5b6000611cb3816020845b919061278c565b600080611f1483612821565b90506000816001600160401b03811115611f3057611f30613261565b604051908082528060200260200182016040528015611f59578160200160208202803683370190505b50905060005b82811015611fa657611f79611f748683611cb9565b612842565b828281518110611f8b57611f8b613c93565b6020908102919091010152611f9f81613ec6565b9050611f5f565b50611fbc81611fb760016006613edf565b612881565b80600081518110611fcf57611fcf613c93565b602002602001015192505050919050565b60405180611ff1836020830161295b565b506001600160801b0383166000601f8201601f19168301602001604052509052919050565b6000612021826121e6565b6040805180820190915281815260208101858152609b8054600181018255600091909152825160029091027fbba9db4cdbea0a37c207bbb83e20f828cd4441c49891101dc94fd20dc8efc3498101918255915193945091927fbba9db4cdbea0a37c207bbb83e20f828cd4441c49891101dc94fd20dc8efc34a909101906120a89082613f38565b505050505050565b6000611cb3611d1983612545565b60006120c9836129d0565b91505080826000815181106120e0576120e0613c93565b602002602001015114612106576040516339bbd1f360e21b815260040160405180910390fd5b600061212461211485611ef7565b61211d866129ff565b8588612a0e565b90508061213087611ef7565b146120a8576040516312a37cf560e11b815260040160405180910390fd5b604080516060810182526000808252602082018190529181018290529061217d61217786612a51565b85612632565b90925090508280156121975750602082015163ffffffff16155b156121b5576040516354cc70e560e11b815260040160405180910390fd5b935093915050565b6040805160608101825260008082526020820181905291810182905290611d4d611d4785612a7d565b609a80546001810182556000919091527f44da158ba27f9252712a74ff6a55c5d531f69609f1f6e7f17c4443a8e2089be481016122238382613f38565b50919050565b6060600061223683612821565b9050806001600160401b0381111561225057612250613261565b604051908082528060200260200182016040528015612279578160200160208202803683370190505b50915060005b818110156123075760006122938583611cb9565b90506122cc6122a182612aa9565b6122aa836129ff565b63ffffffff1660209190911b6fffffffffffffffffffffffff00000000161790565b8483815181106122de576122de613c93565b6001600160801b03909216602092830291909101909101525061230081613ec6565b905061227f565b5050919050565b6000611cb361231c83612545565b612abb565b6040805160608101825260008082526020820181905291810182905290611d4d611d4785612ae3565b6040805160608101825260008082526020820181905291810182905290611df1611d4785612b0f565b6000611cb36028602084611f01565b6000611cb3826049612b3b565b6000611cb3600480845b9190612b45565b6000611cb36008602084611f01565b6000839050846123d7846123d26123cc8560009081526020902090565b86612b66565b612b66565b14611c99576040516335a072f760e21b815260040160405180910390fd5b603380546001600160a01b038381166001600160a01b0319831681179093556040519116919082907f8be0079c531659141344cd1fd0a4f28419497f9722a3daafe3b4186f6b6457e090600090a35050565b60008054610100900460ff161561248e578160ff16600114801561246a5750303b155b6124865760405162461bcd60e51b815260040161116690613ff7565b506000919050565b60005460ff8084169116106124b55760405162461bcd60e51b815260040161116690613ff7565b506000805460ff191660ff92909216919091179055600190565b919050565b600054610100900460ff166124fb5760405162461bcd60e51b815260040161116690614045565b609780546001600160a01b038086166001600160a01b031992831617909255609880548584169083161790556099805492841692909116919091179055612540612bb2565b505050565b8051600090602083016110528183612be1565b600061256382612c2b565b61258057604051635cb1e1ad60e11b815260040160405180910390fd5b5090565b6000806125918560801c90565b905061259c85612c78565b836125a78684613e86565b6125b19190613e86565b11156125d05760405163a3b99ded60e01b815260040160405180910390fd5b61110784820184612be1565b60006125e782612c95565b61258057604051631ae8107160e21b815260040160405180910390fd5b6000611cb37f43713cd927f8eb63b519f3b180bd5f3708ebbe93666be9ba4b9624b7bc57e663835b90612cb5565b60408051606081018252600080825260208201819052918101919091526000806126a9856040517f19457468657265756d205369676e6564204d6573736167653a0a3332000000006020820152603c8101829052600090605c01604051602081830303815290604052805190602001209050919050565b90506126b58185612cf2565b6097546040516328f3fac960e01b81526001600160a01b0380841660048301529294509116906328f3fac990602401606060405180830381865afa158015612701573d6000803e3d6000fd5b505050506040513d601f19601f820116820180604052508101906127259190613d85565b925061273083612d16565b509250929050565b600061274382612d49565b61258057604051633ae4998b60e21b815260040160405180910390fd5b6000611cb37f3464bf887f210604c594030208052a323ac6628785466262d7524176912016418361262c565b60008160000361279e575060006113a2565b60208211156127c05760405163063af09560e31b815260040160405180910390fd5b6001600160801b0384166127d48385613e86565b11156127f35760405163a3b99ded60e01b815260040160405180910390fd5b600382901b60006128048660801c90565b90940151600160ff1b600019929092019190911d16949350505050565b600061282f600c6032613e86565b611cb3906001600160801b038416614090565b6000806000612850846129d0565b6040805160208082019490945280820192909252805180830382018152606090920190528051910120949350505050565b81516001821b8111156128a75760405163c5360feb60e01b815260040160405180910390fd5b60005b828110156129555760005b8281101561294657600081600101905060008683815181106128d9576128d9613c93565b6020026020010151905060008583106128f357600061290e565b87838151811061290557612905613c93565b60200260200101515b905061291a8282612b66565b88600186901c8151811061293057612930613c93565b60209081029190910101525050506002016128b5565b506001918201821c91016128aa565b50505050565b6040516000906001600160801b03841690608085901c9080851015612993576040516312ca856360e21b815260040160405180910390fd5b60008386858560045afa9050806129bd57604051637c7d772f60e01b815260040160405180910390fd5b608086901b84175b979650505050505050565b600080826129e76129e2826024612d5c565b612d69565b92506129f76129e2826024612d8b565b915050915091565b6000611cb36020600484612399565b6000600182901b60408110612a3657604051631390f2a160e01b815260040160405180910390fd5b6000612a428787612dcf565b90506129c58282876006612dfa565b6000611cb37ff304ae6578b1582b0b5b512e0a7070d6f76973b1f360f99dd500082d3bc948778361262c565b6000611cb37fccfadb9c399e4e4257b6d0c3f92e1f9a9c00b1802b55a2f7d511702faa7690908361262c565b6000611cb361081f6032600c85612399565b6000612ac682612e89565b61258057604051631dad384f60e21b815260040160405180910390fd5b6000611cb37fdf42b2c0137811ba604f5c79e20c4d6b94770aa819cc524eca444056544f8ab78361262c565b6000611cb37fb38669e8ca41a27fcd85729b868e8ab047d0f142073a017213e58f0a91e88ef38361262c565b60006113a2838360145b600080612b5385858561278c565b602084900360031b1c9150509392505050565b600082158015612b74575081155b15612b8157506000611cb3565b6040805160208101859052908101839052606001604051602081830303815290604052805190602001209050611cb3565b600054610100900460ff16612bd95760405162461bcd60e51b815260040161116690614045565b61116f612e9c565b600080612bee8385613e86565b9050604051811115612bfe575060005b80600003612c1f5760405163085f79c360e11b815260040160405180910390fd5b608084901b8317611052565b60006001600160801b03821681612c44600c6032613e86565b612c4e9083614090565b905081612c5d600c6032613e86565b612c679083613e99565b148015611052575061105281612ecc565b60006001600160801b038216612c8e8360801c90565b0192915050565b6000612ca3600c6032613e86565b6001600160801b0383165b1492915050565b600081612cc184612d69565b6040805160208101939093528201526060015b60405160208183030381529060405280519060200120905092915050565b6000806000612d018585612ef1565b91509150612d0e81612f33565b509392505050565b600081516005811115612d2b57612d2b613eb0565b03611c065760405163dc449cb760e01b815260040160405180910390fd5b6000604e6001600160801b038316612cae565b60006113a2838284612584565b600080612d768360801c90565b6001600160801b039390931690922092915050565b60006001600160801b03831680831115612db85760405163a3b99ded60e01b815260040160405180910390fd5b61105283612dc68660801c90565b01848303612be1565b60008282604051602001612cd492919091825260e01b6001600160e01b031916602082015260240190565b815160009082811115612e205760405163c5360feb60e01b815260040160405180910390fd5b84915060005b81811015612e5d57612e5383868381518110612e4457612e44613c93565b602002602001015189846130e9565b9250600101612e26565b50805b83811015612e7f57612e7583600089846130e9565b9250600101612e60565b5050949350505050565b600060856001600160801b038316612cae565b600054610100900460ff16612ec35760405162461bcd60e51b815260040161116690614045565b61116f336123f5565b60008115801590611cb35750612ee460016006613edf565b6001901b82111592915050565b6000808251604103612f275760208301516040840151606085015160001a612f1b87828585613112565b94509450505050611d7b565b50600090506002611d7b565b6000816004811115612f4757612f47613eb0565b03612f4f5750565b6001816004811115612f6357612f63613eb0565b03612fb05760405162461bcd60e51b815260206004820152601860248201527f45434453413a20696e76616c6964207369676e617475726500000000000000006044820152606401611166565b6002816004811115612fc457612fc4613eb0565b036130115760405162461bcd60e51b815260206004820152601f60248201527f45434453413a20696e76616c6964207369676e6174757265206c656e677468006044820152606401611166565b600381600481111561302557613025613eb0565b0361307d5760405162461bcd60e51b815260206004820152602260248201527f45434453413a20696e76616c6964207369676e6174757265202773272076616c604482015261756560f01b6064820152608401611166565b600481600481111561309157613091613eb0565b03611c065760405162461bcd60e51b815260206004820152602260248201527f45434453413a20696e76616c6964207369676e6174757265202776272076616c604482015261756560f01b6064820152608401611166565b6000600183831c168103613108576131018585612b66565b9050611052565b6131018486612b66565b6000807f7fffffffffffffffffffffffffffffff5d576e7357a4501ddfe92f46681b20a083111561314957506000905060036131f6565b8460ff16601b1415801561316157508460ff16601c14155b1561317257506000905060046131f6565b6040805160008082526020820180845289905260ff881692820192909252606081018690526080810185905260019060a0016020604051602081039080840390855afa1580156131c6573d6000803e3d6000fd5b5050604051601f1901519150506001600160a01b0381166131ef576000600192509250506131f6565b9150600090505b94509492505050565b6040805160e0810190915260006080820181815260a0830182905260c083019190915281908152600060208201819052604082015260600161325c6040805160608101909152806000815260006020820181905260409091015290565b905290565b634e487b7160e01b600052604160045260246000fd5b604051601f8201601f191681016001600160401b038111828210171561329f5761329f613261565b604052919050565b60006001600160401b038211156132c0576132c0613261565b50601f01601f191660200190565b600082601f8301126132df57600080fd5b81356132f26132ed826132a7565b613277565b81815284602083860101111561330757600080fd5b816020850160208301376000918101602001919091529392505050565b600080600080600060a0868803121561333c57600080fd5b8535945060208601356001600160401b038082111561335a57600080fd5b61336689838a016132ce565b9550604088013591508082111561337c57600080fd5b61338889838a016132ce565b9450606088013591508082111561339e57600080fd5b6133aa89838a016132ce565b935060808801359150808211156133c057600080fd5b506133cd888289016132ce565b9150509295509295909350565b600080604083850312156133ed57600080fd5b82356001600160401b038082111561340457600080fd5b613410868387016132ce565b9350602085013591508082111561342657600080fd5b50613433858286016132ce565b9150509250929050565b600082601f83011261344e57600080fd5b813560206001600160401b0382111561346957613469613261565b8160051b613478828201613277565b928352848101820192828101908785111561349257600080fd5b83870192505b848310156129c557823582529183019190830190613498565b60008060008060008060c087890312156134ca57600080fd5b8635955060208701356001600160401b03808211156134e857600080fd5b6134f48a838b016132ce565b9650604089013591508082111561350a57600080fd5b6135168a838b016132ce565b9550606089013591508082111561352c57600080fd5b6135388a838b0161343d565b9450608089013591508082111561354e57600080fd5b61355a8a838b016132ce565b935060a089013591508082111561357057600080fd5b5061357d89828a016132ce565b9150509295509295509295565b600080600080608085870312156135a057600080fd5b8435935060208501356001600160401b03808211156135be57600080fd5b6135ca888389016132ce565b945060408701359150808211156135e057600080fd5b6135ec888389016132ce565b9350606087013591508082111561360257600080fd5b5061360f878288016132ce565b91505092959194509250565b60008060006060848603121561363057600080fd5b8335925060208401356001600160401b038082111561364e57600080fd5b61365a878388016132ce565b9350604086013591508082111561367057600080fd5b5061367d868287016132ce565b9150509250925092565b60005b838110156136a257818101518382015260200161368a565b50506000910152565b600081518084526136c3816020860160208601613687565b601f01601f19169290920160200192915050565b6060815260006136ea60608301866136ab565b6020838101869052838203604085015284518083528582019282019060005b8181101561372557845183529383019391830191600101613709565b509098975050505050505050565b6020815260006113a260208301846136ab565b6000806020838503121561375957600080fd5b82356001600160401b038082111561377057600080fd5b818501915085601f83011261378457600080fd5b81358181111561379357600080fd5b8660208260051b85010111156137a857600080fd5b60209290920196919550909350505050565b60006020808301818452808551808352604092508286019150828160051b87010184880160005b8381101561372557888303603f19018552815180511515845287015187840187905261380f878501826136ab565b95880195935050908601906001016137e1565b63ffffffff81168114611c0657600080fd5b6000806000806080858703121561384a57600080fd5b843561385581613822565b9350602085013561386581613822565b92506040850135915060608501356001600160401b0381111561388757600080fd5b61360f878288016132ce565b600080600080600060a086880312156138ab57600080fd5b8535945060208601356001600160401b03808211156138c957600080fd5b6138d589838a016132ce565b955060408801359150808211156138eb57600080fd5b61338889838a0161343d565b60008060006060848603121561390c57600080fd5b83356001600160401b038082111561392357600080fd5b61392f878388016132ce565b9450602086013591508082111561364e57600080fd5b600080600080600060a0868803121561395d57600080fd5b85356001600160401b038082111561397457600080fd5b61398089838a016132ce565b9650602088013591508082111561399657600080fd5b506139a3888289016132ce565b959895975050505060408401359360608101359360809091013592509050565b6000602082840312156139d557600080fd5b5035919050565b6040815260006139ef60408301856136ab565b828103602084015261110781856136ab565b80356001600160a01b03811681146124cf57600080fd5b600060208284031215613a2a57600080fd5b6113a282613a01565b60008060008060808587031215613a4957600080fd5b613a5285613a01565b9350613a6060208601613a01565b9250613a6e60408601613a01565b9150613a7c60608601613a01565b905092959194509250565b600060208284031215613a9957600080fd5b815180151581146113a257600080fd5b63ffffffff9390931683526001600160a01b03918216602084015216604082015260600190565b848152608060208201526000613ae960808301866136ab565b8281036040840152613afb81866136ab565b905082810360608401526129c581856136ab565b838152606060208201526000613b2860608301856136ab565b8281036040840152613b3a81856136ab565b9695505050505050565b63ffffffff8416815282602082015260606040820152600061110760608301846136ab565b600060208284031215613b7b57600080fd5b5051919050565b63ffffffff85168152836020820152826040820152608060608201526000613b3a60808301846136ab565b600060208284031215613bbf57600080fd5b81516001600160401b03811115613bd557600080fd5b8201601f81018413613be657600080fd5b8051613bf46132ed826132a7565b818152856020838501011115613c0957600080fd5b611107826020830160208601613687565b63ffffffff8616815260006020868184015260a06040840152613c4060a08401876136ab565b60608401869052838103608085015284518082528286019183019060005b81811015613c835783516001600160801b031683529284019291840191600101613c5e565b50909a9950505050505050505050565b634e487b7160e01b600052603260045260246000fd5b60008235603e19833603018112613cbf57600080fd5b9190910192915050565b6000808335601e19843603018112613ce057600080fd5b8301803591506001600160401b03821115613cfa57600080fd5b602001915036819003821315611d7b57600080fd5b8183823760009101908152919050565b600063ffffffff8089168352808816602084015286604084015280861660608401525083608083015260c060a0830152613d5c60c08301846136ab565b98975050505050505050565b600060208284031215613d7a57600080fd5b81516113a281613822565b600060608284031215613d9757600080fd5b604051606081018181106001600160401b0382111715613db957613db9613261565b604052825160068110613dcb57600080fd5b81526020830151613ddb81613822565b60208201526040830151613dee81613822565b60408201529392505050565b63ffffffff851681526001600160a01b0384166020820152608060408201819052600090613e2a908301856136ab565b82810360608401526129c581856136ab565b600181811c90821680613e5057607f821691505b60208210810361222357634e487b7160e01b600052602260045260246000fd5b634e487b7160e01b600052601160045260246000fd5b80820180821115611cb357611cb3613e70565b8082028115828204841417611cb357611cb3613e70565b634e487b7160e01b600052602160045260246000fd5b600060018201613ed857613ed8613e70565b5060010190565b81810381811115611cb357611cb3613e70565b601f82111561254057600081815260208120601f850160051c81016020861015613f195750805b601f850160051c820191505b818110156120a857828155600101613f25565b81516001600160401b03811115613f5157613f51613261565b613f6581613f5f8454613e3c565b84613ef2565b602080601f831160018114613f9a5760008415613f825750858301515b600019600386901b1c1916600185901b1785556120a8565b600085815260208120601f198616915b82811015613fc957888601518255948401946001909101908401613faa565b5085821015613fe75787850151600019600388901b60f8161c191681555b5050505050600190811b01905550565b6020808252602e908201527f496e697469616c697a61626c653a20636f6e747261637420697320616c72656160408201526d191e481a5b9a5d1a585b1a5e995960921b606082015260800190565b6020808252602b908201527f496e697469616c697a61626c653a20636f6e7472616374206973206e6f74206960408201526a6e697469616c697a696e6760a81b606082015260800190565b6000826140ad57634e487b7160e01b600052601260045260246000fd5b50049056fea2646970667358221220f28918c99354ca5da6f3a15221ff400e574f1d25899294bfc1a7b66c5aef250964736f6c63430008110033",
    "linkReferences": {}
  },
  "methodIdentifiers": {
    "agentManager()": "7622f78d",
    "destination()": "b269681d",
    "getGuardReport(uint256)": "c495912b",
    "getReportsAmount()": "756ed01d",
    "getStoredSignature(uint256)": "ddeffa66",
    "initialize(address,address,address,address)": "f8c8765e",
    "localDomain()": "8d3638f4",
    "multicall((bool,bytes)[])": "60fc8466",
    "origin()": "938b5f32",
    "owner()": "8da5cb5b",
    "passReceipt(uint32,uint32,uint256,bytes)": "6b47b3bc",
    "renounceOwnership()": "715018a6",
    "submitReceipt(bytes,bytes,uint256,bytes32,bytes32)": "b2a4b455",
    "submitReceiptReport(bytes,bytes,bytes)": "89246503",
    "submitSnapshot(bytes,bytes)": "4bb73ea5",
    "submitStateReportWithAttestation(uint256,bytes,bytes,bytes,bytes)": "0b6b985c",
    "submitStateReportWithSnapshot(uint256,bytes,bytes,bytes)": "62389709",
    "submitStateReportWithSnapshotProof(uint256,bytes,bytes,bytes32[],bytes,bytes)": "0db27e77",
    "summit()": "9fbcb9cb",
    "transferOwnership(address)": "f2fde38b",
    "verifyAttestation(bytes,bytes)": "0ca77473",
    "verifyAttestationReport(bytes,bytes)": "31e8df5a",
    "verifyReceipt(bytes,bytes)": "c25aa585",
    "verifyReceiptReport(bytes,bytes)": "91af2e5d",
    "verifyStateReport(bytes,bytes)": "dfe39675",
    "verifyStateWithAttestation(uint256,bytes,bytes,bytes)": "200f6b66",
    "verifyStateWithSnapshot(uint256,bytes,bytes)": "213a6ddb",
    "verifyStateWithSnapshotProof(uint256,bytes,bytes32[],bytes,bytes)": "7be8e738",
    "version()": "54fd4d50"
  },
  "id": 27
}