{
  "abi": [
    {
      "inputs": [
        {
          "internalType": "uint32",
          "name": "domain",
          "type": "uint32"
        }
      ],
      "stateMutability": "nonpayable",
      "type": "constructor"
    },
    {
      "inputs": [],
      "name": "AgentNotActive",
      "type": "error"
    },
    {
      "inputs": [],
      "name": "AgentNotActiveNorUnstaking",
      "type": "error"
    },
    {
      "inputs": [],
      "name": "AgentNotGuard",
      "type": "error"
    },
    {
      "inputs": [],
      "name": "AgentNotNotary",
      "type": "error"
    },
    {
      "inputs": [],
      "name": "AgentUnknown",
      "type": "error"
    },
    {
      "inputs": [],
      "name": "IncorrectAgentDomain",
      "type": "error"
    },
    {
      "inputs": [],
      "name": "IncorrectDataHash",
      "type": "error"
    },
    {
      "inputs": [],
      "name": "IncorrectSnapshotProof",
      "type": "error"
    },
    {
      "inputs": [],
      "name": "IncorrectSnapshotRoot",
      "type": "error"
    },
    {
      "inputs": [],
      "name": "IncorrectVersionLength",
      "type": "error"
    },
    {
      "inputs": [],
      "name": "IndexOutOfRange",
      "type": "error"
    },
    {
      "inputs": [],
      "name": "IndexedTooMuch",
      "type": "error"
    },
    {
      "inputs": [],
      "name": "OccupiedMemory",
      "type": "error"
    },
    {
      "inputs": [],
      "name": "PrecompileOutOfGas",
      "type": "error"
    },
    {
      "inputs": [],
      "name": "SynapseDomainForbidden",
      "type": "error"
    },
    {
      "inputs": [],
      "name": "TreeHeightTooLow",
      "type": "error"
    },
    {
      "inputs": [],
      "name": "UnallocatedMemory",
      "type": "error"
    },
    {
      "inputs": [],
      "name": "UnformattedAttestation",
      "type": "error"
    },
    {
      "inputs": [],
      "name": "UnformattedReceipt",
      "type": "error"
    },
    {
      "inputs": [],
      "name": "UnformattedSnapshot",
      "type": "error"
    },
    {
      "inputs": [],
      "name": "UnformattedState",
      "type": "error"
    },
    {
      "inputs": [],
      "name": "ViewOverrun",
      "type": "error"
    },
    {
      "anonymous": false,
      "inputs": [
        {
          "indexed": false,
          "internalType": "uint32",
          "name": "domain",
          "type": "uint32"
        },
        {
          "indexed": false,
          "internalType": "address",
          "name": "notary",
          "type": "address"
        },
        {
          "indexed": false,
          "internalType": "bytes",
          "name": "attPayload",
          "type": "bytes"
        },
        {
          "indexed": false,
          "internalType": "bytes",
          "name": "attSignature",
          "type": "bytes"
        }
      ],
      "name": "AttestationAccepted",
      "type": "event"
    },
    {
      "anonymous": false,
      "inputs": [
        {
          "indexed": false,
          "internalType": "uint8",
          "name": "version",
          "type": "uint8"
        }
      ],
      "name": "Initialized",
      "type": "event"
    },
    {
      "anonymous": false,
      "inputs": [
        {
          "indexed": false,
          "internalType": "bytes",
          "name": "rcptPayload",
          "type": "bytes"
        },
        {
          "indexed": false,
          "internalType": "bytes",
          "name": "rcptSignature",
          "type": "bytes"
        }
      ],
      "name": "InvalidReceipt",
      "type": "event"
    },
    {
      "anonymous": false,
      "inputs": [
        {
          "indexed": false,
          "internalType": "bytes",
          "name": "rrPayload",
          "type": "bytes"
        },
        {
          "indexed": false,
          "internalType": "bytes",
          "name": "rrSignature",
          "type": "bytes"
        }
      ],
      "name": "InvalidReceiptReport",
      "type": "event"
    },
    {
      "anonymous": false,
      "inputs": [
        {
          "indexed": false,
          "internalType": "bytes",
          "name": "srPayload",
          "type": "bytes"
        },
        {
          "indexed": false,
          "internalType": "bytes",
          "name": "srSignature",
          "type": "bytes"
        }
      ],
      "name": "InvalidStateReport",
      "type": "event"
    },
    {
      "anonymous": false,
      "inputs": [
        {
          "indexed": false,
          "internalType": "uint256",
          "name": "stateIndex",
          "type": "uint256"
        },
        {
          "indexed": false,
          "internalType": "bytes",
          "name": "statePayload",
          "type": "bytes"
        },
        {
          "indexed": false,
          "internalType": "bytes",
          "name": "attPayload",
          "type": "bytes"
        },
        {
          "indexed": false,
          "internalType": "bytes",
          "name": "attSignature",
          "type": "bytes"
        }
      ],
      "name": "InvalidStateWithAttestation",
      "type": "event"
    },
    {
      "anonymous": false,
      "inputs": [
        {
          "indexed": false,
          "internalType": "uint256",
          "name": "stateIndex",
          "type": "uint256"
        },
        {
          "indexed": false,
          "internalType": "bytes",
          "name": "snapPayload",
          "type": "bytes"
        },
        {
          "indexed": false,
          "internalType": "bytes",
          "name": "snapSignature",
          "type": "bytes"
        }
      ],
      "name": "InvalidStateWithSnapshot",
      "type": "event"
    },
    {
      "anonymous": false,
      "inputs": [
        {
          "indexed": true,
          "internalType": "address",
          "name": "previousOwner",
          "type": "address"
        },
        {
          "indexed": true,
          "internalType": "address",
          "name": "newOwner",
          "type": "address"
        }
      ],
      "name": "OwnershipTransferred",
      "type": "event"
    },
    {
      "inputs": [],
      "name": "agentManager",
      "outputs": [
        {
          "internalType": "address",
          "name": "",
          "type": "address"
        }
      ],
      "stateMutability": "view",
      "type": "function"
    },
    {
      "inputs": [],
      "name": "destination",
      "outputs": [
        {
          "internalType": "address",
          "name": "",
          "type": "address"
        }
      ],
      "stateMutability": "view",
      "type": "function"
    },
    {
      "inputs": [
        {
          "internalType": "uint256",
          "name": "index",
          "type": "uint256"
        }
      ],
      "name": "getGuardReport",
      "outputs": [
        {
          "internalType": "bytes",
          "name": "statementPayload",
          "type": "bytes"
        },
        {
          "internalType": "bytes",
          "name": "reportSignature",
          "type": "bytes"
        }
      ],
      "stateMutability": "view",
      "type": "function"
    },
    {
      "inputs": [],
      "name": "getReportsAmount",
      "outputs": [
        {
          "internalType": "uint256",
          "name": "",
          "type": "uint256"
        }
      ],
      "stateMutability": "view",
      "type": "function"
    },
    {
      "inputs": [
        {
          "internalType": "uint256",
          "name": "index",
          "type": "uint256"
        }
      ],
      "name": "getStoredSignature",
      "outputs": [
        {
          "internalType": "bytes",
          "name": "",
          "type": "bytes"
        }
      ],
      "stateMutability": "view",
      "type": "function"
    },
    {
      "inputs": [
        {
          "internalType": "address",
          "name": "agentManager_",
          "type": "address"
        },
        {
          "internalType": "address",
          "name": "origin_",
          "type": "address"
        },
        {
          "internalType": "address",
          "name": "destination_",
          "type": "address"
        }
      ],
      "name": "initialize",
      "outputs": [],
      "stateMutability": "nonpayable",
      "type": "function"
    },
    {
      "inputs": [],
      "name": "localDomain",
      "outputs": [
        {
          "internalType": "uint32",
          "name": "",
          "type": "uint32"
        }
      ],
      "stateMutability": "view",
      "type": "function"
    },
    {
      "inputs": [
        {
          "components": [
            {
              "internalType": "bool",
              "name": "allowFailure",
              "type": "bool"
            },
            {
              "internalType": "bytes",
              "name": "callData",
              "type": "bytes"
            }
          ],
          "internalType": "struct MultiCallable.Call[]",
          "name": "calls",
          "type": "tuple[]"
        }
      ],
      "name": "multicall",
      "outputs": [
        {
          "components": [
            {
              "internalType": "bool",
              "name": "success",
              "type": "bool"
            },
            {
              "internalType": "bytes",
              "name": "returnData",
              "type": "bytes"
            }
          ],
          "internalType": "struct MultiCallable.Result[]",
          "name": "callResults",
          "type": "tuple[]"
        }
      ],
      "stateMutability": "nonpayable",
      "type": "function"
    },
    {
      "inputs": [],
      "name": "origin",
      "outputs": [
        {
          "internalType": "address",
          "name": "",
          "type": "address"
        }
      ],
      "stateMutability": "view",
      "type": "function"
    },
    {
      "inputs": [],
      "name": "owner",
      "outputs": [
        {
          "internalType": "address",
          "name": "",
          "type": "address"
        }
      ],
      "stateMutability": "view",
      "type": "function"
    },
    {
      "inputs": [],
      "name": "renounceOwnership",
      "outputs": [],
      "stateMutability": "nonpayable",
      "type": "function"
    },
    {
      "inputs": [
        {
          "internalType": "bytes",
          "name": "attPayload",
          "type": "bytes"
        },
        {
          "internalType": "bytes",
          "name": "attSignature",
          "type": "bytes"
        },
        {
          "internalType": "bytes32",
          "name": "agentRoot_",
          "type": "bytes32"
        },
        {
          "internalType": "uint256[]",
          "name": "snapGas_",
          "type": "uint256[]"
        }
      ],
      "name": "submitAttestation",
      "outputs": [
        {
          "internalType": "bool",
          "name": "wasAccepted",
          "type": "bool"
        }
      ],
      "stateMutability": "nonpayable",
      "type": "function"
    },
    {
      "inputs": [
        {
          "internalType": "bytes",
          "name": "attPayload",
          "type": "bytes"
        },
        {
          "internalType": "bytes",
          "name": "arSignature",
          "type": "bytes"
        },
        {
          "internalType": "bytes",
          "name": "attSignature",
          "type": "bytes"
        }
      ],
      "name": "submitAttestationReport",
      "outputs": [
        {
          "internalType": "bool",
          "name": "wasAccepted",
          "type": "bool"
        }
      ],
      "stateMutability": "nonpayable",
      "type": "function"
    },
    {
      "inputs": [
        {
          "internalType": "uint256",
          "name": "stateIndex",
          "type": "uint256"
        },
        {
          "internalType": "bytes",
          "name": "srSignature",
          "type": "bytes"
        },
        {
          "internalType": "bytes",
          "name": "snapPayload",
          "type": "bytes"
        },
        {
          "internalType": "bytes",
          "name": "attPayload",
          "type": "bytes"
        },
        {
          "internalType": "bytes",
          "name": "attSignature",
          "type": "bytes"
        }
      ],
      "name": "submitStateReportWithAttestation",
      "outputs": [
        {
          "internalType": "bool",
          "name": "wasAccepted",
          "type": "bool"
        }
      ],
      "stateMutability": "nonpayable",
      "type": "function"
    },
    {
      "inputs": [
        {
          "internalType": "uint256",
          "name": "stateIndex",
          "type": "uint256"
        },
        {
          "internalType": "bytes",
          "name": "srSignature",
          "type": "bytes"
        },
        {
          "internalType": "bytes",
          "name": "snapPayload",
          "type": "bytes"
        },
        {
          "internalType": "bytes",
          "name": "snapSignature",
          "type": "bytes"
        }
      ],
      "name": "submitStateReportWithSnapshot",
      "outputs": [
        {
          "internalType": "bool",
          "name": "wasAccepted",
          "type": "bool"
        }
      ],
      "stateMutability": "nonpayable",
      "type": "function"
    },
    {
      "inputs": [
        {
          "internalType": "uint256",
          "name": "stateIndex",
          "type": "uint256"
        },
        {
          "internalType": "bytes",
          "name": "statePayload",
          "type": "bytes"
        },
        {
          "internalType": "bytes",
          "name": "srSignature",
          "type": "bytes"
        },
        {
          "internalType": "bytes32[]",
          "name": "snapProof",
          "type": "bytes32[]"
        },
        {
          "internalType": "bytes",
          "name": "attPayload",
          "type": "bytes"
        },
        {
          "internalType": "bytes",
          "name": "attSignature",
          "type": "bytes"
        }
      ],
      "name": "submitStateReportWithSnapshotProof",
      "outputs": [
        {
          "internalType": "bool",
          "name": "wasAccepted",
          "type": "bool"
        }
      ],
      "stateMutability": "nonpayable",
      "type": "function"
    },
    {
      "inputs": [
        {
          "internalType": "address",
          "name": "newOwner",
          "type": "address"
        }
      ],
      "name": "transferOwnership",
      "outputs": [],
      "stateMutability": "nonpayable",
      "type": "function"
    },
    {
      "inputs": [
        {
          "internalType": "bytes",
          "name": "rcptPayload",
          "type": "bytes"
        },
        {
          "internalType": "bytes",
          "name": "rcptSignature",
          "type": "bytes"
        }
      ],
      "name": "verifyReceipt",
      "outputs": [
        {
          "internalType": "bool",
          "name": "isValidReceipt",
          "type": "bool"
        }
      ],
      "stateMutability": "nonpayable",
      "type": "function"
    },
    {
      "inputs": [
        {
          "internalType": "bytes",
          "name": "rcptPayload",
          "type": "bytes"
        },
        {
          "internalType": "bytes",
          "name": "rrSignature",
          "type": "bytes"
        }
      ],
      "name": "verifyReceiptReport",
      "outputs": [
        {
          "internalType": "bool",
          "name": "isValidReport",
          "type": "bool"
        }
      ],
      "stateMutability": "nonpayable",
      "type": "function"
    },
    {
      "inputs": [
        {
          "internalType": "bytes",
          "name": "statePayload",
          "type": "bytes"
        },
        {
          "internalType": "bytes",
          "name": "srSignature",
          "type": "bytes"
        }
      ],
      "name": "verifyStateReport",
      "outputs": [
        {
          "internalType": "bool",
          "name": "isValidReport",
          "type": "bool"
        }
      ],
      "stateMutability": "nonpayable",
      "type": "function"
    },
    {
      "inputs": [
        {
          "internalType": "uint256",
          "name": "stateIndex",
          "type": "uint256"
        },
        {
          "internalType": "bytes",
          "name": "snapPayload",
          "type": "bytes"
        },
        {
          "internalType": "bytes",
          "name": "attPayload",
          "type": "bytes"
        },
        {
          "internalType": "bytes",
          "name": "attSignature",
          "type": "bytes"
        }
      ],
      "name": "verifyStateWithAttestation",
      "outputs": [
        {
          "internalType": "bool",
          "name": "isValidState",
          "type": "bool"
        }
      ],
      "stateMutability": "nonpayable",
      "type": "function"
    },
    {
      "inputs": [
        {
          "internalType": "uint256",
          "name": "stateIndex",
          "type": "uint256"
        },
        {
          "internalType": "bytes",
          "name": "snapPayload",
          "type": "bytes"
        },
        {
          "internalType": "bytes",
          "name": "snapSignature",
          "type": "bytes"
        }
      ],
      "name": "verifyStateWithSnapshot",
      "outputs": [
        {
          "internalType": "bool",
          "name": "isValidState",
          "type": "bool"
        }
      ],
      "stateMutability": "nonpayable",
      "type": "function"
    },
    {
      "inputs": [
        {
          "internalType": "uint256",
          "name": "stateIndex",
          "type": "uint256"
        },
        {
          "internalType": "bytes",
          "name": "statePayload",
          "type": "bytes"
        },
        {
          "internalType": "bytes32[]",
          "name": "snapProof",
          "type": "bytes32[]"
        },
        {
          "internalType": "bytes",
          "name": "attPayload",
          "type": "bytes"
        },
        {
          "internalType": "bytes",
          "name": "attSignature",
          "type": "bytes"
        }
      ],
      "name": "verifyStateWithSnapshotProof",
      "outputs": [
        {
          "internalType": "bool",
          "name": "isValidState",
          "type": "bool"
        }
      ],
      "stateMutability": "nonpayable",
      "type": "function"
    },
    {
      "inputs": [],
      "name": "version",
      "outputs": [
        {
          "internalType": "string",
          "name": "versionString",
          "type": "string"
        }
      ],
      "stateMutability": "view",
      "type": "function"
    }
  ],
  "bytecode": {
    "object": "0x60e06040523480156200001157600080fd5b506040516200377a3803806200377a83398101604081905262000034916200009e565b60408051808201909152600580825264302e302e3360d81b602083015260805281816200006181620000cd565b60a0525063ffffffff90811660c052821661038419019050620000975760405163079597d560e51b815260040160405180910390fd5b50620000f5565b600060208284031215620000b157600080fd5b815163ffffffff81168114620000c657600080fd5b9392505050565b80516020808301519190811015620000ef576000198160200360031b1b821691505b50919050565b60805160a05160c05161364762000133600039600081816102d60152818161172a0152611761015260006101ed015260006101ca01526136476000f3fe608060405234801561001057600080fd5b50600436106101585760003560e01c80637be8e738116100c3578063c0c53b8b1161007c578063c0c53b8b14610357578063c25aa5851461036a578063c495912b1461037d578063ddeffa661461039e578063dfe39675146103b1578063f2fde38b146103c457600080fd5b80637be8e738146102be5780638d3638f4146102d15780638da5cb5b1461030d57806391af2e5d1461031e578063938b5f3214610331578063b269681d1461034457600080fd5b80636238970911610115578063623897091461023f5780636c38f72314610252578063715018a614610265578063756ed01d1461026f5780637622f78d1461028057806377ec5c10146102ab57600080fd5b80630b6b985c1461015d5780630db27e7714610185578063200f6b6614610198578063213a6ddb146101ab57806354fd4d50146101be57806360fc84661461021f575b600080fd5b61017061016b366004612a08565b6103d7565b60405190151581526020015b60405180910390f35b610170610193366004612b4c565b610509565b6101706101a6366004612c25565b610577565b6101706101b9366004612cb6565b61071e565b604080518082019091527f000000000000000000000000000000000000000000000000000000000000000081527f000000000000000000000000000000000000000000000000000000000000000060208201525b60405161017c9190612d68565b61023261022d366004612d7b565b61087c565b60405161017c9190612def565b61017061024d366004612c25565b6109cd565b610170610260366004612e65565b610abf565b61026d610c14565b005b609b5460405190815260200161017c565b609754610293906001600160a01b031681565b6040516001600160a01b03909116815260200161017c565b6101706102b9366004612f4a565b610c75565b6101706102cc366004612f98565b610d4d565b6102f87f000000000000000000000000000000000000000000000000000000000000000081565b60405163ffffffff909116815260200161017c565b6033546001600160a01b0316610293565b61017061032c366004612ffc565b610eba565b609854610293906001600160a01b031681565b609954610293906001600160a01b031681565b61026d610365366004613076565b611006565b610170610378366004612ffc565b611081565b61039061038b3660046130b9565b611152565b60405161017c9291906130d2565b6102126103ac3660046130b9565b6112fe565b6101706103bf366004612ffc565b6113ad565b61026d6103d23660046130f7565b61147f565b6000806103e38561154a565b905060006103f18289611563565b905060006103ff82896115d1565b50905061040b81611635565b600061041687611668565b90506000610424828861167b565b509050610430816116d4565b61043d8160200151611728565b610446826117aa565b61044f866117bb565b1461046d576040516312a37cf560e11b815260040160405180910390fd5b61048461047e85611893565b611893565b8b6118c9565b609754604084810151838201519151632885570d60e21b815263ffffffff9182166004820152911660248201526001600160a01b039091169063a2155c3490604401600060405180830381600087803b1580156104e057600080fd5b505af11580156104f4573d6000803e3d6000fd5b5060019e9d5050505050505050505050505050565b60008061051587611963565b9050600061052382886115d1565b50905061052f81611635565b600061053a86611668565b90506000610548828761167b565b509050610554816116d4565b6105618160200151611728565b61056d828c868b611971565b6104848a8a6118c9565b60008061058384611668565b9050600080610592838661167b565b9150915061059f826116d4565b60006105aa8861154a565b90506105b5846117aa565b6105be826117bb565b146105dc576040516312a37cf560e11b815260040160405180910390fd5b60006105f16104796105ee848d611563565b90565b60985460405163a9dcf22d60e01b81529192506001600160a01b03169063a9dcf22d90610622908490600401612d68565b602060405180830381865afa15801561063f573d6000803e3d6000fd5b505050506040513d601f19601f820116820180604052508101906106639190613112565b955085610711577f541491c63a99c21d0612ba7b3c4d90f7662f54a123363e65fae5c51e34e8a4928a828a8a60405161069f9493929190613134565b60405180910390a16097546020850151604051631429d07360e11b81526001600160a01b0390921691632853a0e6916106de9187903390600401613173565b600060405180830381600087803b1580156106f857600080fd5b505af115801561070c573d6000803e3d6000fd5b505050505b5050505050949350505050565b60008061072a8461154a565b905060008061073b83866000611a01565b91509150610748826116d4565b6098546001600160a01b031663a9dcf22d6107696104796105ee878c611563565b6040518263ffffffff1660e01b81526004016107859190612d68565b602060405180830381865afa1580156107a2573d6000803e3d6000fd5b505050506040513d601f19601f820116820180604052508101906107c69190613112565b935083610872577f8ec8481d2e38a1ffe2c6ec35459332dc9e6248b1219d287dfa4143a68a75bbd18787876040516108009392919061319a565b60405180910390a16097546020830151604051631429d07360e11b81526001600160a01b0390921691632853a0e69161083f9185903390600401613173565b600060405180830381600087803b15801561085957600080fd5b505af115801561086d573d6000803e3d6000fd5b505050505b5050509392505050565b606081806001600160401b0381111561089757610897612953565b6040519080825280602002602001820160405280156108dd57816020015b6040805180820190915260008152606060208201528152602001906001900390816108b55790505b5091503660005b828110156109c4578585828181106108fe576108fe6131cf565b905060200281019061091091906131e5565b91506000848281518110610926576109266131cf565b60200260200101519050306001600160a01b031683806020019061094a9190613205565b60405161095892919061324b565b600060405180830381855af49150503d8060008114610993576040519150601f19603f3d011682016040523d82523d6000602084013e610998565b606091505b50602083015215158082528335176109bb576309ad446560e31b60005260046000fd5b506001016108e4565b50505092915050565b6000806109d98461154a565b905060006109e982856001611a01565b5090506109f5816116d4565b610a028160200151611728565b6000610a0e8389611563565b90506000610a1c82896115d1565b509050610a2881611635565b610a3a610a3483611893565b896118c9565b609754604082810151858201519151632885570d60e21b815263ffffffff9182166004820152911660248201526001600160a01b039091169063a2155c3490604401600060405180830381600087803b158015610a9657600080fd5b505af1158015610aaa573d6000803e3d6000fd5b5050505060019450505050505b949350505050565b600080610acb86611668565b9050600080610ada838861167b565b91509150610ae782611635565b610af48260200151611728565b845160051b60208601208590610b0b908890611a70565b610b1485611aa6565b14610b325760405163184fb2df60e01b815260040160405180910390fd5b6000610b3d89611ab4565b6099546040808701519051631cff139b60e11b81529293506001600160a01b03909116916339fe273691610b7b9185908f908e90899060040161325b565b6020604051808303816000875af1158015610b9a573d6000803e3d6000fd5b505050506040513d601f19601f82011682018060405250810190610bbe9190613112565b95508515610711577f5fb28b72a4ff089027990125e187d936f30d65013d66fac1e54e0625f7ea00658460200151848c8c604051610bff94939291906132d4565b60405180910390a15050505050949350505050565b6033546001600160a01b03163314610c735760405162461bcd60e51b815260206004820181905260248201527f4f776e61626c653a2063616c6c6572206973206e6f7420746865206f776e657260448201526064015b60405180910390fd5b565b600080610c8185611668565b90506000610c8f8286611af7565b509050610c9b81611635565b6000610ca7838661167b565b509050610cb3816116d4565b610cc08160200151611728565b610cca87876118c9565b609754604083810151838201519151632885570d60e21b815263ffffffff9182166004820152911660248201526001600160a01b039091169063a2155c3490604401600060405180830381600087803b158015610d2657600080fd5b505af1158015610d3a573d6000803e3d6000fd5b50505050600193505050505b9392505050565b600080610d5984611668565b9050600080610d68838661167b565b91509150610d75826116d4565b6000610d8089611963565b9050610d8e848b838b611971565b60985460405163a9dcf22d60e01b81526001600160a01b039091169063a9dcf22d90610dbe908c90600401612d68565b602060405180830381865afa158015610ddb573d6000803e3d6000fd5b505050506040513d601f19601f82011682018060405250810190610dff9190613112565b945084610ead577f541491c63a99c21d0612ba7b3c4d90f7662f54a123363e65fae5c51e34e8a4928a8a8989604051610e3b9493929190613134565b60405180910390a16097546020840151604051631429d07360e11b81526001600160a01b0390921691632853a0e691610e7a9186903390600401613173565b600060405180830381600087803b158015610e9457600080fd5b505af1158015610ea8573d6000803e3d6000fd5b505050505b5050505095945050505050565b600080610ec684611b20565b9050600080610ed58386611b33565b91509150610ee2826116d4565b60995460405163e2f006f760e01b81526001600160a01b039091169063e2f006f790610f12908990600401612d68565b602060405180830381865afa158015610f2f573d6000803e3d6000fd5b505050506040513d601f19601f82011682018060405250810190610f539190613112565b159350836109c4577fa0cb383b7028fbeae86e018eb9fe765c15c869483a584edbb95bf550934465878686604051610f8c9291906130d2565b60405180910390a16097546020830151604051631429d07360e11b81526001600160a01b0390921691632853a0e691610fcb9185903390600401613173565b600060405180830381600087803b158015610fe557600080fd5b505af1158015610ff9573d6000803e3d6000fd5b5050505050505092915050565b60006110126001611b5c565b9050801561102a576000805461ff0019166101001790555b611035848484611be9565b801561107b576000805461ff0019169055604051600181527f7f26b83ff96e1f2b6a682f133852f6798a09c465da95921460cefb38474024989060200160405180910390a15b50505050565b60008061108d84611b20565b905060008061109c8386611c5a565b915091506110a9826116d4565b60995460405163e2f006f760e01b81526001600160a01b039091169063e2f006f7906110d9908990600401612d68565b602060405180830381865afa1580156110f6573d6000803e3d6000fd5b505050506040513d601f19601f8201168201806040525081019061111a9190613112565b9350836109c4577f4d4c3a87f0d5fbcea3c51d5baa727fceedb200dd7c9287f7ef85b60b794d6a8d8686604051610f8c9291906130d2565b609b546060908190831061117957604051631390f2a160e01b815260040160405180910390fd5b6000609b848154811061118e5761118e6131cf565b9060005260206000209060020201604051806040016040529081600082015481526020016001820180546111c190613316565b80601f01602080910402602001604051908101604052809291908181526020018280546111ed90613316565b801561123a5780601f1061120f5761010080835404028352916020019161123a565b820191906000526020600020905b81548152906001019060200180831161121d57829003601f168201915b505050505081525050905080602001519250609a816000015181548110611263576112636131cf565b90600052602060002001805461127890613316565b80601f01602080910402602001604051908101604052809291908181526020018280546112a490613316565b80156112f15780601f106112c6576101008083540402835291602001916112f1565b820191906000526020600020905b8154815290600101906020018083116112d457829003601f168201915b5050505050915050915091565b6060609a8281548110611313576113136131cf565b90600052602060002001805461132890613316565b80601f016020809104026020016040519081016040528092919081815260200182805461135490613316565b80156113a15780601f10611376576101008083540402835291602001916113a1565b820191906000526020600020905b81548152906001019060200180831161138457829003601f168201915b50505050509050919050565b6000806113b984611963565b90506000806113c883866115d1565b915091506113d5826116d4565b60985460405163a9dcf22d60e01b81526001600160a01b039091169063a9dcf22d90611405908990600401612d68565b602060405180830381865afa158015611422573d6000803e3d6000fd5b505050506040513d601f19601f820116820180604052508101906114469190613112565b159350836109c4577f9b0db5e74572fe0188dcef5afafe498161864c5706c3003c98ee506ae5c0282d8686604051610f8c9291906130d2565b6033546001600160a01b031633146114d95760405162461bcd60e51b815260206004820181905260248201527f4f776e61626c653a2063616c6c6572206973206e6f7420746865206f776e65726044820152606401610c6a565b6001600160a01b03811661153e5760405162461bcd60e51b815260206004820152602660248201527f4f776e61626c653a206e6577206f776e657220697320746865207a65726f206160448201526564647265737360d01b6064820152608401610c6a565b61154781611c83565b50565b600061155d61155883611cd5565b611ce8565b92915050565b60008281611573600c6032613360565b61157d9085613373565b90506001600160801b03821681106115a857604051631390f2a160e01b815260040160405180910390fd5b6115c86115c3826115bb600c6032613360565b859190611d14565b611d6c565b95945050505050565b60408051606081018252600080825260208201819052918101829052906116006115fa85611d94565b84611dc2565b6020820151919350915063ffffffff161561162e576040516370488f8b60e01b815260040160405180910390fd5b9250929050565b60018151600581111561164a5761164a61338a565b1461154757604051632437e77160e11b815260040160405180910390fd5b600061155d61167683611cd5565b611ec8565b60408051606081018252600080825260208201819052918101829052906116a46115fa85611ef0565b6020820151919350915063ffffffff1660000361162e576040516354cc70e560e11b815260040160405180910390fd5b6001815160058111156116e9576116e961338a565b1415801561170a57506002815160058111156117075761170761338a565b14155b156115475760405163ec3d0d8560e01b815260040160405180910390fd5b7f000000000000000000000000000000000000000000000000000000000000000063ffffffff168163ffffffff161415801561178c57507f000000000000000000000000000000000000000000000000000000000000000063ffffffff1661038514155b1561154757604051630b09697760e11b815260040160405180910390fd5b600061155d816020845b9190611f1c565b6000806117c783611fb1565b90506000816001600160401b038111156117e3576117e3612953565b60405190808252806020026020018201604052801561180c578160200160208202803683370190505b50905060005b828110156118595761182c6118278683611563565b611fd2565b82828151811061183e5761183e6131cf565b6020908102919091010152611852816133a0565b9050611812565b5061186f8161186a600160066133b9565b612011565b80600081518110611882576118826131cf565b602002602001015192505050919050565b604051806118a483602083016120e5565b506001600160801b0383166000601f8201601f19168301602001604052509052919050565b60006118d482611ab4565b6040805180820190915281815260208101858152609b8054600181018255600091909152825160029091027fbba9db4cdbea0a37c207bbb83e20f828cd4441c49891101dc94fd20dc8efc3498101918255915193945091927fbba9db4cdbea0a37c207bbb83e20f828cd4441c49891101dc94fd20dc8efc34a9091019061195b9082613412565b505050505050565b600061155d6115c383611cd5565b600061197c8361215a565b9150508082600081518110611993576119936131cf565b6020026020010151146119b9576040516339bbd1f360e21b815260040160405180910390fd5b60006119d76119c7856117aa565b6119d086612189565b8588612198565b9050806119e3876117aa565b1461195b576040516312a37cf560e11b815260040160405180910390fd5b6040805160608101825260008082526020820181905291810182905290611a30611a2a866121db565b85611dc2565b9092509050828015611a4a5750602082015163ffffffff16155b15611a68576040516354cc70e560e11b815260040160405180910390fd5b935093915050565b60408051602081018490529081018290526000906060015b60405160208183030381529060405280519060200120905092915050565b600061155d602080846117b4565b609a80546001810182556000919091527f44da158ba27f9252712a74ff6a55c5d531f69609f1f6e7f17c4443a8e2089be48101611af18382613412565b50919050565b60408051606081018252600080825260208201819052918101829052906116006115fa85612207565b600061155d611b2e83611cd5565b612233565b60408051606081018252600080825260208201819052918101829052906116006115fa8561225b565b60008054610100900460ff1615611ba3578160ff166001148015611b7f5750303b155b611b9b5760405162461bcd60e51b8152600401610c6a906134d1565b506000919050565b60005460ff808416911610611bca5760405162461bcd60e51b8152600401610c6a906134d1565b506000805460ff191660ff92909216919091179055600190565b919050565b600054610100900460ff16611c105760405162461bcd60e51b8152600401610c6a9061351f565b609780546001600160a01b038086166001600160a01b031992831617909255609880548584169083161790556099805492841692909116919091179055611c55612287565b505050565b60408051606081018252600080825260208201819052918101829052906116a46115fa856122b6565b603380546001600160a01b038381166001600160a01b0319831681179093556040519116919082907f8be0079c531659141344cd1fd0a4f28419497f9722a3daafe3b4186f6b6457e090600090a35050565b805160009060208301610ab781836122e2565b6000611cf38261232c565b611d1057604051635cb1e1ad60e11b815260040160405180910390fd5b5090565b600080611d218560801c90565b9050611d2c85612379565b83611d378684613360565b611d419190613360565b1115611d605760405163a3b99ded60e01b815260040160405180910390fd5b6115c8848201846122e2565b6000611d7782612396565b611d1057604051631ae8107160e21b815260040160405180910390fd5b600061155d7f43713cd927f8eb63b519f3b180bd5f3708ebbe93666be9ba4b9624b7bc57e663835b906123b6565b6040805160608101825260008082526020820181905291810191909152600080611e39856040517f19457468657265756d205369676e6564204d6573736167653a0a3332000000006020820152603c8101829052600090605c01604051602081830303815290604052805190602001209050919050565b9050611e4581856123d9565b6097546040516328f3fac960e01b81526001600160a01b0380841660048301529294509116906328f3fac990602401606060405180830381865afa158015611e91573d6000803e3d6000fd5b505050506040513d601f19601f82011682018060405250810190611eb5919061357e565b9250611ec0836123fd565b509250929050565b6000611ed382612430565b611d1057604051633ae4998b60e21b815260040160405180910390fd5b600061155d7f3464bf887f210604c594030208052a323ac6628785466262d75241769120164183611dbc565b600081600003611f2e57506000610d46565b6020821115611f505760405163063af09560e31b815260040160405180910390fd5b6001600160801b038416611f648385613360565b1115611f835760405163a3b99ded60e01b815260040160405180910390fd5b600382901b6000611f948660801c90565b90940151600160ff1b600019929092019190911d16949350505050565b6000611fbf600c6032613360565b61155d906001600160801b0384166135ef565b6000806000611fe08461215a565b6040805160208082019490945280820192909252805180830382018152606090920190528051910120949350505050565b81516001821b8111156120375760405163c5360feb60e01b815260040160405180910390fd5b60005b8281101561107b5760005b828110156120d65760008160010190506000868381518110612069576120696131cf565b60200260200101519050600085831061208357600061209e565b878381518110612095576120956131cf565b60200260200101515b90506120aa8282612443565b88600186901c815181106120c0576120c06131cf565b6020908102919091010152505050600201612045565b506001918201821c910161203a565b6040516000906001600160801b03841690608085901c908085101561211d576040516312ca856360e21b815260040160405180910390fd5b60008386858560045afa90508061214757604051637c7d772f60e01b815260040160405180910390fd5b608086901b84175b979650505050505050565b6000808261217161216c82602461248f565b61249c565b925061218161216c8260246124be565b915050915091565b600061155d8260206004612502565b6000600182901b604081106121c057604051631390f2a160e01b815260040160405180910390fd5b60006121cc8787612523565b905061214f828287600661254e565b600061155d7ff304ae6578b1582b0b5b512e0a7070d6f76973b1f360f99dd500082d3bc9487783611dbc565b600061155d7fccfadb9c399e4e4257b6d0c3f92e1f9a9c00b1802b55a2f7d511702faa76909083611dbc565b600061223e826125dd565b611d1057604051631dad384f60e21b815260040160405180910390fd5b600061155d7fdf42b2c0137811ba604f5c79e20c4d6b94770aa819cc524eca444056544f8ab783611dbc565b600054610100900460ff166122ae5760405162461bcd60e51b8152600401610c6a9061351f565b610c736125f0565b600061155d7fb38669e8ca41a27fcd85729b868e8ab047d0f142073a017213e58f0a91e88ef383611dbc565b6000806122ef8385613360565b90506040518111156122ff575060005b806000036123205760405163085f79c360e11b815260040160405180910390fd5b608084901b8317610ab7565b60006001600160801b03821681612345600c6032613360565b61234f90836135ef565b90508161235e600c6032613360565b6123689083613373565b148015610ab75750610ab781612620565b60006001600160801b03821661238f8360801c90565b0192915050565b60006123a4600c6032613360565b6001600160801b0383165b1492915050565b6000816123c28461249c565b604080516020810193909352820152606001611a88565b60008060006123e88585612645565b915091506123f581612687565b509392505050565b6000815160058111156124125761241261338a565b036115475760405163dc449cb760e01b815260040160405180910390fd5b6000604e6001600160801b0383166123af565b600082158015612451575081155b1561245e5750600061155d565b604080516020810185905290810183905260600160405160208183030381529060405280519060200120905061155d565b6000610d46838284611d14565b6000806124a98360801c90565b6001600160801b039390931690922092915050565b60006001600160801b038316808311156124eb5760405163a3b99ded60e01b815260040160405180910390fd5b610ab7836124f98660801c90565b018483036122e2565b600080612510858585611f1c565b602084900360031b1c9150509392505050565b60008282604051602001611a8892919091825260e01b6001600160e01b031916602082015260240190565b8151600090828111156125745760405163c5360feb60e01b815260040160405180910390fd5b84915060005b818110156125b1576125a783868381518110612598576125986131cf565b6020026020010151898461283d565b925060010161257a565b50805b838110156125d3576125c9836000898461283d565b92506001016125b4565b5050949350505050565b600060856001600160801b0383166123af565b600054610100900460ff166126175760405162461bcd60e51b8152600401610c6a9061351f565b610c7333611c83565b6000811580159061155d5750612638600160066133b9565b6001901b82111592915050565b600080825160410361267b5760208301516040840151606085015160001a61266f87828585612866565b9450945050505061162e565b5060009050600261162e565b600081600481111561269b5761269b61338a565b036126a35750565b60018160048111156126b7576126b761338a565b036127045760405162461bcd60e51b815260206004820152601860248201527f45434453413a20696e76616c6964207369676e617475726500000000000000006044820152606401610c6a565b60028160048111156127185761271861338a565b036127655760405162461bcd60e51b815260206004820152601f60248201527f45434453413a20696e76616c6964207369676e6174757265206c656e677468006044820152606401610c6a565b60038160048111156127795761277961338a565b036127d15760405162461bcd60e51b815260206004820152602260248201527f45434453413a20696e76616c6964207369676e6174757265202773272076616c604482015261756560f01b6064820152608401610c6a565b60048160048111156127e5576127e561338a565b036115475760405162461bcd60e51b815260206004820152602260248201527f45434453413a20696e76616c6964207369676e6174757265202776272076616c604482015261756560f01b6064820152608401610c6a565b6000600183831c16810361285c576128558585612443565b9050610ab7565b6128558486612443565b6000807f7fffffffffffffffffffffffffffffff5d576e7357a4501ddfe92f46681b20a083111561289d575060009050600361294a565b8460ff16601b141580156128b557508460ff16601c14155b156128c6575060009050600461294a565b6040805160008082526020820180845289905260ff881692820192909252606081018690526080810185905260019060a0016020604051602081039080840390855afa15801561291a573d6000803e3d6000fd5b5050604051601f1901519150506001600160a01b0381166129435760006001925092505061294a565b9150600090505b94509492505050565b634e487b7160e01b600052604160045260246000fd5b604051601f8201601f191681016001600160401b038111828210171561299157612991612953565b604052919050565b600082601f8301126129aa57600080fd5b81356001600160401b038111156129c3576129c3612953565b6129d6601f8201601f1916602001612969565b8181528460208386010111156129eb57600080fd5b816020850160208301376000918101602001919091529392505050565b600080600080600060a08688031215612a2057600080fd5b8535945060208601356001600160401b0380821115612a3e57600080fd5b612a4a89838a01612999565b95506040880135915080821115612a6057600080fd5b612a6c89838a01612999565b94506060880135915080821115612a8257600080fd5b612a8e89838a01612999565b93506080880135915080821115612aa457600080fd5b50612ab188828901612999565b9150509295509295909350565b60006001600160401b03821115612ad757612ad7612953565b5060051b60200190565b600082601f830112612af257600080fd5b81356020612b07612b0283612abe565b612969565b82815260059290921b84018101918181019086841115612b2657600080fd5b8286015b84811015612b415780358352918301918301612b2a565b509695505050505050565b60008060008060008060c08789031215612b6557600080fd5b8635955060208701356001600160401b0380821115612b8357600080fd5b612b8f8a838b01612999565b96506040890135915080821115612ba557600080fd5b612bb18a838b01612999565b95506060890135915080821115612bc757600080fd5b612bd38a838b01612ae1565b94506080890135915080821115612be957600080fd5b612bf58a838b01612999565b935060a0890135915080821115612c0b57600080fd5b50612c1889828a01612999565b9150509295509295509295565b60008060008060808587031215612c3b57600080fd5b8435935060208501356001600160401b0380821115612c5957600080fd5b612c6588838901612999565b94506040870135915080821115612c7b57600080fd5b612c8788838901612999565b93506060870135915080821115612c9d57600080fd5b50612caa87828801612999565b91505092959194509250565b600080600060608486031215612ccb57600080fd5b8335925060208401356001600160401b0380821115612ce957600080fd5b612cf587838801612999565b93506040860135915080821115612d0b57600080fd5b50612d1886828701612999565b9150509250925092565b6000815180845260005b81811015612d4857602081850181015186830182015201612d2c565b506000602082860101526020601f19601f83011685010191505092915050565b602081526000610d466020830184612d22565b60008060208385031215612d8e57600080fd5b82356001600160401b0380821115612da557600080fd5b818501915085601f830112612db957600080fd5b813581811115612dc857600080fd5b8660208260051b8501011115612ddd57600080fd5b60209290920196919550909350505050565b60006020808301818452808551808352604092508286019150828160051b87010184880160005b83811015612e5757888303603f190185528151805115158452870151878401879052612e4487850182612d22565b9588019593505090860190600101612e16565b509098975050505050505050565b60008060008060808587031215612e7b57600080fd5b84356001600160401b0380821115612e9257600080fd5b612e9e88838901612999565b9550602091508187013581811115612eb557600080fd5b612ec189828a01612999565b95505060408701359350606087013581811115612edd57600080fd5b87019050601f81018813612ef057600080fd5b8035612efe612b0282612abe565b81815260059190911b8201830190838101908a831115612f1d57600080fd5b928401925b82841015612f3b57833582529284019290840190612f22565b979a9699509497505050505050565b600080600060608486031215612f5f57600080fd5b83356001600160401b0380821115612f7657600080fd5b612f8287838801612999565b94506020860135915080821115612ce957600080fd5b600080600080600060a08688031215612fb057600080fd5b8535945060208601356001600160401b0380821115612fce57600080fd5b612fda89838a01612999565b95506040880135915080821115612ff057600080fd5b612a6c89838a01612ae1565b6000806040838503121561300f57600080fd5b82356001600160401b038082111561302657600080fd5b61303286838701612999565b9350602085013591508082111561304857600080fd5b5061305585828601612999565b9150509250929050565b80356001600160a01b0381168114611be457600080fd5b60008060006060848603121561308b57600080fd5b6130948461305f565b92506130a26020850161305f565b91506130b06040850161305f565b90509250925092565b6000602082840312156130cb57600080fd5b5035919050565b6040815260006130e56040830185612d22565b82810360208401526115c88185612d22565b60006020828403121561310957600080fd5b610d468261305f565b60006020828403121561312457600080fd5b81518015158114610d4657600080fd5b84815260806020820152600061314d6080830186612d22565b828103604084015261315f8186612d22565b9050828103606084015261214f8185612d22565b63ffffffff9390931683526001600160a01b03918216602084015216604082015260600190565b8381526060602082015260006131b36060830185612d22565b82810360408401526131c58185612d22565b9695505050505050565b634e487b7160e01b600052603260045260246000fd5b60008235603e198336030181126131fb57600080fd5b9190910192915050565b6000808335601e1984360301811261321c57600080fd5b8301803591506001600160401b0382111561323657600080fd5b60200191503681900382131561162e57600080fd5b8183823760009101908152919050565b63ffffffff8616815260006020868184015260a0604084015261328160a0840187612d22565b60608401869052838103608085015284518082528286019183019060005b818110156132c45783516001600160801b03168352928401929184019160010161329f565b50909a9950505050505050505050565b63ffffffff851681526001600160a01b038416602082015260806040820181905260009061330490830185612d22565b828103606084015261214f8185612d22565b600181811c9082168061332a57607f821691505b602082108103611af157634e487b7160e01b600052602260045260246000fd5b634e487b7160e01b600052601160045260246000fd5b8082018082111561155d5761155d61334a565b808202811582820484141761155d5761155d61334a565b634e487b7160e01b600052602160045260246000fd5b6000600182016133b2576133b261334a565b5060010190565b8181038181111561155d5761155d61334a565b601f821115611c5557600081815260208120601f850160051c810160208610156133f35750805b601f850160051c820191505b8181101561195b578281556001016133ff565b81516001600160401b0381111561342b5761342b612953565b61343f816134398454613316565b846133cc565b602080601f831160018114613474576000841561345c5750858301515b600019600386901b1c1916600185901b17855561195b565b600085815260208120601f198616915b828110156134a357888601518255948401946001909101908401613484565b50858210156134c15787850151600019600388901b60f8161c191681555b5050505050600190811b01905550565b6020808252602e908201527f496e697469616c697a61626c653a20636f6e747261637420697320616c72656160408201526d191e481a5b9a5d1a585b1a5e995960921b606082015260800190565b6020808252602b908201527f496e697469616c697a61626c653a20636f6e7472616374206973206e6f74206960408201526a6e697469616c697a696e6760a81b606082015260800190565b805163ffffffff81168114611be457600080fd5b60006060828403121561359057600080fd5b604051606081018181106001600160401b03821117156135b2576135b2612953565b6040528251600681106135c457600080fd5b81526135d26020840161356a565b60208201526135e36040840161356a565b60408201529392505050565b60008261360c57634e487b7160e01b600052601260045260246000fd5b50049056fea2646970667358221220f2fcc8778241de27a5e9b5f9abc7825262a19b3b0d368dbec44d92113a92620d64736f6c63430008110033",
    "linkReferences": {}
  },
  "methodIdentifiers": {
    "agentManager()": "7622f78d",
    "destination()": "b269681d",
    "getGuardReport(uint256)": "c495912b",
    "getReportsAmount()": "756ed01d",
    "getStoredSignature(uint256)": "ddeffa66",
    "initialize(address,address,address)": "c0c53b8b",
    "localDomain()": "8d3638f4",
    "multicall((bool,bytes)[])": "60fc8466",
    "origin()": "938b5f32",
    "owner()": "8da5cb5b",
    "renounceOwnership()": "715018a6",
    "submitAttestation(bytes,bytes,bytes32,uint256[])": "6c38f723",
    "submitAttestationReport(bytes,bytes,bytes)": "77ec5c10",
    "submitStateReportWithAttestation(uint256,bytes,bytes,bytes,bytes)": "0b6b985c",
    "submitStateReportWithSnapshot(uint256,bytes,bytes,bytes)": "62389709",
    "submitStateReportWithSnapshotProof(uint256,bytes,bytes,bytes32[],bytes,bytes)": "0db27e77",
    "transferOwnership(address)": "f2fde38b",
    "verifyReceipt(bytes,bytes)": "c25aa585",
    "verifyReceiptReport(bytes,bytes)": "91af2e5d",
    "verifyStateReport(bytes,bytes)": "dfe39675",
    "verifyStateWithAttestation(uint256,bytes,bytes,bytes)": "200f6b66",
    "verifyStateWithSnapshot(uint256,bytes,bytes)": "213a6ddb",
    "verifyStateWithSnapshotProof(uint256,bytes,bytes32[],bytes,bytes)": "7be8e738",
    "version()": "54fd4d50"
  },
  "id": 28
}